:020000040800F2
:10000000001B0020E92D00087B920008D52D000878
:10001000D52D0008D52D0008D52D000800000000C2
:100020000000000000000000000000001D2E00087D
:10003000D52D000800000000E5300008C14C000884
:100040009931000899310008993100089931000868
:100050009931000899310008993100089931000858
:100060009931000899310008993100089931000848
:100070009931000899310008993100089931000838
:100080009931000899310008993100089931000828
:100090009931000899310008993100089931000818
:1000A0009931000899310008993100089931000808
:1000B00099310008993100089931000899310008F8
:1000C00099310008993100089931000899310008E8
:1000D00099310008993100089931000899310008D8
:1000E00099310008993100089931000899310008C8
:1000F00099310008993100089931000899310008B8
:1001000099310008993100089931000899310008A7
:100110009931000899310008993100089931000897
:100120009931000899310008993100089931000887
:100130009931000899310008993100089931000877
:100140009931000899310008993100089931000867
:100150009931000899310008993100089931000857
:080160009931000899310008F3
:1001680081F0004102E000BF83F0004330B54FEA60
:1001780041044FEA430594EA050F08BF90EA020FCD
:100188001FBF54EA000C55EA020C7FEA645C7FEA60
:10019800655C00F0E2804FEA5454D4EB5555B8BF83
:1001A8006D420CDD2C4480EA020281EA030382EAF4
:1001B800000083EA010180EA020281EA0303362D86
:1001C80088BF30BD11F0004F4FEA01314FF4801C59
:1001D8004CEA113102D0404261EB410113F0004F6B
:1001E8004FEA03334CEA133302D0524263EB430322
:1001F80094EA050F00F0A780A4F10104D5F1200EC0
:100208000DDB02FA0EFC22FA05F2801841F100011A
:1002180003FA0EF2801843FA05F359410EE0A5F1EE
:1002280020050EF1200E012A03FA0EFC28BF4CF01F
:10023800020C43FA05F3C01851EBE37101F00045D5
:1002480007D54FF0000EDCF1000C7EEB00006EEBE2
:100258000101B1F5801F1BD3B1F5001F0CD349086C
:100268005FEA30004FEA3C0C04F101044FEA4452C3
:1002780012F5800F80F09A80BCF1004F08BF5FEA4A
:10028800500C50F1000041EB045141EA050130BD2A
:100298005FEA4C0C404141EB0101013C28BFB1F53C
:1002A800801FE9D291F0000F04BF01460020B1FA87
:1002B80081F308BF2033A3F10B03B3F120020CDA5A
:1002C8000C3208DD02F1140CC2F10C0201FA0CF038
:1002D80021FA02F10CE002F11402D8BFC2F1200C9D
:1002E80001FA02F120FA0CFCDCBF41EA0C01904053
:1002F800E41AA2BF01EB0451294330BD6FEA04049C
:100308001F3C1CDA0C340EDC04F11404C4F1200286
:1003180020FA04F001FA02F340EA030021FA04F398
:1003280045EA030130BDC4F10C04C4F1200220FAEF
:1003380002F001FA04F340EA0300294630BD21FA2D
:1003480004F0294630BD94F0000F83F4801306BFF3
:1003580081F480110134013D4EE77FEA645C18BFE7
:100368007FEA655C29D094EA050F08BF90EA020F7E
:1003780005D054EA000C04BF1946104630BD91EA76
:10038800030F1EBF0021002030BD5FEA545C05D179
:100398004000494128BF41F0004130BD14F58004B8
:1003A8003CBF01F5801130BD01F0004545F0FE412C
:1003B80041F470014FF0000030BD7FEA645C1ABF61
:1003C800194610467FEA655C1CBF0B46024650EA98
:1003D800013406BF52EA033591EA030F41F40021C4
:1003E80030BD00BF90F0000F04BF0021704730B54A
:1003F8004FF4806404F132044FF000054FF000011F
:1004080050E700BF90F0000F04BF0021704730B5DF
:100418004FF4806404F1320410F0004548BF4042B4
:100428004FF000013EE700BF42004FEAE2014FEA09
:1004380031014FEA02701FBF12F07F4393F07F4FE4
:1004480081F06051704732F07F4208BF704793F0E7
:100458007F4F04BF41F40021704730B54FF46074FA
:1004680001F0004521F000411CE700BF50EA0102FD
:1004780008BF704730B54FF000050AE050EA0102A6
:1004880008BF704730B511F0004502D5404261EB16
:1004980041014FF4806404F132045FEA915C3FF457
:1004A800D8AE4FF003025FEADC0C18BF03325FEAF4
:1004B800DC0C18BF033202EBDC02C2F1200300FAA5
:1004C80003FC20FA02F001FA03FE40EA0E0021FACA
:1004D80002F11444BDE600BF70B54FF0FF0C4CF4B8
:1004E800E06C1CEA11541DBF1CEA135594EA0C0F6A
:1004F80095EA0C0F00F0DEF82C4481EA030621EAA5
:100508004C5123EA4C5350EA013518BF52EA0335DF
:1005180041F4801143F4801338D0A0FB02CE4FF091
:100528000005E1FB02E506F00042E0FB03E54FF0C1
:100538000006E1FB03569CF0000F18BF4EF0010EB9
:10054800A4F1FF04B6F5007F64F5407404D25FEAB5
:100558004E0E6D4146EB060642EAC62141EA555168
:100568004FEAC52040EA5E504FEACE2EB4F1FD0CAA
:1005780088BFBCF5E06F1ED8BEF1004F08BF5FEA28
:10058800500E50F1000041EB045170BD06F00046DA
:1005980046EA010140EA020081EA0301B4EB5C0487
:1005A800C2BFD4EB0C0541EA045170BD41F480117F
:1005B8004FF0000E013C00F3AB8014F1360FDEBFA4
:1005C800002001F0004170BDC4F10004203C35DA80
:1005D8000C341BDC04F11404C4F1200500FA05F303
:1005E80020FA04F001FA05F240EA020001F00042A4
:1005F80021F0004110EBD37021FA04F642EB06011A
:100608005EEA430E08BF20EAD37070BDC4F10C0443
:10061800C4F1200500FA04F320FA05F001FA04F207
:1006280040EA020001F0004110EBD37041F10001F3
:100638005EEA430E08BF20EAD37070BDC4F12005FE
:1006480000FA05F24EEA020E20FA04F301FA05F266
:1006580043EA020321FA04F001F0004121FA04F20E
:1006680020EA020000EBD3705EEA430E08BF20EADE
:10067800D37070BD94F0000F0FD101F00046400018
:1006880041EB010111F4801F08BF013CF7D041EA9A
:10069800060195F0000F18BF704703F0004652009E
:1006A80043EB030313F4801F08BF013DF7D043EA6F
:1006B8000603704794EA0C0F0CEA135518BF95EA25
:1006C8000C0F0CD050EA410618BF52EA4306D1D1AC
:1006D80081EA030101F000414FF0000070BD50EACB
:1006E800410606BF1046194652EA430619D094EA55
:1006F8000C0F02D150EA013613D195EA0C0F05D13F
:1007080052EA03361CBF104619460AD181EA030192
:1007180001F0004141F0FE4141F470014FF000004A
:1007280070BD41F0FE4141F4780170BD70B54FF0E5
:10073800FF0C4CF4E06C1CEA11541DBF1CEA135565
:1007480094EA0C0F95EA0C0F00F0A7F8A4EB050447
:1007580081EA030E52EA03354FEA013100F088803E
:100768004FEA03334FF0805545EA131343EA126307
:100778004FEA022245EA111545EA10654FEA0026BC
:100788000EF000419D4208BF964244F1FD0404F575
:10079800407402D25B084FEA3202B61A65EB0305D1
:1007A8005B084FEA32024FF480104FF4002CB6EB8E
:1007B800020E75EB030E22BFB61A754640EA0C000E
:1007C8005B084FEA3202B6EB020E75EB030E22BF4E
:1007D800B61A754640EA5C005B084FEA3202B6EB8F
:1007E800020E75EB030E22BFB61A754640EA9C004E
:1007F8005B084FEA3202B6EB020E75EB030E22BF1E
:10080800B61A754640EADC0055EA060E18D04FEADB
:10081800051545EA16754FEA06164FEAC30343EA7B
:1008280052734FEAC2025FEA1C1CC0D111F4801F48
:100838000BD141EA00014FF000004FF0004CB6E741
:1008480011F4801F04BF01430020B4F1FD0C88BFE0
:10085800BCF5E06F3FF6AFAEB5EB030C04BFB6EBEB
:10086800020C5FEA500C50F1000041EB045170BDDE
:100878000EF0004E4EEA113114EB5C04C2BFD4EB0B
:100888000C0541EA045170BD41F480114FF0000E8F
:10089800013C90E645EA060E8DE60CEA135594EA0B
:1008A8000C0F08BF95EA0C0F3FF43BAF94EA0C0F0E
:1008B8000AD150EA01347FF434AF95EA0C0F7FF483
:1008C80025AF104619462CE795EA0C0F06D152EAD7
:1008D80003353FF4FDAE1046194622E750EA4106BB
:1008E80018BF52EA43067FF4C5AE50EA41047FF4CC
:1008F8000DAF52EA43057FF4EBAE12E74FEA41022F
:10090800B2F1E04324BFB3F5001CDCF1FE5C0DD965
:1009180001F0004C4FEAC0024CEA5070B2F1004FAF
:1009280040EB830008BF20F00100704711F0804FB2
:1009380021D113F13872BCBF01F00040704741F477
:1009480080114FEA5252C2F11802C2F1200C10FA7B
:100958000CF320FA02F018BF40F001004FEAC1235F
:100968004FEAD32303FA0CFC40EA0C0023FA02F303
:100978004FEA4303CCE77FEA625307D150EA0133D9
:100988001EBF4FF0FE4040F44000704701F00040A9
:1009980040F0FE4040F40000704700BF80F0004087
:1009A80002E000BF81F0004142001FBF5FEA41033F
:1009B80092EA030F7FEA226C7FEA236C6AD04FEA3F
:1009C8001262D2EB1363C1BFD21841404840414084
:1009D800B8BF5B42192B88BF704710F0004F40F436
:1009E800000020F07F4018BF404211F0004F41F452
:1009F800000121F07F4118BF494292EA030F3FD01E
:100A0800A2F1010241FA03FC10EB0C00C3F1200330
:100A180001FA03F100F0004302D5494260EB4000BF
:100A2800B0F5000F13D3B0F1807F06D340084FEA2A
:100A3800310102F10102FE2A51D2B1F1004F40EB1F
:100A4800C25008BF20F0010040EA03007047490087
:100A580040EB0000013A28BFB0F5000FEDD2B0FA24
:100A680080FCACF1080CB2EB0C0200FA0CF0AABF47
:100A780000EBC25052421843BCBFD04018437047E5
:100A880092F0000F81F4000106BF80F400000132EB
:100A9800013BB5E74FEA41037FEA226C18BF7FEAC2
:100AA800236C21D092EA030F04D092F0000F08BF04
:100AB8000846704790EA010F1CBF0020704712F0EB
:100AC8007F4F04D1400028BF40F00040704712F12A
:100AD80000723CBF00F50000704700F0004343F08F
:100AE800FE4040F4000070477FEA226216BF0846C5
:100AF8007FEA23630146420206BF5FEA412390EA88
:100B0800010F40F4800070474FF0000304E000BF7D
:100B180010F0004348BF40425FEA000C08BF70472E
:100B280043F0964301464FF000001CE050EA0102F2
:100B380008BF70474FF000030AE000BF50EA010207
:100B480008BF704711F0004302D5404261EB4101F4
:100B58005FEA010C02BF84460146002043F0B64319
:100B680008BFA3F18053A3F50003BCFA8CF2083A3E
:100B7800A3EBC25310DB01FA02FC634400FA02FC47
:100B8800C2F12002BCF1004F20FA02F243EB02004E
:100B980008BF20F00100704702F1200201FA02FCB0
:100BA800C2F1200250EA4C0021FA02F243EB0200A3
:100BB80008BF20EADC70704753B94AB9002908BF5A
:100BC80000281CBF4FF0FF314FF0FF3000F00CB889
:100BD800ADF1080C6DE904CE00F012F8DDF804E080
:100BE800DDE9022304B07047704700BF10F8012BFD
:100BF80011F8013B012A28BF9A42F7D0D01A704752
:100C08002DE9F0478C468E46089E1546044619463F
:100C1800002B40F0D080724547D9B2FA82F74FB125
:100C2800C7F120030EFA07FC20FA03F3BD4043EA9C
:100C38000C0CBC404FEA154EA8B2BCFBFEF8230CC6
:100C48000EFB18CC08FB00F943EA0C43994528D958
:100C5800EB1808F1FF3204D2994502D9A8F1020233
:100C68002B44A3EB0903A4B2B3FBFEFC0EFB1C331D
:100C78000CFB00F044EA0344A04214D92C190CF1EF
:100C8800FF3304D2A04202D9ACF102032C44241A47
:100C980043EA02401EB1FC40002334607360BDE8A3
:100CA800F0874246DDE76346F1E7002A79D0B2FAD9
:100CB80082F3002B3FD01946C1F1200302FA01F557
:100CC8002EFA03F20EFA01FE20FA03F343EA0E03AA
:100CD8004FEA154E00FA01F4B2FBFEFCAFB20EFB70
:100CE8001C201A0C0CFB07F842EA004290455AD91E
:100CF800AA180CF1FF3004D2904502D9ACF10200D9
:100D08002A44A2EB08029BB2B2FBFEFC0EFB1C229B
:100D18000CFB07F743EA02439F4246D9EB180CF154
:100D2800FF3204D29F4202D9ACF102022B44DB1BF2
:100D380042EA004202E0AEEB020301224FEA154EFE
:100D4800AFB2B3FBFEFC200C0EFB1C330CFB07F808
:100D580040EA034398452AD9EB180CF1FF3004D236
:100D6800984502D9ACF102002B44A3EB0803A4B2C6
:100D7800B3FBFEFC0EFB1C330CFB07F744EA0344F1
:100D8800A74216D92C190CF1FF3304D2A74202D975
:100D9800ACF102032C44E41B43EA00400F46114621
:100DA80078E71F2188E76046ABE76246BFE7604601
:100DB800DBE76346EFE7734506D916B90021084615
:100DC8006DE7C6E9000EF9E7B3FA83F787B973450B
:100DD80001D3824207D8841A6EEB030301209C4694
:100DE8001EB900215BE73846FAE7C6E9004CF8E788
:100DF800C7F1200CBB4022FA0CF51D4320FA0CF178
:100E08002EFA0CF30EFA07FE41EA0E014FEA1549D5
:100E180000FA07F4B3FBF9F81FFA85FE09FB18304E
:100E28000B0C08FB0EFA43EA00439A4502FA07F254
:100E380040D9EB1808F1FF3004D29A4502D9A8F13D
:100E480002002B44A3EB0A0389B2B3FBF9F809FBB0
:100E5800183308FB0EFE41EA03418E452CD9691868
:100E680008F1FF3304D28E4502D9A8F102032944C0
:100E780043EA0040A0FB0298A1EB0E014145CE4693
:100E8800434602D306D14C4504D2B9EB020E68EBB7
:100E980005030138002EA4D0B4EB0E0261EB030168
:100EA80001FA0CFC22FA07F34CEA0303F940C6E9FD
:100EB800003196E74046C5E74346D9E70000000001
:100EC80070B5174C206809F062F800B3206801F08B
:100ED800C3F82068134E0E21324601F083F870687B
:100EE800FFF790FA0CA3D3E90023FFF71FFC044691
:100EF80030680D46FFF786FA02460B46204629461B
:100F0800FFF734F9FFF7FAFC00EE100A70BD9FED09
:100F1800060AFBE7AFF300800000000080842E4142
:100F28004C00002000050020000000000000000028
:100F38002DE9F04F044689B0DFF80081384BD8F826
:100F480008609E420CD2374FBE4209D3736806AA86
:100F5800012140469847002812DA09B0BDE8F08F11
:100F6800314A324932484FF4217308F0D7F83149F1
:100F7800314808F0D3F84FF421712B4808F0C5F830
:100F8800DDE9065B4FF47A735C43A4FB052304FB9D
:100F98000B3304920393DDE903101FA3D3E9002365
:100FA800FFF70AFE049BDFF8989005904FF0FF3A90
:100FB8009A45039B79EB0303CFD36308A3FB05454D
:100FC80003FB0B55294614A3D3E900232046FFF75A
:100FD800F3FDA24579EB05050346BED3059A824287
:100FE800BBD30F4A964209D2BE4207D300220092D1
:100FF8003468059A01214046A047AEE70A4A0B49E2
:101008000B4840F26F2308F089F80A490A4808F0AB
:1010180085F840F26F21B0E700CA9A3B0000000053
:1010280054AD00084CAD000896BE0008C6BE0008C6
:10103800BFB40008FCBF00082FB600086CAA00085F
:10104800FFC99A3B000000002DE9F84F2DED028BF7
:1010580081468846002319F80370202F03F1010206
:1010680000F0A181A7F10901042940F29C812B2FEE
:10107800144631D02D2F34D0042547F02003692B96
:1010880031D06E2B6AD000224FF00A0B924694465C
:101098001346114615F4006075D047F02006A6F1F6
:1010A800610EBEF1050F6ED8573EF6B25E456FD39E
:1010B80047F02007782F05F0800640F0AE80002E1C
:1010C8005DD053EA010640F0AA8045F4006E1FFA8D
:1010D8008EFE4FF0100B8EE0042519F802709C1C50
:1010E800CBE74425F9E79FEDB28BB74B13F8011B0B
:1010F80051B119F8042042F020028A4204F101009B
:1011080030D0B24A93423AD1B0EE480AF0EE680ABB
:1011180009F06FFA50B119F80430282B06D10134C0
:1011280019F80430292B04F101041DD16B0607D5E9
:1011380018EE901A18EE102A01F1004343EC182B10
:10114800B8F1000F02D04C44C8F80040B0EE480A8D
:10115800F0EE680ABDEC028BBDE8F88F9FED968B28
:101168009B4BC3E70446C1E723F02002413A192A02
:10117800D6D9A3F13002092AD2D95F2BD0D09FED5E
:10118800908B0024DCE7A7F13006F6B25E4539D231
:1011980045F0800E15F480701FFA8EFE23D1BBF146
:1011A8000A0F14BF0F271027BA450EDCAF0527D446
:1011B800ABFB0335F3180BFB015545F1000153EA6E
:1011C800010018D00AF1010A15E045F4C07EBBF110
:1011D8000A0F1FFA8EFE06D1042E04D9052E08BF69
:1011E80006464FF0020C002E18BF4CF0010C1EF4FE
:1011F800007F00D1013219F804707546013449E7BF
:10120800013AD5E7FE2E7FF453AFAE053FF550AF58
:1012180045F4007E1FFA8EFEEDE7002EAFD00028C1
:1012280077D092007020B84218D119F804002B2802
:1012380004F1010604D02D286DD145F48065ADB2C6
:1012480019F80670A61C04463846A0F13007092F85
:1012580064D901340CBF06F1FF34B41E53EA01000F
:1012680004F1FF3400F09C8028057CD53632B1F5B6
:10127800800F6BD3574FB1F5000F6BD2BA4269DBC1
:101288004CEA030303F00306032E084603D003F0D9
:101298000606062E09D1043341F10000B0F5000F0F
:1012A80022BF013201234FF48000B2F5806F74DA57
:1012B800B0F5800F4FEA90064FEA930326BF02F27B
:1012C800FF3226F48016002243EA8073184646EA65
:1012D800025141EC180BB0EE480AF0EE680A07F02C
:1012E80039FD0138022804D801F064FF3A4B222264
:1012F8001A50B0EE480AF0EE680A07F02BFD0138E4
:1013080002283FF613AF01F055FF334B22221A5043
:101318000CE7652087E74FF0FF3496E7002440F29A
:10132800D34E4FF00A0B7445DCBF30380BFB040476
:1013380019F80600A0F13007092F06F10106F2D9C5
:101348006F0548BF64422244344687E7DB184941A9
:10135800013A8CE75E0846EAC17603F0010333439D
:101368004908013287E792441AF5A27F12DDBAF5DF
:101378009B7F12DA03F0010040EA0C00013080087C
:10138800181841F1000100F02BF8B0EE408AF0EE99
:10139800608AAEE79FED0A8BABE79FED058BA8E768
:1013A8009FED078BC2E6134655E600BFAFF30080FA
:1013B800000000000000F07F000000000000F87F3F
:1013C80000000000000000008ADC00088DDC000836
:1013D80087DC000802FCFFFF0C0000000000000092
:1013E8002DE9FF47804616460F46002900F0A380E6
:1013F800B1FA81F4341B002E04F10A04C0F2A38070
:10140800304607F089FB0444304607F08BFBA4EB19
:10141800060905466946304607F0ACFBA9EB05030B
:101428007D336A464046394608F001FFA6428246A7
:101438000D4600F38480B9F13F0F00F382804FF02E
:10144800FF33A9F1200003FA00F003FA09F2C9F109
:101458002001024323FA01F10A4303FA09F328EAB7
:10146800030327EA020213430CBF01200020002DCA
:1014780000F08B80B5FA85F3E31A03F23E4340F29D
:10148800FE72934200F38780002B23EAE371CCBFFE
:101498000A460122121BA2F23344C4F12007A2F229
:1014A800344EA2F253432AFA04F605FA07F73E43EC
:1014B80025FA03F3CEF1200CA2F254471E4305FA95
:1014C8000CFC2AFA0EF343EA0C0325FA07F73B4310
:1014D80013F0010325FA04F4CEF12008A2F25442D5
:1014E80018D04FF0FF3707FA02F307FA0EFC4CEA60
:1014F800030C27FA08F34CEA030C07FA0EF72AEA5A
:10150800070A25EA0C055AEA050A42D1002840D004
:1015180006F001039A1944F10004C4F3130452EAD3
:10152800040008BFC918164644EA015747EC106B77
:1015380004B0BDE8F087B0FA80F420345AE70120FF
:1015480095E7002093E7C6F10009484607F0EAFA54
:10155800241A484607F0E6FAA61B05466946484697
:101568002E4407F07BFB06F17C036A464046394669
:1015780008F05DFE82460D464046394607F0E2FA1D
:1015880081458CBF0020012071E7BAFA8AF3203325
:1015980072E70123BEE79FED020BC9E7AFF30080B6
:1015A800000000000000F07F10B560B91348144A2D
:1015B80014499C2307F0B2FD134807F0AFFD10480B
:1015C8009C2107F0A2FD8368104A934207D2104A73
:1015D800934204D31B686BB96FF0570010BD084ADB
:1015E8000C4906489C2307F099FD0B490B4807F066
:1015F80095FDE4E7BDE81040184700BFBFB40008F8
:1016080072B40008B1B40008DCB40008CCAD00081E
:10161800B8AD0008EDB400082AB600082FB60008D7
:1016280002460B46014803F013BF00BFE800002044
:10163800014803F0D5BF00BFE8000020F8B50E4D03
:101648000E4F0F4E4FF0FF304FF0FF31FFF7E8FF1E
:101658002B7853B13C7844B9306830B107F0F4FBCB
:1016680033685A7F0AB12C705C77FFF7E1FF0021DD
:10167800642005F0BBF9E5E789070020880700200A
:10168800D80400202DE9F0412DED028B98B02022DE
:1016980000210DAF10A808F030FD0024A949AA4880
:1016A8000D947C603C8107F080FBA849A64807F0B0
:1016B8007CFB00F047FEA64807F01AFD25460CAE55
:1016C800A4483146FFF770FF40B99DF830300D2B24
:1016D8000BD00A2B09D001353B55EDB2642000210F
:1016E80005F084F9092D2C46EAD104F160030DEBCD
:1016F80003040023984904F82C3C3846FFF776FA8F
:10170800964D002869D1964B96482B6007F0F0FC5F
:10171800954807F0EDFC954807F0EAFC07F03DFB1B
:10172800934BC3E9000100220023CDE906230024DE
:101738000523CDE903348F498F4B904800944FF42B
:101748008062CDE9014404F08DFA8D488D4F07F091
:10175800CFFC80480DF12701FFF726FF002840F055
:10176800E7809DF82710884807F0C2FC9DF82730CD
:101778000D2BA04602D00A2B40F09F8104F1600394
:101788000DEB03048148002304F8203C07F0B0FC6B
:101798007F4910A8FFF72AFA48BB4FF0FF304FF0F7
:1017A800FF31FFF73DFF3A7832B92B681A775C684A
:1017B80007F0F3FAC4E900012B685C6807F0EDFA5A
:1017C800744B0122C4E90C011A7000233B70FFF727
:1017D8002FFF714807F08CFCA6E0704B70482B6017
:1017E80007F086FC6F4807F083FC6F4894E76F4961
:1017F80010A8FFF7FBF90446C0B94FF0FF304FF0CF
:10180800FF31FFF70DFF634B3C701C702B685A6863
:10181800002191625A6800200021C2E90C011C775E
:10182800FFF706FF00F0D8FD6148D3E7614910A82B
:10183800FFF7DCF998B94FF0FF304FF0FF31FFF7B1
:10184800EFFE01233B702B685C6807F0A6FAC4E939
:101858000C01FFF7EDFE00F0BFFD5748BAE7574906
:1018680010A8FFF7C3F9044648BB4FF0FF304FF00C
:10187800FF31FFF7D5FE474B394A1C702B683C7087
:1018880093421C7707D1002000215A6B1A64C3E9E0
:1018980014019A6C5A645C6807F07FFAC4E9000185
:1018A8002B685A68002191625B6800200021C3E917
:1018B8000C01FFF7BDFE00F08FFD41488AE7414962
:1018C800092210A808F031FC002840F087800DF1AB
:1018D800490008F01AFC51EC100BFFF70FF808EE5E
:1018E800100AB5EEC08AF1EE10FA06D9DFED367AA5
:1018F800B4EEE78AF1EE10FA01DD34486AE74FF0FA
:10190800FF304FF0FF31FFF78BFE2B68234A9342DD
:1019180013D183ED0D8AFFF78BFEFDEEC87A2C48B4
:1019280017EE901A07F0E4FB2A4807F0E1FB0024C1
:101938000021642005F05AF80BE7FFF779FE2648E6
:1019480048E700BF48000020E004002044000020D1
:1019580046B60008C4A9000863B60008D8040020E9
:10196800F80100206AB6000877B60008AEB600088D
:101978000000002000080020451600080001002093
:101988005BB7000888070020B6B70008C7D500086D
:10199800B9B7000889070020BFB70008C0010020B8
:1019A800F7B6000806B700081FB70008CBB700084D
:1019B800D0B70008DCB70008E2B70008EDB70008A8
:1019C800F3B70008FDB700080000FA4307B800089D
:1019D8002EB8000860B6000847B800083D4909223B
:1019E80010A808F0A2FB00284DD13B4900960BAB8C
:1019F8000AAA0DF1490005F0ADFC03281BD19DEDA5
:101A08000A7AB5EEC07AF1EE10FA14D9DDED0B7A48
:101A1800B4EEE77AF1EE10FA0DDA9FED307AF4EED3
:101A2800C77AF1EE10FA06DCDDED0C7AF5EEC07A35
:101A3800F1EE10FA01D82A48CCE64FF0FF304FF00B
:101A4800FF31FFF7EDFD274B0B990A9AD9630C99E3
:101A58005A6399631A64FFF7EBFDDDED0C7A2248AF
:101A6800FDEEE77A17EE903ADDED0B7AFDEEE77AB8
:101A780017EE902ADDED0A7AFDEEE77A17EE901A56
:101A880007F036FB50E7194910A8FFF7AFF890B9EF
:101A98004FF0FF304FF0FF31FFF7C2FD144B2868BD
:101AA8001049984218BF194607F0E3F92860FFF774
:101AB800BFFD10488EE610488CE61E2C3FF638AF66
:101AC80008F160020DEB02080134E4B208F8203C8A
:101AD8002EE700BF70B800087AB800080000FA4383
:101AE80083B80008F8010020BEB80008E5B800086F
:101AF800C0010020EAB80008FCB800082DE9F0434E
:101B08001F4BDFF8A0C01D681E4B1F4FD3F8008085
:101B18001E4B1F4ED3F800E01E4BDFF88C905D6320
:101B280000220020002100241D641B4D1A615A6107
:101B38009A61C3E90801C3E90A01C3F804C09F60B8
:101B4800DE609C83C3E914011C63C3F80090C3F8EA
:101B58003880C3F83CE05D649D64104B1A615A619B
:101B68009A610F4ADE60C3E901C7C3E90801C3E906
:101B78000A019C831C631A605D63BDE8F08300BFA3
:101B88004000002038000020DC0400203C00002039
:101B9800E0040020F80100200000C842C001002035
:101BA80070B000080000002084B00008F7B50446B3
:101BB800FFF786F984ED000A08F07CFA0A22002370
:101BC800FEF7FAFF1E4D0E46D5E9001307467A1AAE
:101BD80066EB0303B2F5FA6F73F1000323DBD4ED70
:101BE800007A9FED186A1848FDEEE76A6423B8EE9C
:101BF800E67A16EE901A77EEC77A9FED147AF0EE31
:101C0800E77AB0EEC77A67EE867A27EE067AFDEEB7
:101C1800E77ABDEEC77A17EE902A8DED007A07F0C5
:101C280067FAC5E9007694ED007ADFED097AB4EE3B
:101C3800E77AF1EE10FA94BF0120002003B0F0BD5E
:101C4800500200200000C84208B90008005C0F3F9D
:101C5800B81EC9422DE9F0412DED028B84B004462F
:101C6800B0EE408A00F030FB07EE900A94ED047A5B
:101C7800F8EEE77A77EEC77AF0EEE77AC4ED057A00
:101C880008F018FA00230A22FEF796FF07460D46C9
:101C9800D4E90C0150EA010304BF38462946381A32
:101CA80065EB0101FEF74AFFDFED407A06EE900A88
:101CB80086EEA77AC4E90C75D4ED0A7ADFED3C6AA2
:101CC800E7EE087A94ED057AC4ED0A7A27EE267ACB
:101CD800DFED386AC4ED077AF4EEE67AF1EE10FA31
:101CE80084ED097A5FD4D4E9002341F28831BA1A25
:101CF80065EB03038A4273F1000354DB37EEC76ACE
:101D0800B0EEC66AC6EE276ADFF8B880D8E90023C5
:101D1800BE1A65EB0303B6F5FA6F73F100039FED86
:101D2800266A66EE866AC4ED086A2CDBFDEEC75AA1
:101D3800FDEEE66AB8EEE55A15EE902A37EE457ADA
:101D4800BDEEE75AB0EEC77AF8EEC54A27EE067A36
:101D580077EEE47AF0EEE77A67EE867A1748CDED0B
:101D6800026AFDEEE77A8DED005ACDED017AFDEEBF
:101D7800C77A17EE903AFDEEC87A17EE901A07F078
:101D8800B7F9C8E9007594ED087ADFED0D7AB4EE7D
:101D9800E77AF1EE10FA94BF0120002004B0BDEC00
:101DA800028BBDE8F0810120F8E700BF00BA5B4A6A
:101DB8003EC32E3817B7D1380000C84240B90008D2
:101DC800EC51A04058020020F8B5044608F072F91A
:101DD8000A220023FEF7F0FE0D46D4E91412064647
:101DE800711A03464EF6602065EB0202814272F1D9
:101DF800000212DBD4ED107A94ED0E7A37EE277AD2
:101E0800D4ED0F7AB4EEE77AF1EE10FAC4E914656E
:101E1800D8BFF0EE477AC4ED107A254FD4ED117A89
:101E280094ED107ADFED236AD7E90012E7EE667ABF
:101E38005B1A65EB0202B3F57A7F72F10002C4ED1A
:101E4800117A24DBFDEEE76A1B48B8EEE66A16EE67
:101E5800902A77EEC67A9FED196AF0EEE77A67EE78
:101E6800867AFDEEE77A17EE903AFDEEC77A17EE1E
:101E7800901A07F03DF9D4ED107A1148FDEEE77A93
:101E8800314617EE902A07F033F9C7E90065D4ED1B
:101E9800117AF5EEC07AF1EE10FA06D801236377CD
:101EA80000F09AFA074807F023F994ED100AF8BDF4
:101EB80060020020DC693A3690B900080000C84288
:101EC800BDB90008D8B9000810B52DED028B037F05
:101ED8000446B0EE408A93B900F0F6F907EE900A8E
:101EE8006368F8EEE77AC3ED047A08F0E3F80023B4
:101EF8000A22FEF761FEC4E9080101232377DFED1A
:101F0800157AB4EEE78AF1EE10FA1FD49FED127A33
:101F1800C8EE077A9FED117AC4ED047A67EE877AE6
:101F2800C4ED057A00F05EFA94ED057ADFED0C6AEF
:101F3800C6EE877AFCEEE77AC4ED0C7ABDEC028B2C
:101F480017EE900ABDE81040FEF7F2BFBDEC028B19
:101F580010BD00BF6F12833A000061450000FA46C9
:101F68000024744970B50446D0ED050A4068FFF7AF
:101F780071FE40BB08F09EF80A220023FEF71CFE03
:101F88000D46D4E90A130646721A40F6C41165EBE9
:101F980003038A4273F1000304DB104807F0A8F832
:101FA800C4E90A65E068002106F007FFA068FFF7AA
:101FB800FDFD68B90A4807F09BF8E0680121BDE813
:101FC800704006F0FABEE068002106F010FFEDE769
:101FD800E0680121BDE8704006F009BFEFB90008CC
:101FE80016BA000810B570B91248134A134940F2DE
:101FF800EF3307F093F8124807F090F80E4840F2D4
:10200800EF3107F082F883680E4CA34206D20E4CDB
:10201800A34203D3BDE810401B691847064A0B4981
:10202800044840F2EF3307F079F80949094807F006
:1020380075F8E3E7BFB400084ABA0008B1B400086D
:10204800DCB400089CAD000864AD00087DBA000847
:10205800C8BB00082FB6000810B570B91348144A59
:10206800144940F2B13307F059F8134807F056F80D
:102078000F4840F2B13107F048F883680F4A93429D
:1020880007D20F4A934204D3BDE81040DB684C21C5
:102098001847074A0B49054840F2B13307F03EF8A4
:1020A80009490A4807F03AF8E2E700BFBFB4000858
:1020B8004ABA0008B1B40008DCB400089CAD0008B6
:1020C80064AD00087DBA0008C8BB00082FB6000838
:1020D80010B503460A46006819790469012303FA12
:1020E80001F143681B6819420ED12249224A23484C
:1020F80040F29A6307F012F8214807F00FF840F20F
:102108009A611D4807F001F823681E4C194218BF50
:1021180082F00102BAB18368A34206D21A4A9342F6
:1021280003D3DB68BDE810401847134A1749134822
:102138004FF4B06306F0F2FF1549164806F0EEFFBB
:102148004FF4B061DDE78368A34204D20E4A93429C
:1021580001D31B69E6E7084A0C49084840F2AA532C
:1021680006F0DCFF0A490B4806F0D8FF40F2AA51F6
:10217800C7E700BF00BC0008CFBB0008BFB4000819
:102188003EBC000834AD000810AD000850BC000883
:102198008FBD00082FB600080148FFF799BF00BFA0
:1021A800B8B000080148FFF793BF00BFC0B00008EF
:1021B8002DE9F041034600681979DB8870B9344885
:1021C800344A35494FF47A7306F0A8FF334806F0CD
:1021D800A5FF4FF47A712F4806F097FF8668304ABA
:1021E800964215D22F4A964212D303F03002302A73
:1021F8004468076918D12C49264A25484FF47D734D
:1022080006F08CFF294806F089FF4FF47D71E2E75C
:10221800204A27491E484FF47A7306F07FFF254964
:10222800254806F07BFFD4E703F00602042A09D10B
:102238002249184A164840F2FB3306F06FFF40F275
:10224800FB31C8E724680125DA0705FA01F554BF10
:1022580043F4B01383F4D013254223F480120CD135
:1022680017490C4A0A4840F20E4306F057FF154832
:1022780006F054FF40F20E41ADE73C68DB074CBF67
:102288002C43AC433C603368BDE8F041184700BFBD
:10229800BFB40008CFBB000894BD0008DCB4000838
:1022A80034AD000810AD0008A3BD0008DCBD00086F
:1022B80050BC00088FBD00082FB6000819BE0008E2
:1022C80000BC00083EBC000873B51A48FFF7C4FEFE
:1022D8001848194E6A462F21FFF784FE009C4FF4D8
:1022E80016635C434FF4B47394FBF3F43368BFF3A1
:1022F8005B8F13F0010F114D07D1304607F0DEFE5A
:1023080018B130462C6007F0E5FE2868201A10F551
:10231800966F08DA00F51660094B2C601A681044AD
:10232800186002B070BDB0F5966FC8BFA0F5166012
:10233800F2E700BFA4AA0008F8040020FC0400206B
:10234800F404002008B5174807F021FE20B9164804
:10235800BDE8084006F0CCBE144807F018FE08B9DE
:102368001348F5E7134B186807F011FE08B912482F
:10237800EEE7124807F00BFE08B91148E8E71148E4
:10238800FFF716FF1048FFF713FF1048FFF710FF7D
:102398000F48FFF70DFF0C480021FFF799FE0D4885
:1023A800D6E700BF8CA900084CBE00086CAA00083C
:1023B8005BBE00084C00002066BE0008A4AA000806
:1023C80071BE0008B8B00008B0B00008A8B0000896
:1023D800C0B000087DBE000801480021FFF778BEA4
:1023E800A8B0000801480121FFF772BEA8B0000894
:1023F800B2F5802F2DE9F8430ED33E493E4A3F48B7
:1024080040F2E12306F08AFE3D4806F087FE40F2DE
:10241800E121394806F079FE042A0CD83949364AB0
:1024280036484FF43A7306F079FE374806F076FEE0
:102438004FF43A71EDE7043ACD1D114425F0070534
:1024480021F00706A6EB0508B8F1170F4FEAD807E1
:102458000CD82E49284A294840F2F12306F05EFE9E
:10246800294806F05BFE40F2F121D2E7B7FA87F47B
:10247800C4F12002C4F12404A4000734E408631C56
:102488004FF00009BB420560AF60C5F80C900CD94D
:102498001F49194A194840F2073306F03FFE1A4807
:1024A80006F03CFE40F20731B3E74946920005F1D9
:1024B800100007F022FEA2B2530043F001036B8024
:1024C8003B1B9BB205EBC4015800A5F8009048805F
:1024D80025F83420A6F8029025F8083005EBC70344
:1024E80021465A8842F001025A802846BDE8F8433E
:1024F80006F024BD5BC0000800C00008BFB4000897
:1025080071C0000888C00008A9C00008C2C000083F
:10251800EBC0000808B5054806F0EAFD044807F0D6
:1025280028FD044806F0E4FD002008BD16C1000897
:1025380040420F0052C10008014B1B68184700BFFA
:1025480050000020014B1860704700BF5000002069
:1025580030B5044685B00D4610220021684607F0C4
:10256800CCFD02238DF802302A46044B0193214604
:10257800684604F09FFF05B030BD00BF4125000844
:10258800034A536823F0020353600020704700BFDA
:10259800002004E038B54568194C204607F0F7FCE0
:1025A80050B3A368174A934207D2174A934204D3F9
:1025B8001B6883B96FF057001DE0144A1449154889
:1025C800B02306F0ABFD1449144806F0A7FD0F48E8
:1025D800B02106F09AFD29462046984700280ADBD4
:1025E80000F066F80E4B5A6842F400725A605A6856
:1025F8009205FCD5002038BD6FF01200FBE700BF44
:1026080090A80008B8AD00089CAD0008A3C1000858
:10261800DDC10008BFB4000859C300082FB6000880
:102628000070004008B541681048114A8368934219
:1026380001F10C0107D20F4A934204D31B6883B9F6
:102648006FF057000EE00C4A0C490D48B02306F015
:1026580065FD0C490C4806F061FD0748B02106F0FD
:1026680054FD984700EAE07008BD00BF90A8000834
:10267800B8AD00089CAD0008A3C10008DDC1000882
:10268800BFB4000859C300082FB60008072810B5C2
:1026980002D90024204610BD044B53F820402046A0
:1026A80007F075FC0028F5D1F3E700BF70B100080A
:1026B80010B5EFF31184102383F31288BFF36F8FE3
:1026C8001C4804F06DFB68B91B4A1C491C48882348
:1026D80006F024FD17491B4806F020FD88211648FE
:1026E80006F013FD134804F07FFB174B1A683AB93C
:1026F800164A116841F4807111601168C905FCD54A
:102708001A680C4801321A6004F058FB68B90A4A82
:102718000F490B484FF49B7306F000FD05490D481F
:1027280006F0FCFC4FF49B71D9E784F31188BFF3E2
:102738006F8F10BD8C050020E7C3000814C4000883
:10274800BFB4000829C400088805002000700040B4
:102758003FC4000856C40008084B1A6842F4807247
:102768001A601A6842F400721A601A6842F48062A9
:102778001A60034B034A1A60704700BF003C0240CE
:102788009C0000200024F400014B036000207047E7
:1027980090B1000880B505460E461746984604F0E5
:1027A80023FA034600F006FDDFF85090044649F886
:1027B8000030424639463046A8470B4B1B7873B960
:1027C8000A490B4A0B4840F2463306F0A7FC0A4870
:1027D80006F0A4FC064840F2463106F096FC54F890
:1027E800090000F065FC00BF8B07002096C40008B4
:1027F8006BC40008BFB40008A9C4000808000000A2
:1028080008B50348034A0021121A06F02AFD08BD3C
:1028180000010020900700200748084A084908B529
:10282800121A06F020FD0748074A0849BDE8084083
:10283800121A06F018BD00BF00000020FC0000209E
:10284800A0DC00080000002000000020A0DC000838
:10285800F0B5074687B00C4600292ED0D1E90123F0
:102868001D48096806F044FCD4E90423E1681B48C4
:1028780006F03EFCE1691A4806F03AFC26460025B7
:10288800F36A0493EB1C0393B36A0293AB1C0193A2
:10289800736A0093326A13486B1C2946043506F0A4
:1028A80027FC102D06F11006EAD1216E0E4806F01D
:1028B8001FFCA1690D4806F01BFC012F05D1EFF3A1
:1028C80005810B48103906F013FC2146384607B03D
:1028D800BDE8F04002F006BCCBC40008FBC4000809
:1028E8002BC500083BC500087FC500088FC5000838
:1028F800BEC5000830BFFFF7FDBF00BF2DE9F0419E
:102908000B4EDFF8348006EB0807CC1B0546324631
:102918000849204607F0E3FBA01942460021083C7D
:1029280007F0EBFB2C6707F10800BDE8F08100BF5A
:1029380000000000D0AD0008080000002DE9F843B1
:102948003B4D80463B481746894606F0D1FBAB6AAB
:10295800DA0622D5384806F0CBFB1124AB6A1B07F0
:1029680003D5364806F0C4FB1224314DAB6A9E07E6
:1029780015D5334806F0BCFB6E6BAB6A1C0642D516
:102988003048314606F0B4FBB9F1000F03D0AB6A0A
:1029980023F08003AB62132403E01024DEE76FF01A
:1029A8001506234DAB6AD80703D5274806F0A0FBC8
:1029B8001424AB6A990603D5244806F099FB15241C
:1029C8001B4DAB6ADA0602D4AB6A9B070AD56B6863
:1029D800180507D54146304600F0EEFAB0B180F34D
:1029E80009880224124B9A6A920642BF5A6A22F454
:1029F80000525A629A6A42F0FF029A6200233B70C0
:102A08002046BDE8F8836FF01506C4E7AB6AD9061F
:102A1800E8D50F490F4A104840F2271306F07EFB0D
:102A28000E4806F07BFB0B4840F2271106F06DFBC1
:102A380000ED00E0D2C50008E9C500081DC6000881
:102A480031C600084AC6000861C6000881C60008E9
:102A5800E3C60008B1C60008BFB400082DC70008C7
:102A680010B51D4C1D4806F043FBA36A990130D5EB
:102A78001B4806F03DFB1E20A36ADA0103D519485E
:102A880006F036FB1F20144CA36A1B0303D5164817
:102A980006F02EFB2120A36A590303D5134806F03C
:102AA80027FB22200C4CA36A9A0303D5104806F092
:102AB8001FFB2320A36ADB0303D50E4806F018FB8F
:102AC8002420054A936A6FEA03436FEA134393622B
:102AD80010BD1D20D0E700BF00ED00E050C7000882
:102AE80069C700087DC7000898C70008B7C700086D
:102AF800DDC70008F8C7000870B5244C064624480E
:102B08000D4606F0F5FAA36AD90435D5214806F032
:102B1800EFFA1720A36A1A0503D51F4806F0E8FA4A
:102B280018201A4CA36A9B050FD51C4806F0E0FA3A
:102B3800A16BA36A180407D5194806F0D9FA1EB183
:102B4800A36A23F40043A3621920104CA36A590511
:102B580003D5144806F0CCFA1A20A36ADA050DD575
:102B6800114806F0C5FA1B20084A936A43F47F43CC
:102B7800936200232B7070BD1620CBE7A36A9B04D9
:102B8800F2D50A4806F0B4FA1C20EDE700ED00E0A3
:102B980024C800083BC800081DC600084DC8000826
:102BA80067C800087DC8000899C8000881C60008E1
:102BB80070B56E4B054658689CB0C0F308030026F4
:102BC80086F31188BFF36F8F02F07F44B4F17F4F13
:102BD80006D102F00C04082C11D1654806F088FAD9
:102BE8006449654A654840F21B4306F097FA644811
:102BF80006F094FA40F21B415F4806F086FA140783
:102C08004CBF0D460126002DEAD00024DA1E8DF8AF
:102C18000740092A00F29A80DFE802F0058E9271D7
:102C2800989898989896574806F062FA8DF8074051
:102C38004E4CE36A9A0704D5534806F059FA002423
:102C48002AE0E36A002B01DA5048F6E7E36A5B0002
:102C580065D54F4806F04CFA6369AA6943F4807356
:102C68006361BFF34F8FBFF36F8F32F8023C626925
:102C780022F480726261BFF34F8FBFF36F8F03F44A
:102C88007F42B2F55F4F20D1DBB2022B1DD12968FC
:102C9800404806F02DFA2C689DF807309BB9682249
:102CA800294602A807F01BFA099B002E5AD0C3F345
:102CB800080222B96FEA53236FEA4323099302A952
:102CC8002046FFF7C5FD1CB070BD284B9A6AD2B2EA
:102CD8003AB10DF1070201212846FFF72FFE0446FD
:102CE800DAE79A6A12F47F4F05D00DF10701012047
:102CF800FFF702FFF3E79B6AB3F5803F02D3FFF7C4
:102D0800AFFEECE724491C4A1C4840F2ED2306F0CC
:102D180005FA224806F002FA40F2ED216CE71E4956
:102D2800154A16484FF43C7306F0F8F91C4806F0AB
:102D3800F5F94FF43C715FE70DF107020021CBE78D
:102D48000DF107010020D3E7164876E7A3F110023A
:102D5800154B164910F4F87F08BF1946144806F0B9
:102D6800C7F96CE76FF30803A8E700BF00ED00E0C0
:102D7800E0C800080CC90008B1C60008BFB40008C4
:102D88001FC900085DC9000875C9000897C900086F
:102D9800A6C90008C6C90008A5D30008E3C90008E9
:102DA80007CA000837CA0008B2C80008C7C8000820
:102DB8005CCA0008044B5A6942F010025A615A6909
:102DC80022F008025A61704700ED00E0EFF3088036
:102DD800EFF3098101B57246FFF7EAFE01BD00BFB6
:102DE8000A4880F30888102080F3118808484FF4B7
:102DF8000861401880F30988EFF314800221084322
:102E080080F31488BFF36F8F00F066F8001B002072
:102E1800800C00201EF0040F0CBFEFF30880EFF3C6
:102E28000980816911F8021C0229FFD001B5724698
:102E380006F01BFA01BD00BF40B2002807DB044AB8
:102E48004109012300F01F00834042F821307047F8
:102E580000E100E038B54B1C0F2B04460D460FD996
:102E6800114A124912486B2306F058F911482946AD
:102E78000F23224606F052F90B486B2106F045F95C
:102E880040B20028ACBF00F160400B4A4FEA031380
:102E9800B8BF00F00F00DBB2AABF00F561401354C1
:102EA80080F8003338BD00BF70CA0008A7CA000800
:102EB800BFB40008C2CA000814ED00E0044B054A7C
:102EC80023F07F039360BFF34F8FBFF36F8F70477B
:102ED8000000000800ED00E008B5FFF7EFFF104B19
:102EE800D3F8882022F47002C3F88820D3F8882009
:102EF80042F4A002C3F888204FF04042C3F83422BD
:102F0800BFF34F8FBFF36F8F0023E1EE103AFFF747
:102F180077FCFFF781FC00F02FF902F0EFF900BF12
:102F280000ED00E04FF47D41C0F8BC1042F8203CB1
:102F3800009B42F81C3C0A49019B42F8183C029B42
:102F480042F8143C21F001014FF0807342F8043C30
:102F580042F8081C0023203A02654367704700BF07
:102F68009D270008838913F0020F124B03D190F8B4
:102F7800BD20D20611D45A6B42F080425A63D0F871
:102F8800BC3019075CBF43F00803C0F8BC30838924
:102F980043F002038381802070475A6B22F08042FD
:102FA8005A63D0F8BC301A0744BF23F00803C0F8AE
:102FB800BC30F0E700EF00E0094A0346906870B1C2
:102FC80013F1160F006E05D0A0F18002934205D3CD
:102FD800834203D2814228BF0020704700207047F7
:102FE80048070020104B9B6883421AD1EFF30580F5
:102FF800B8B9EFF31181102282F31288BFF36F8FF3
:103008009A8922F002029A81EFF3148323F00403D1
:1030180083F31488BFF36F8F81F31188BFF36F8F29
:1030280070476FF0150070474807002008B515462F
:103038000E460022E1EE102AEFF3148222F0040279
:1030480082F31488BFF36F8FBFF36F8F0B4A0C4B5B
:103058009060026F1A6000F0BFF82C4686F309886A
:103068000020044B98472046002100220023024CF0
:1030780020470000959200089D2700084807002077
:1030880090050020014B10221A61704700ED00E006
:10309800054B9A699B689A421FBF044A536843F0DC
:1030A80080535360704700BF4807002000ED00E0E0
:1030B800084B9B6883420BD1EFF3058343B1064B62
:1030C8005A6842F080525A605A6A22F400425A62A0
:1030D80002F00EBE4807002000ED00E023498A6890
:1030E80082F8BDE04FF030001044EFF3098C80E81F
:1030F800F01F1EF0100F03D102F17C0080EC108A43
:10310800102080F31288BFF36F8F194F4FF00066BD
:103118008A698A603E60106F164C206092F9BDE0A3
:10312800506F0023536780F311881EF0100F03D0EF
:103138000023E1EE103A03E002F17C0090EC108AE3
:10314800EFF3148323F0040383F31488BFF36F8F22
:1031580004B5104600F040F8BDE8044002F1300024
:1031680090E8F01F8CF3098870470000480700209A
:1031780004ED00E090050020044800231021C21847
:1031880001334A2B82F80013F9D1704700E100E0BF
:1031980008B5EFF30583064A103B02EBC30152F86A
:1031A800330049688847BDE80840FFF771BF00BF92
:1031B800C0AA000801480068704700009005002078
:1031C800024B034A0348012100F07CB800000220AA
:1031D8000000002090B1000810B50446FFF7C2FEB9
:1031E800226E03460548D21AC0E90023044B8360C7
:1031F800BDE81040012100F08BB800BF9405002005
:1032080000000B15084AC2F898000B6823F01F034A
:10321800034343F01003C2F89C308B6843F001036A
:10322800C2F8A030704700BF00ED00E02DE9F04380
:10323800DFF8608085B00E461F4604464FF000094F
:10324800B14523DA6068D8B13FB1411E08421BD1AD
:103258007F2819D92368194216D12368019306F0EB
:1032680029F8A36803430393D8F89050C5F30725BA
:10327800D0B2013DA84207D801A9FFF7C3FF421CFD
:1032880009F101090C34DBE76FF01502104605B0AF
:10329800BDE8F08300ED00E0044B0522C3F894205C
:1032A800BFF34F8FBFF36F8F704700BF00ED00E093
:1032B800BFF35F8F024B0022C3F89420704700BF12
:1032C80000ED00E038B50D4D01232A780C46FFF7D4
:1032D800ADFF287016300FD1094A0A490A4840F252
:1032E800891305F01BFF0948214605F017FF04481C
:1032F80040F2891105F009FF38BD00BF8A07002098
:1033080002CB0008A5D30008BFB4000831CB0008E1
:1033180010B5144A002312780C46FFF787FF10F106
:10332800160F08D0104A0021D2F89030C3F30723B3
:10333800984210DB10BD0D4A0D490E484FF4D47366
:1033480005F0ECFE0C48214605F0E8FE07484FF46E
:10335800D47105F0DAFEC2F89800C2F8A010013066
:10336800E2E700BF8A07002000ED00E002CB00087A
:10337800A5D30008BFB400085DCB00082DE9F04FC5
:103388007F4E804DD6F890302C68C3F307239C42BB
:1033980085B013D97C4A7D497D4840F2022305F067
:1033A800BDFED6F890207B482146C2F3072205F0DF
:1033B800B5FE40F20221744805F0A7FEFFF778FF3A
:1033C80000200C2684422DD1734EDFF8B49134705E
:1033D8006846FFF7D9F9714C714D80460027B8450A
:1033E80027D1337866490020D1F89020C2F307220C
:1033F8009342C0F2BA80FFF74FFFD1F8903003F440
:103408007F43B3F5006F00F0B68066495E4A6048B6
:1034180040F27D2305F082FE634805F07FFE40F20E
:103428007D21C8E7696806FB0011FFF7EBFE013054
:10343800C8E7009A02EB07133901D3F80CA00AEA8F
:103448000400B0F5000F69D00AD8B0F5001F3DD0D0
:10345800B0F5800F55D0B0F5801F15D00137BEE705
:10346800B0F1007F65D0B0F1805F6DD0B0F1807FA2
:10347800F4D19868D3F804A0525805F01BFFCDE9A1
:1034880001A240F088700BE09868D3F804A0525865
:1034980005F010FFCDE901A240F0885040F430203B
:1034A8000390D9F890303078C3F30723013B984252
:1034B80054D93649344A364840F2352305F02EFEB1
:1034C8003A4805F02BFE40F2352174E79868D3F8A6
:1034D80004B0525805F0EEFE40F0885040F4002049
:1034E8001AF0010FCDE901B20390DAD03049264A2B
:1034F8002748842305F012FE2E4805F00FFE84218C
:1035080059E79868D3F804A0525805F0D3FE40F064
:10351800C060CDE901A240F40030C1E79868D3F853
:1035280004A0525805F0C6FECDE901A240F0827011
:10353800B6E79868D3F804A0525805F0BBFECDE969
:1035480001A240F48020ABE79868D3F804A0525851
:1035580005F0B0FECDE901A22843A1E701A9FFF7D4
:1035680051FE33780133337078E7C1F89830C1F8E9
:10357800A000013338E7002005B0BDE8F08F00BF98
:1035880000ED00E09CB1000802CB0008A5D30008BC
:10359800BFB400088ACB00088A0700200000F0FFAB
:1035A800000002113DCC00088DCC000813CC0008A7
:1035B800BECB0008E4CB000808B5024B1B6898474F
:1035C800002008BDA0050020034B044A186093782A
:1035D80043F0020393707047A005002054000020B8
:1035E80008B50649064821F00701C1F1005202F565
:1035F8000032FEF7FDFE002008BD00BF871B00203B
:10360800A405002008B509484FF0FF324FF0FF33FA
:1036180001F01EFF48B106490648074A7F2305F016
:103628007DFD05487F2105F070FD08BD6400002080
:10363800F7CC0008BFB40008BDCC0008014801F071
:10364800CFBF00BF6400002010B50446FFF7DAFFC3
:103658002146034805F0DEFCBDE81040FFF7EEBF49
:10366800A405002007B5124A92E80300CDE900013D
:103678001048114982688A4207D210498A4204D305
:10368800126882B96FF057000FE00D4A0D490E48D5
:10369800B02305F043FD0D490D4805F03FFD0848EE
:1036A800B02105F032FD6946904703B05DF804FB90
:1036B800D0AD000890A80008B8AD00089CAD00087F
:1036C800A3C10008DDC10008BFB4000859C3000841
:1036D8002FB600081F2809D8012303FA00F0044B6D
:1036E8005B6998430CBF0120002070470020704799
:1036F800003C014000F01F021F284FF0010303FAAD
:1037080002F39DBF024A002053616FF01500704715
:10371800003C0140044B1844002301338B4200F85D
:10372800012BFADB704700BFB00000202DE9F04103
:10373800104F054600264FF001086B78F4B2A342FB
:1037480001D8BDE8F0812B781C442046FFF7C2FF62
:1037580068B12046FFF7CEFF57F834303BB107EB8E
:10376800C40204F01F04516808FA04F098470136AF
:10377800E3E700BFB005002008B510B1431E0342BF
:103788000CD00E490E4A0F48602305F0C7FC0E48BE
:1037980005F0C4FC60210A4805F0B7FCB0FA80F0D7
:1037A800C0F11F000F2807DD0849054A05486123B5
:1037B80005F0B4FC6121EEE7C0B208BD65CD000894
:1037C80023CD0008BFB400089ACD0008C3CD000877
:1037D80010B50446FFF7D0FF044B1856044B1A687F
:1037E80014431C60BDE81040FFF726BBB000002062
:1037F800003C0140024A136823EA00031360704743
:10380800003C014008B5174B03291ED8DFE801F03A
:10381800020B0E169A6822EA00029A60DA6822EA17
:103828000002DA6008BD9A680243F6E7DA680243E4
:10383800DA609A6822EA00029A60F3E79A6802431B
:103848009A60DA681043D860ECE707490748084AE5
:103858004FF4817305F062FC05484FF4817105F05F
:1038680054FC00BF003C0140A5D30008BFB40008C9
:1038780023CD000838B50D461446FFF77DFF0A4BE7
:1038880053F83020AA4204D103EBC0014968A14291
:1038980005D032B943F8305003EBC0035C60002018
:1038A80038BD6FF00F00FBE7B005002008B5FFF743
:1038B80063FF044B002243F8302003EBC0035A6037
:1038C80008BD00BFB005002000F0030204329200DA
:1038D8000F23934043EA9000C3B20233054A52F8DB
:1038E8002320030C02EA104093FAA3F3B3FA83F3FC
:1038F800D84070470038014038B508883A4BC0F3C3
:103908000B0016281B680D4614463ED810B96FF0F8
:10391800850039E001381528F9D801A252F820F0BD
:1039280085390008DF39000881390008DF390008C7
:10393800DB390008BB390008CB3900081739000803
:10394800173900081739000817390008173900080F
:1039580017390008173900081739000817390008FF
:1039680017390008173900081739000817390008EF
:1039780085390008853900084FF4FA43236029681F
:10398800B1F5805F29D2002038BD44280ED82F28F1
:10399800BDD900F57D61C1F30B0101228A401349AD
:1039A8000A42EBD14028B2D15B08E7E7A828E5D066
:1039B800ADE700F0CFF84FF4C072C30853439B083B
:1039C800DCE700F0C7F84FF4C072C3085343DB08C4
:1039D800D4E7074BD2E70023D0E7C1F31331013115
:1039E800B3FBF1F32360CEE79C0000201101100027
:1039F80000127A00162808D8054BC34013F0010FAF
:103A08000CBF6FF08500002070476FF0850070478D
:103A1800EA00600070B54A4C4A4D00F0C3F82046F1
:103A280005F03DFD01F052FAAB68474AC3F30313B2
:103A3800D35C20FA03F613781C41A64202D2204632
:103A480001F08CFA2B6843F480232B602B6843F435
:103A580080332B603B4B1A689103FCD55A6F42F0B8
:103A680001025A675A6F9207FCD59A6802F00C0255
:103A7800082A17D11A68950707D41A6842F0010274
:103A88001A60304A13689807FCD52E4B9A6822F0C2
:103A980003029A609A6812F00C0FFBD19A6822F020
:103AA800F0029A60274D2B6823F080732B602B68F7
:103AB8009901FCD4254AD2F8043823F4403343F45E
:103AC8008033C2F80438D2F8043823F0706343F026
:103AD8000063C2F8043800F041F82B6843F08073A3
:103AE8002B60184B1A689201FCD59A6822F0F002F4
:103AF8009A609A6822F0030242F002029A609A6879
:103B080002F00C02082AFAD1A64202D3204601F09C
:103B180025FA0F4B0A4A1A600A4B9A6822F4E052B7
:103B280042F480529A609A6822F460429A60D3F80C
:103B38008C2022F08072C3F88C20002070BD00BF5A
:103B480000D8B8050038024077DC00080030024091
:103B58009C0000200048704700127A000C4B0D4969
:103B68005A6811400C4A0A435A605A680B4922F4B1
:103B7800403242F480325A605A6822F0E04242F4FD
:103B880080325A605A681140054A0A435A607047A1
:103B9800003802400080BFFF086040000080BFF08E
:103BA80008604008064B1A6C42F0805282B01A64D2
:103BB8001B6C03F080530193019B02B0704700BF58
:103BC8000038024001460D480D4A8368934210B5FB
:103BD80006D20C4A934203D3BDE810405B681847ED
:103BE800094A0A490A48B82305F098FA09490A48CF
:103BF80005F094FA0448B82105F087FAC4A900082A
:103C0800CCAD0008B8AD000872B40008EDB40008E7
:103C1800BFB400082AB600082FB6000808B5074840
:103C280006F0B5F938B10648FFF7CEFC0448FEF7B0
:103C380089FC002008BD6FF01200FBE7C4A900084A
:103C4800A994000838B5036961B92149214A224875
:103C5800642305F063FA214805F060FA64211D48E1
:103C680005F053FA486850B91D491A4A1A4865239D
:103C780005F054FA1B4805F051FA6521EFE79868FA
:103C880000B30024884219D108688CB9DC689860B0
:103C9800A14200D1D860002008602AB19A680A6061
:103CA800DA68996002B9D96000200FE02846E9E790
:103CB8002060D868814208BFDC60ECE705680446EC
:103CC800002DF3D1002AE9D16FF0150038BD00BFEF
:103CD80088CE00084CCE0008BFB4000891CE00087A
:103CE800A0CE0008B2CE00082DE9F843D0F8049021
:103CF8000746D9F8080090460D461E4605F038FBE1
:103D0800B8F5001F044616D12846D9F80840FFF731
:103D1800DBFD84420CD1294605F02AFB0446FFF757
:103D280069FD2046FFF7C2FD00212046FFF76AFD26
:103D38000020BDE8F883B8F5800F20D0B6F1806F79
:103D480019D0B6F1C06F18D0B6F1007F1AD102268B
:103D58000F493A462046FFF78DFDB0B9D9F808104B
:103D6800284605F00AFB20463146FFF74BFD204662
:103D7800FFF72EFDDCE70126EAE70326E8E76FF008
:103D88008500D6E76FF01500D3E76FF00F00D0E796
:103D98009D3D000870B50B690E469968054609B146
:103DA8000C6801B970BD8A682A4010D04B6863B9A5
:103DB8000A490B4A0B48892305F0B0F90A4805F06F
:103DC800ADF90748892105F0A0F9304698471CB19C
:103DD800236821461C46E4E72346FAE7C9CE0008D3
:103DE8004CCE0008BFB40008B2CE0008F7B50446B0
:103DF800436806692448DD6800220F460192596825
:103E0800224A8368934209D2214A934206D3DB6847
:103E1800A3B96FF00404204603B0F0BD1D4A1E4943
:103E28001E484FF4897305F079F91D491D4805F0BE
:103E380075F918484FF4897105F067F901AA984790
:103E48000028E6DB376206F110074FF0FF324FF02B
:103E5800FF33384601F030FD2B6823F001032B6057
:103E6800204696F8521005F01EFC019900F0ACF8B7
:103E780096F8513004461BB12B6843F001032B60C0
:103E8800384601F09DFCC6E790A80008B8AD0008C8
:103E98009CAD0008A3C10008DDC10008BFB400083C
:103EA80059C300082FB6000870B50446466805696E
:103EB8004FF0FF320021284606F087F83368204685
:103EC8009847002385F8503085F852300122114672
:103ED80005F1100006F079F8204600F033F8316952
:103EE800144B994220D013D8134B99421ED0134B30
:103EF800CB1A59425941890041F010012046FFF779
:103F080075FF0028A2BF012385F85030002070BD3E
:103F18000B4B99420CD003F5C31303F52063994268
:103F28000CBF0A210021E7E70621E5E70221E3E7C4
:103F38000821E1E740420F00A0860100801A060030
:103F480040E1330013B5446801AA6069002105F017
:103F580038FE002826DB019B00221979186805F035
:103F680043FE00281EDB1048104A836861689342AC
:103F780007D20F4A934204D31B6883B96FF0040039
:103F880010E00C4A0C490D48B02305F0C7F80C495D
:103F98000C4805F0C3F80748B02105F0B6F8984773
:103FA8000028EBD102B010BD90A80008B8AD0008F9
:103FB8009CAD0008A3C10008DDC10008BFB400081B
:103FC80059C300082FB6000810B502694368126A81
:103FD800DB68C2F34202012A04D0022A21D06FF022
:103FE800150010BD58681F4AB1FBF2F220F03F00DF
:103FF80010435860186A013220F03F0002431A62E9
:10400800194AB1FBF2F140F6FC72114208BF0421D3
:10401800DA6922F44F4222F0FF020A43DA610020F3
:10402800DFE758680F4AB1FBF2F220F03F00104377
:104038005860186A4FF49674624320F03F004FF4BA
:104048007A74B2FBF4F2013202431A62074A9142CF
:1040580089BF013248F20101B1FBF2F141F400419C
:10406800D6E700BF40420F00400D03007F4F12000B
:104078002DE9F743DFF86C82864BD8F8087046685C
:10408800D0F81090346871699F420AD2824B9F42DF
:1040980007D33B689BB96FF05705284603B0BDE8C6
:1040A800F0837E4A7E497F48B02305F037F87E4981
:1040B8007E4805F033F87948B02105F026F84046E7
:1040C8009847051EE9DBB369012B40F2E08071696E
:1040D800BB690831002BDED00022404698470546D0
:1040E8000028DAD17169FB680831002BD3D06A4601
:1040F80040469847002823DB009BC9F80030D9E9DF
:10410800010168B967486A4A6A4940F26B1305F0C9
:1041180005F8694805F002F8654840F26B11CCE7EC
:104128008368664A93420DD2654A93420AD3DB6894
:10413800A3B9F06901AA002105F043FD00280FDAB0
:104148000546AAE75A4A5F49564840F26B1304F0FD
:10415800E5FF5D49554804F0E1FFDDE79847E8E7EA
:10416800019B00221979186805F03EFD0028E7DB5D
:104178007368A3620023E362236843F0800323602B
:10418800524B9C4245D0B4F1804F42D0A3F57C43BA
:104198009C423ED003F580639C423AD003F580638D
:1041A8009C4236D003F578439C4232D003F57053D5
:1041B8009C4235D1236823F440732360434B9C42CF
:1041C8004DD1002323633369202B0AD1B36823F030
:1041D8004002202A01D0402B03D1236843F0040376
:1041E80023606368326923F0700313436360374BBD
:1041F8009C4245D1636CF26823F0FF031343636468
:10420800636C43F400436364236843F00103236051
:1042180043E72368B26823F0700313432360C9E7B8
:104228002B4B9C42C6D003F580639C42C2D0A3F5B9
:1042380098339C42BED003F580639C42BAD003F504
:1042480080639C42B6D0234B9C42BCD003F580636C
:104258009C42B8D03369B3B16FF085051DE71E4B9A
:104268009C42AED0B4F1804FADD01C4B9C42AAD03A
:104278001B4B9C42A7D003F580639C42E3D1A2E785
:10428800154B9C42B6D0F368002BBDD0E4E76FF025
:10429800150502E7B8AD00089CAD0008A3C10008E9
:1042A800DDC10008BFB4000859C300082FB60008D4
:1042B800FCCE00082ECF0008DCB4000864AD00086E
:1042C80054AD000841CF000885D000080000014027
:1042D8000044014000100040000401400004004078
:1042E8000008004090A800082DE9F0410C4604F1B0
:1042F800FF3C19464368BDF818701D68BCF1030FF0
:1043080015D8B5F1804F06D07A48854203D0B2F56A
:10431800803F00F2EC807848042C50F82C6016BFDF
:104328007648002450F82C40F80503D51CB96FF0E6
:10433800150006E0344632B92B6A23EA04032B62DF
:104348000020BDE8F0819B68002B7ED102F1FF3888
:1043580007F00100402C4FEA400000F08D8000F289
:104368008280042C00F08A80102C00F08980012CB7
:1043780014BF06230023624F2A6A17F803E00227B6
:1043880007FA0EF300FA0EF022EA030303432B6246
:104398005C4B284653F82C309847C5F82C802B6A7C
:1043A80034EA0303CCD0402E77D06DD8042E76D0D3
:1043B800102E76D0012E14BF06230023524F5348E7
:1043C80017F803C010F803E005F11801732351F83A
:1043D8000C2003FA0EF322EA0303602202FA0EF21B
:1043E8001343402C41F80C3068D05ED8042C67D0B9
:1043F800102C67D0012C14BF06230023DFF810C14E
:104408006A681CF803C04FF4807303FA0CF322EABD
:1044180003036B602B6A402E44EA03042C625ED0CF
:1044280054D8042E5DD0102E5DD0012E14BF062363
:104438000023FA5CC05C8C580823834023438B50CC
:104448006B6943F001036B617AE7102B01D10139E5
:104458007CE723F04000202801D0402B47D14908B1
:104468004FEA520874E7B4F5807F0BD0B4F5806F3B
:1044780014BF062305237EE703237CE701237AE79D
:10448800022378E7042376E7B6F5807F0BD0B6F5EC
:10449800806F14BF0623052390E703238EE70123CB
:1044A8008CE73B468AE7042388E7B4F5807F0BD086
:1044B800B4F5806F14BF062305239FE703239DE708
:1044C80001239BE7022399E7042397E7B6F5807F4A
:1044D8000BD0B6F5806F14BF06230523A9E7032385
:1044E800A7E70123A5E70223A3E70423A1E76FF0C9
:1044F800850026E7000C0040C4B20008B8B20008E6
:1045080062DC0008A8B2000870DC000869DC00085A
:104518005BDC000830B50E29036911D11968114810
:104528000B130A25C1F30B0193FBF5F405FB1433B8
:1045380041434343146003EB11335360002030BD03
:104548000D290CD1B3F90430642093FBF0F100FB82
:104558001133116042F2107113FB01F3EDE76FF0B4
:104568008500ECE7A086010070B50C2404FB02145A
:1045780014F8045C45F0020504F8045C70B91348AB
:10458800134A144940F2913304F0C8FD124804F06C
:10459800C5FD0F4840F2913104F0B7FD84680F4D16
:1045A800AC4207D20E4DAC4204D3A468A446BDE881
:1045B80070406047064A0B49044840F2913304F0C2
:1045C800ADFD0949094804F0A9FDE2E7BFB40008B8
:1045D8009CD000082ECF0008DCB400084CAD0008C1
:1045E80034AD0008CCD0000802D200082FB600086D
:1045F80030B50E29056943688BB00BD04C2909D01A
:104608001B491C481C4A272304F088FD1A48272107
:1046180004F07BFD28228DF807200DF107021868A9
:10462800049201229B88059202AA0792052200247F
:10463800089207228DF818408DF82420022204A938
:10464800FFF792FFA04210DB9DF80A309DF8092081
:104658001B0443EA02239DF8082013432B60BDF88E
:104668000B30AB8020460BB030BD6FF00400FAE78A
:104678003DD20008BFB4000806D2000837B5456827
:10468800044601AA2868002105F09BFA0028C0F218
:104698008E80019B00221979186805F0A5FA002878
:1046A800C0F285804748484A8368934205F104016F
:1046B80007D2464A934204D31B6883B96FF0570068
:1046C80075E0434A43494448B02304F027FD434971
:1046D800434804F023FD3E48B02104F016FD9847F6
:1046E800002864DBE968EA69B1F1804F02D03D4BEC
:1046F80099425ED14FF0FF33B3FBF2F35343DB43F0
:10470800C3F1FF2303F57F03FE33CB62D5E9033200
:104718009A62EA686969936823F4804323F007037F
:104728000B4393606368D9688A6922F0030242F0F8
:1047380001028A61D968587E8A6922F0F00242EA49
:1047480000128A61D9688A6922F00C028A61D968E4
:10475800187E0A6A22F00A0343EA40030B62636880
:10476800D9688A6922F4407242F480728A61D968F1
:10477800587E8A6922F4704242EA00328A61D96816
:104788008A6922F440628A61D968187E0A6A22F02E
:10479800A00343EA40130B62EA68136A43F011036B
:1047A8001362EA68136843F001031360002003B042
:1047B80030BD4FF6FF73B3FBF2F002FB1033C3F5C5
:1047C8007F43A1E790A80008B8AD00089CAD000899
:1047D800A3C10008DDC10008BFB4000859C3000820
:1047E8002FB60008000C004037B5034604680D4694
:1047F800002959D04068196970B92E482E4A2F49A6
:104808004FF4897304F08AFC2D4804F087FC2A4889
:104818004FF4897104F079FC83682A4A934207D2DD
:10482800294A934204D3DB6873B96FF057003DE01F
:10483800214A26491F484FF4897304F06FFC244924
:10484800244804F06BFCE2E701AA984700282DDB16
:10485800E368019923F400431920E360AA00AB0F31
:10486800A1FB0001FCF7A8F96422B0FBF2F102FBFE
:1048780011031B013233B3FBF2F303EB01130F2BCC
:1048880012D99BB2A360A3680F2B11D81249134AFF
:10489800084840F23D1304F041FC114804F03EFC86
:1048A8000E4840F23D11B5E76FF0150003B030BD7A
:1048B8000020FBE7BFB40008A3C100082ECF000802
:1048C800DCB40008B8AD00089CAD0008DDC10008E4
:1048D80059C300082FB60008AFD2000880D20008DC
:1048E800D1D20008F8B50C46036941681E682379DF
:1048F800012B35D09A1E55425541AD026279022AE4
:104908009CBF384F37F812C0A27988BF4FF4005CBB
:10491800042A28D0003B18BF01231B03E279012A8F
:104928000A680CBF4FF440770027A642D1681DD112
:1049380021F4B05129430B43D360136923F4405346
:1049480043EA0C03136143681A68536923F44073FC
:104958003B43536131684068BDE8F840FFF744BF06
:104968004FF4C065CAE74FF48053D7E701F4C0613C
:104978008D421FBFD16821F4C0612943D1604268CC
:1049880011680A6902F4405294451FBF0A6922F46B
:10499800405242EA0C020A6142681168CA6802F48D
:1049A800805293421FBFCA6822F480521343CB60DF
:1049B80043681A68536903F440739F421FBF5369E1
:1049C80023F440733B43536121683368994206D00E
:1049D8004068FFF709FF08B923683360F8BD002075
:1049E800FCE700BF6CB40008F7B54468054660688A
:1049F800216960B94648474A4749B02304F08EFB0D
:104A0800464804F08BFB4348B02104F07EFB8368E2
:104A1800434A934207D2434A934204D31B686BB973
:104A28006FF057005EE03B4A3F493948B02304F035
:104A380075FB3E493E4804F071FBE4E798470028BF
:104A480050DB606A01AA002105F0BBF8002849DBA9
:104A5800019B00221979186805F0C6F8002841DB87
:104A68006E682B6934681F68E36823F40053E360B9
:104A7800B06805F08CFA002844D0D6E9020168B97C
:104A880023482C4A244940F26B1304F047FB23487F
:104A980004F044FB274840F26B11B6E78368264AC6
:104AA800934221D2254A93421ED3DB6843BB04F1CB
:104AB8000C0353E8003F43F00C0304F10C0141E8F8
:104AC8000032002AF3D139462846FFF70BFFE0B938
:104AD800337E1BB1636943F008036361E36843F401
:104AE8000053E36003B0F0BD124A1549084840F28C
:104AF8006B1304F013FB13490D4804F00FFBC9E7CF
:104B08009847D4E76FF01200ECE76FF01500E9E77B
:104B1800BFB40008A3C100082ECF0008DCB4000809
:104B2800B8AD00089CAD0008DDC1000859C30008F5
:104B38002FB60008FCCE000864AD000854AD00088C
:104B480041CF000885D00008F8B543681C680369A0
:104B58001E680B79012B0D461AD0991E4A424A410C
:104B6800920295F805C0AF79BCF1020F96BF3249A1
:104B78004FF4005131F81C10042F00D083B1A3F179
:104B8800030EBEF1010F06D86FF085031846F8BD75
:104B98004FF4C062E5E70BB1042FF5D04FF4805312
:104BA800B1F5805F3ED0B1F5405F3DD000290CBF24
:104BB800012103218C45E7D1002B37D0002A0CBFF7
:104BC800042303239F42DFD1EB79C3B1012BDBD14F
:104BD8001A4B9C4213D0A3F54C439C420FD003F5CB
:104BE80080639C420BD003F580639C4207D003F599
:104BF80080639C4203D003F544439C42C4D1E368DC
:104C080023F40053E3602946FFF76CFE03460028AF
:104C1800BAD1E26842F40052E26095E8030086E8FF
:104C28000300B3E70021C5E70221C3E7002A0CBF50
:104C380003230223C6E700BF6CB40008001001403C
:104C48004FF0E0230D4A9969126818699B69002999
:104C580008BF1146002B08BF134610F4803F0848D0
:104C680001D1994205D20168114401604FF0E02159
:104C7800096900681044C01A704700BF4407002043
:104C88003C070020094B102283F82320084B4FF4DF
:104C980016521A60074B002018604FF0E02342F2CA
:104CA8007F525A61072298611A61704700ED00E04F
:104CB800440700203C070020684620F007018D4685
:104CC800F1B502F0A9FA0446FFF7BAFF124A1348F1
:104CD800D2E9005103685B19114D41F10001C2E9A5
:104CE8000031D5E900614FF41652002707609B1B7D
:104CF800B3FBF2F002FB00F39B1941F10001C5E997
:104D08000031084B21461F6002F0E8F9FEF7C0F9B0
:104D1800BDE8F14085467047700200203C0700203E
:104D280068020020400700202DE9F04180460C462B
:104D380005F0B6F970B93B493B4A3C484FF4A073BB
:104D480004F0ECF93A4804F0E9F937484FF4A07157
:104D580004F0DBF9374E6CB1B8F1FF3F0AD14FF0E0
:104D6800E022136923F0010313614FF07F4333609E
:104D7800BDE8F081FFF764FF2F49304A35684FF0EE
:104D8800E0239C69D1E90037C31847F100070020E8
:104D9800B8F1FF3FC1E90037106025D02848D0E9B5
:104DA8000020B3EB020C67EB0007002F37DB254B25
:104DB8001B684FF4165E13EB08034FEAE87040F1E6
:104DC8000000A3FB0E320EFB0022B3EB0C0340F2F3
:104DD800014062EB0702834272F100001FDBB3F16E
:104DE800807F72F1000201DB6FF07F434FF0E02219
:104DF8003360013B9669536100239361124B4FF076
:104E080000725A60B442D1E900023ABF63199B1B91
:104E1800A31B1B1842F10002C1E90032A8E74FF4B6
:104E28008063E3E739D3000805D30008BFB400085E
:104E38004FD3000844070020700200203C070020E0
:104E4800680200204007002000ED00E010B505F0E2
:104E580027F970B90E490F4A0F484FF4F27304F05E
:104E68005DF90E4804F05AF90A484FF4F27104F05B
:104E78004CF90B4B1C680B4B1B68E41AFFF7E0FE60
:104E88004FF416532044B0FBF3F0074B186010BDE5
:104E980039D3000805D30008BFB400084FD3000871
:104EA80070020020680200204007002038B502F098
:104EB800B3F9054B05461C68FFF7C2FE04442846B3
:104EC80002F0D4F9204638BD7002002008B5204908
:104ED8008B6803F00C03082B07D00C2B20D01D483F
:104EE8001D4A042B18BF104608BD4A684B6849681C
:104EF80013F4800314BF17481748C1F3881118BF6B
:104F0800002302F03F02A1FB0001FBF755FE104B06
:104F18005B68C3F3014301335B00B0FBF3F0E3E7E5
:104F28004A684B68496813F4800314BF09480A4863
:104F3800C1F3881118BF002302F03F02A1FB000152
:104F4800FBF73AFE024B5B68C3F30273E5E700BF69
:104F58000038024000127A000024F400002800F013
:104F68008180424B1B6803F44043B3F5404F30D176
:104F780003F10F6303F58C53984207D83C4B9842D2
:104F880009D83C4B984208D9032300E00523012B9C
:104F980038BF012309E00423F9E7374B98421AD8B0
:104FA800364B98424FF00003F1D8304A126802F4A9
:104FB8004042B2F5004F28D102F10F6202F5A34238
:104FC80090420AD9002B08BF0523012B38BF0123C3
:104FD8001BE00023E9E70223E7E7254A904203D9CB
:104FE800002B08BF0423F0E7224A904203D9002B84
:104FF80008BF0323E9E7204A904203D9002BE4D1F4
:10500800022302E01D4A9042DFD8184A126802F4CF
:105018004042B2F5804F13D1164A904206D9002B70
:1050280008BF0323012B38BF012309E0124A90422D
:1050380003D9002BF6D1022302E0104A9042F1D89E
:105048000F490A6822F00F021A430A600A6802F040
:105058000F02934208D0086800F00F00C01A18BF6A
:105068000120704701207047002070470070004001
:10507800000E2707804A5D050087930380C3C90196
:10508800003C024038B5436905463BB90024EA684C
:10509800537843F001035370604238BD9847044683
:1050A8000028F3D000F1FF03FE2B0ED9094A0A4964
:1050B8000A48212304F032F829680948224604F0F6
:1050C8002DF80448212104F020F8EB6844421C70B4
:1050D800DDE700BF6CD300088FD30008BFB4000819
:1050E800A7D3000870B50446EFF31186102383F3A5
:1050F8001288BFF36F8F0E4B9D6804F05BFF042C82
:105108000CD10C490C4A0D48872304F007F80C48C9
:1051180004F004F80848872103F0F7FF86F31188A4
:10512800BFF36F8F2846BDE87040FDF7C1BF00BFD1
:1051380048070020EED30008CCD30008BFB400080D
:105148000BD4000838B50A4B53F82040013053F807
:105158002050A54200D838BD606830B1037EDB0717
:1051680001D4FFF78FFF0834F3E723689847FAE77D
:10517800A8B3000870B53B4B3B4C3C4D86B00122B0
:1051880003201A70FFF7DEFFAC4214D10420FFF7AA
:10519800D9FF374C374DAC4226462ED93649374AC7
:1051A8003748462303F0BAFF364803F0B7FF4621D5
:1051B800324803F0AAFF54F8043B002BE6D0984786
:1051C800E2E754F80C3C059354F8103C049354F867
:1051D800143C039354F8183C029354F81C3C019374
:1051E80054F8203C009354E90A2354E90C0100F0D8
:1051F8005DFC54F8303C5E65CDE7AE4204F1300406
:10520800DFD301F02DFC1A4CAC421FD91A491B4AB6
:105218001B486A2303F082FF1A4803F07FFF6A21C4
:10522800C6E7D4E90A23B3F1FF3F08BFB2F1FF3F55
:1052380005D052EA0301206803D100F0BBFC3034EA
:10524800E2E71149183001F0E7FDF8E7E9D301F08A
:1052580075FCFCF717FA0D4A938923F00103938133
:1052680006B070BD8B070020CCAD0008D0AD00089B
:1052780010AD000810AD000861D4000840D4000843
:10528800BFB400088ED40008416500083803002028
:1052980070B5154E154D1649C02386B003FB006640
:1052A80001220023CDE904230F22CDE90232019324
:1052B800182303FB0055044601EB40210D4B0095D4
:1052C8004FF4C072304600F0F1FB337C0A4AEE60BE
:1052D80023F0040333744FF4086304FB03331344CB
:1052E8002C746B6006B070BD78020020480700205F
:1052F8000015002011540008800C00207FB5002004
:10530800FFF720FF324B83F30888324C636943F47C
:1053180000736361F02384F822300023E377237657
:105328006376A37684F82030636A43F4E0236362EB
:10533800FDF740FDFDF7A6FE4FF0FF33A362E362E1
:10534800FEF71CF8FDF73CFF234800F027FC234B31
:10535800234A93420ED92349234A2448CE2303F0F3
:10536800DDFE234803F0DAFE1F48CE2103F0CDFE10
:105378001C33EEE7FCD3FDF7EFF90120FFF7E2FE5F
:105388000220FFF7DFFE01F063FB1A4B1A4C9C6109
:105398001A4B059300250123194900954FF48062A3
:1053A800CDE90353CDE90155164B204600F07EFBAD
:1053B800237C064623F004032046237400F0ACFE49
:1053C8002846FFF765FF0F4A31462046FDF72EFEB7
:1053D8000015002000ED00E0F803002090A8000868
:1053E800C0AA0008ADD4000840D40008BFB4000823
:1053F8008ED400084807002038030020C5D40008D0
:10540800001700207D51000810B50D4B9B6893F9DB
:105418000E30002B09DB1024EFF3118384F312887C
:10542800BFF36F8F03F039FFF6E706490648074ACE
:105438001C2303F073FE05481C2103F066FE00BF21
:1054480048070020EBD40008BFB40008CAD40008FD
:105458002DE9F341044617461E46EFF3058565B16D
:105468005449554A5548732303F058FE544803F0ED
:1054780055FE5148732103F048FEEFF311881023BD
:1054880083F31288BFF36F8F4E4801F089FC60B92F
:105498004D4A4E494948882303F040FE49494C4843
:1054A80003F03CFE88214848E5E7464801F09CFCAB
:1054B800484BE2689B6892B1A068984227D057EAA7
:1054C80006022CD13F4801F079FC90B188F311888D
:1054D800BFF36F8F6FF00F0002B0BDE8F08193F952
:1054E8000E10384821610132C4E9023201F066FC2D
:1054F80078B9354A384931484FF49B7303F00EFEAA
:105508003049364803F00AFE4FF49B71CBE7216916
:10551800E7E788F31188BFF36F8F0020DCE793F982
:105528000E1090F90E30994205DA9942A8BF194633
:1055380004F043FD0546CDE900762248224641465F
:1055480001F04AF80028E8D0EFF31186102383F31E
:105558001288BFF36F8F1B4801F022FC002897D0F8
:10556800184801F041FCA068C0B1236821699C4239
:105578000AD04BB193F90E309942A8BF19466FF083
:105588007F039942B8BF194604F017FD30B10D48A2
:10559800314604F06CFD6FF00A009DE7002DF6D14E
:1055A800084801F00BFC0028A3D086F31188BFF34C
:1055B8006F8FF0E735D5000813D50008BFB4000891
:1055C80047D500086C070020E7C3000814C400088A
:1055D80029C40008480700203FC4000856C4000832
:1055E800F8B50546EFF3058363B15549554A564862
:1055F800EA2303F093FD554803F090FDEA21514852
:1056080003F083FD8368002B00F09480504A926871
:10561800934240F09280C3684BB94E49494A4A4880
:105628004FF4817303F07AFD4FF48171E7E7012BA2
:1056380003D0013BC3600020F8BDEFF311871024AD
:1056480084F31288BFF36F8F434801F0A9FB60B958
:10565800424A43493C48882303F060FD3E4941489B
:1056680003F05CFD88213D48CAE73B4801F0BCFBDC
:105678002969A86804F0A1FCEFF3118384F3128868
:10568800BFF36F8F83F31188BFF36F8F5BB9364910
:10569800364A2D48FA2303F041FD354803F03EFD14
:1056A800FA213248ACE72C68A54215D10023C5E998
:1056B8000233294801F082FB002836D1274A2D49B8
:1056C80021484FF49B7303F029FD23492A4803F02E
:1056D80025FD4FF49B71C6E7002CE7D0A3683BB9C2
:1056E8002649224A1848E32303F018FDE321D8E7A6
:1056F800D4E9003213605A60237C002623F00203A9
:105708002374C4E90066A66004F1180001F066FC81
:10571800AC6094F90E302B612046A66700F0FCFCC3
:105728000D48394604F0A3FC85E787F31188BFF3D9
:105738006F8F80E76FF015007EE74FF0FF307BE753
:1057480035D5000813D50008BFB4000847D50008B0
:10575800480700206CD500086C070020E7C3000844
:1057680014C4000829C40008AED5000883D5000871
:10577800C6D500083FC4000856C40008C9D50008AB
:1057880008B583684BB90B490B480C4AE32303F06F
:10579800C5FC0A48E32103F0B8FCD0E900321360E5
:1057A8005A60027C0023C0E9003322F0020202742E
:1057B800836008BDC9D50008BFB4000883D50008B8
:1057C80070B50446EFF31186102585F31288BFF3F0
:1057D8006F8F2F4801F0E4FA60B92E4A2E492F48FE
:1057E800882303F09BFC2A492D4803F097FC882165
:1057F800284818E0264801F0F7FAEFF3118385F3FB
:105808001288BFF36F8F83F31188BFF36F8F63B96B
:105818002449254A2148FA2303F080FC234803F051
:105828007DFC2148FA2103F070FC2568AC4212D0B7
:105838008DB12846FFF7A4FF05F1180001F0CEFB53
:1058480000232846AB6700F067FC31461048BDE8E6
:10585800704004F00CBCD4E902329A4218BF0133FC
:105868000B48A36001F0AAFA68B90A4A10490B4824
:105878004FF49B7303F052FC05490E4803F04EFCAD
:105888004FF49B71B4E786F31188BFF36F8F70BD37
:1058980070070020E7C3000814C40008BFB400085C
:1058A80029C40008AED5000883D50008C6D500086D
:1058B8003FC4000856C40008F7B5044616461D46FE
:1058C800EFF305837BB152EA05030CD02D492E4A2C
:1058D8002E48882303F022FC2D4803F01FFC2A4899
:1058E800882103F012FCEFF31187102383F3128849
:1058F800BFF36F8F274801F053FA60B9264A27494A
:105908002248882303F00AFC2249254803F006FCB4
:1059180088212148E5E71F4801F066FAA368D3B15A
:10592800013B1C48A36001F049FA68B91A4A1D49AD
:1059380016484FF49B7303F0F1FB16491A4803F01D
:10594800EDFB4FF49B71E4E787F31188BFF36F8F8A
:10595800002003B0F0BD56EA05030BD10D4801F055
:105968002DFA0028E2D087F31188BFF36F8F6FF00C
:105978000F00EEE7CDE9006522463946054800F0FC
:105988002BFEE6E700D60008E0D50008BFB4000803
:10599800C6D5000870070020E7C3000814C4000833
:1059A80029C400083FC4000856C400082DE9F04186
:1059B8000546EFF31188102787F31288BFF36F8F1E
:1059C800304801F0EDF9064660B92F4A2F493048B2
:1059D800882303F0A3FB2B492E4803F09FFB882163
:1059E800294819E0274801F0FFF90023EFF3118255
:1059F80087F31288BFF36F8F82F31188BFF36F8F1D
:105A080062B92549254A2248FA2303F087FB24482E
:105A180003F084FB2148FA2103F077FB2C68A542A8
:105A28000FD074B12046FFF7ABFE04F1180001F067
:105A3800D5FA6FF00A03A367204600F06DFB3346E2
:105A4800D4E70022AA608BB90E4801F0B7F998B9DB
:105A58000D4A14490E484FF49B7303F05FFB094944
:105A6800114803F05BFB4FF49B71B9E741460548C9
:105A7800BDE8F04104F0FBBA88F31188BFF36F8FDB
:105A8800BDE8F08170070020E7C3000814C40008CF
:105A9800BFB4000829C40008AED5000883D50008A3
:105AA800C6D500083FC4000856C400082DE9F043D5
:105AB80085B004460F9D0F2D0E461F464BD1314B26
:105AC8009F424CD1073222F00702FF321099A18180
