:020000040800F2
:10000000801A0020012000088D5A0008ED1F00080A
:10001000ED1F0008ED1F0008ED1F000800000000A4
:100020000000000000000000000000003520000873
:10003000ED1F000800000000C5220008413500083F
:100040007923000879230008792300087923000820
:100050007923000879230008792300087923000810
:100060007923000879230008792300087923000800
:1000700079230008792300087923000879230008F0
:1000800079230008792300087923000879230008E0
:1000900079230008792300087923000879230008D0
:1000A00079230008792300087923000879230008C0
:1000B00079230008792300087923000879230008B0
:1000C00079230008792300087923000879230008A0
:1000D0007923000879230008792300087923000890
:1000E0007923000879230008792300087923000880
:1000F0007923000879230008792300087923000870
:10010000792300087923000879230008792300085F
:10011000792300087923000879230008792300084F
:10012000792300087923000879230008792300083F
:10013000792300087923000879230008792300082F
:10014000792300087923000879230008792300081F
:10015000792300087923000879230008792300080F
:0801600079230008792300084F
:1001680081F0004102E000BF83F0004330B54FEA60
:1001780041044FEA430594EA050F08BF90EA020FCD
:100188001FBF54EA000C55EA020C7FEA645C7FEA60
:10019800655C00F0E2804FEA5454D4EB5555B8BF83
:1001A8006D420CDD2C4480EA020281EA030382EAF4
:1001B800000083EA010180EA020281EA0303362D86
:1001C80088BF30BD11F0004F4FEA01314FF4801C59
:1001D8004CEA113102D0404261EB410113F0004F6B
:1001E8004FEA03334CEA133302D0524263EB430322
:1001F80094EA050F00F0A780A4F10104D5F1200EC0
:100208000DDB02FA0EFC22FA05F2801841F100011A
:1002180003FA0EF2801843FA05F359410EE0A5F1EE
:1002280020050EF1200E012A03FA0EFC28BF4CF01F
:10023800020C43FA05F3C01851EBE37101F00045D5
:1002480007D54FF0000EDCF1000C7EEB00006EEBE2
:100258000101B1F5801F1BD3B1F5001F0CD349086C
:100268005FEA30004FEA3C0C04F101044FEA4452C3
:1002780012F5800F80F09A80BCF1004F08BF5FEA4A
:10028800500C50F1000041EB045141EA050130BD2A
:100298005FEA4C0C404141EB0101013C28BFB1F53C
:1002A800801FE9D291F0000F04BF01460020B1FA87
:1002B80081F308BF2033A3F10B03B3F120020CDA5A
:1002C8000C3208DD02F1140CC2F10C0201FA0CF038
:1002D80021FA02F10CE002F11402D8BFC2F1200C9D
:1002E80001FA02F120FA0CFCDCBF41EA0C01904053
:1002F800E41AA2BF01EB0451294330BD6FEA04049C
:100308001F3C1CDA0C340EDC04F11404C4F1200286
:1003180020FA04F001FA02F340EA030021FA04F398
:1003280045EA030130BDC4F10C04C4F1200220FAEF
:1003380002F001FA04F340EA0300294630BD21FA2D
:1003480004F0294630BD94F0000F83F4801306BFF3
:1003580081F480110134013D4EE77FEA645C18BFE7
:100368007FEA655C29D094EA050F08BF90EA020F7E
:1003780005D054EA000C04BF1946104630BD91EA76
:10038800030F1EBF0021002030BD5FEA545C05D179
:100398004000494128BF41F0004130BD14F58004B8
:1003A8003CBF01F5801130BD01F0004545F0FE412C
:1003B80041F470014FF0000030BD7FEA645C1ABF61
:1003C800194610467FEA655C1CBF0B46024650EA98
:1003D800013406BF52EA033591EA030F41F40021C4
:1003E80030BD00BF90F0000F04BF0021704730B54A
:1003F8004FF4806404F132044FF000054FF000011F
:1004080050E700BF90F0000F04BF0021704730B5DF
:100418004FF4806404F1320410F0004548BF4042B4
:100428004FF000013EE700BF42004FEAE2014FEA09
:1004380031014FEA02701FBF12F07F4393F07F4FE4
:1004480081F06051704732F07F4208BF704793F0E7
:100458007F4F04BF41F40021704730B54FF46074FA
:1004680001F0004521F000411CE700BF50EA0102FD
:1004780008BF704730B54FF000050AE050EA0102A6
:1004880008BF704730B511F0004502D5404261EB16
:1004980041014FF4806404F132045FEA915C3FF457
:1004A800D8AE4FF003025FEADC0C18BF03325FEAF4
:1004B800DC0C18BF033202EBDC02C2F1200300FAA5
:1004C80003FC20FA02F001FA03FE40EA0E0021FACA
:1004D80002F11444BDE600BF70B54FF0FF0C4CF4B8
:1004E800E06C1CEA11541DBF1CEA135594EA0C0F6A
:1004F80095EA0C0F00F0DEF82C4481EA030621EAA5
:100508004C5123EA4C5350EA013518BF52EA0335DF
:1005180041F4801143F4801338D0A0FB02CE4FF091
:100528000005E1FB02E506F00042E0FB03E54FF0C1
:100538000006E1FB03569CF0000F18BF4EF0010EB9
:10054800A4F1FF04B6F5007F64F5407404D25FEAB5
:100558004E0E6D4146EB060642EAC62141EA555168
:100568004FEAC52040EA5E504FEACE2EB4F1FD0CAA
:1005780088BFBCF5E06F1ED8BEF1004F08BF5FEA28
:10058800500E50F1000041EB045170BD06F00046DA
:1005980046EA010140EA020081EA0301B4EB5C0487
:1005A800C2BFD4EB0C0541EA045170BD41F480117F
:1005B8004FF0000E013C00F3AB8014F1360FDEBFA4
:1005C800002001F0004170BDC4F10004203C35DA80
:1005D8000C341BDC04F11404C4F1200500FA05F303
:1005E80020FA04F001FA05F240EA020001F00042A4
:1005F80021F0004110EBD37021FA04F642EB06011A
:100608005EEA430E08BF20EAD37070BDC4F10C0443
:10061800C4F1200500FA04F320FA05F001FA04F207
:1006280040EA020001F0004110EBD37041F10001F3
:100638005EEA430E08BF20EAD37070BDC4F12005FE
:1006480000FA05F24EEA020E20FA04F301FA05F266
:1006580043EA020321FA04F001F0004121FA04F20E
:1006680020EA020000EBD3705EEA430E08BF20EADE
:10067800D37070BD94F0000F0FD101F00046400018
:1006880041EB010111F4801F08BF013CF7D041EA9A
:10069800060195F0000F18BF704703F0004652009E
:1006A80043EB030313F4801F08BF013DF7D043EA6F
:1006B8000603704794EA0C0F0CEA135518BF95EA25
:1006C8000C0F0CD050EA410618BF52EA4306D1D1AC
:1006D80081EA030101F000414FF0000070BD50EACB
:1006E800410606BF1046194652EA430619D094EA55
:1006F8000C0F02D150EA013613D195EA0C0F05D13F
:1007080052EA03361CBF104619460AD181EA030192
:1007180001F0004141F0FE4141F470014FF000004A
:1007280070BD41F0FE4141F4780170BD70B54FF0E5
:10073800FF0C4CF4E06C1CEA11541DBF1CEA135565
:1007480094EA0C0F95EA0C0F00F0A7F8A4EB050447
:1007580081EA030E52EA03354FEA013100F088803E
:100768004FEA03334FF0805545EA131343EA126307
:100778004FEA022245EA111545EA10654FEA0026BC
:100788000EF000419D4208BF964244F1FD0404F575
:10079800407402D25B084FEA3202B61A65EB0305D1
:1007A8005B084FEA32024FF480104FF4002CB6EB8E
:1007B800020E75EB030E22BFB61A754640EA0C000E
:1007C8005B084FEA3202B6EB020E75EB030E22BF4E
:1007D800B61A754640EA5C005B084FEA3202B6EB8F
:1007E800020E75EB030E22BFB61A754640EA9C004E
:1007F8005B084FEA3202B6EB020E75EB030E22BF1E
:10080800B61A754640EADC0055EA060E18D04FEADB
:10081800051545EA16754FEA06164FEAC30343EA7B
:1008280052734FEAC2025FEA1C1CC0D111F4801F48
:100838000BD141EA00014FF000004FF0004CB6E741
:1008480011F4801F04BF01430020B4F1FD0C88BFE0
:10085800BCF5E06F3FF6AFAEB5EB030C04BFB6EBEB
:10086800020C5FEA500C50F1000041EB045170BDDE
:100878000EF0004E4EEA113114EB5C04C2BFD4EB0B
:100888000C0541EA045170BD41F480114FF0000E8F
:10089800013C90E645EA060E8DE60CEA135594EA0B
:1008A8000C0F08BF95EA0C0F3FF43BAF94EA0C0F0E
:1008B8000AD150EA01347FF434AF95EA0C0F7FF483
:1008C80025AF104619462CE795EA0C0F06D152EAD7
:1008D80003353FF4FDAE1046194622E750EA4106BB
:1008E80018BF52EA43067FF4C5AE50EA41047FF4CC
:1008F8000DAF52EA43057FF4EBAE12E74FEA41022F
:10090800B2F1E04324BFB3F5001CDCF1FE5C0DD965
:1009180001F0004C4FEAC0024CEA5070B2F1004FAF
:1009280040EB830008BF20F00100704711F0804FB2
:1009380021D113F13872BCBF01F00040704741F477
:1009480080114FEA5252C2F11802C2F1200C10FA7B
:100958000CF320FA02F018BF40F001004FEAC1235F
:100968004FEAD32303FA0CFC40EA0C0023FA02F303
:100978004FEA4303CCE77FEA625307D150EA0133D9
:100988001EBF4FF0FE4040F44000704701F00040A9
:1009980040F0FE4040F40000704700BF80F0004087
:1009A80002E000BF81F0004142001FBF5FEA41033F
:1009B80092EA030F7FEA226C7FEA236C6AD04FEA3F
:1009C8001262D2EB1363C1BFD21841404840414084
:1009D800B8BF5B42192B88BF704710F0004F40F436
:1009E800000020F07F4018BF404211F0004F41F452
:1009F800000121F07F4118BF494292EA030F3FD01E
:100A0800A2F1010241FA03FC10EB0C00C3F1200330
:100A180001FA03F100F0004302D5494260EB4000BF
:100A2800B0F5000F13D3B0F1807F06D340084FEA2A
:100A3800310102F10102FE2A51D2B1F1004F40EB1F
:100A4800C25008BF20F0010040EA03007047490087
:100A580040EB0000013A28BFB0F5000FEDD2B0FA24
:100A680080FCACF1080CB2EB0C0200FA0CF0AABF47
:100A780000EBC25052421843BCBFD04018437047E5
:100A880092F0000F81F4000106BF80F400000132EB
:100A9800013BB5E74FEA41037FEA226C18BF7FEAC2
:100AA800236C21D092EA030F04D092F0000F08BF04
:100AB8000846704790EA010F1CBF0020704712F0EB
:100AC8007F4F04D1400028BF40F00040704712F12A
:100AD80000723CBF00F50000704700F0004343F08F
:100AE800FE4040F4000070477FEA226216BF0846C5
:100AF8007FEA23630146420206BF5FEA412390EA88
:100B0800010F40F4800070474FF0000304E000BF7D
:100B180010F0004348BF40425FEA000C08BF70472E
:100B280043F0964301464FF000001CE050EA0102F2
:100B380008BF70474FF000030AE000BF50EA010207
:100B480008BF704711F0004302D5404261EB4101F4
:100B58005FEA010C02BF84460146002043F0B64319
:100B680008BFA3F18053A3F50003BCFA8CF2083A3E
:100B7800A3EBC25310DB01FA02FC634400FA02FC47
:100B8800C2F12002BCF1004F20FA02F243EB02004E
:100B980008BF20F00100704702F1200201FA02FCB0
:100BA800C2F1200250EA4C0021FA02F243EB0200A3
:100BB80008BF20EADC70704753B94AB9002908BF5A
:100BC80000281CBF4FF0FF314FF0FF3000F00CB889
:100BD800ADF1080C6DE904CE00F012F8DDF804E080
:100BE800DDE9022304B07047704700BF10F8012BFD
:100BF80011F8013B012A28BF9A42F7D0D01A704752
:100C08002DE9F0478C468E46089E1546044619463F
:100C1800002B40F0D080724547D9B2FA82F74FB125
:100C2800C7F120030EFA07FC20FA03F3BD4043EA9C
:100C38000C0CBC404FEA154EA8B2BCFBFEF8230CC6
:100C48000EFB18CC08FB00F943EA0C43994528D958
:100C5800EB1808F1FF3204D2994502D9A8F1020233
:100C68002B44A3EB0903A4B2B3FBFEFC0EFB1C331D
:100C78000CFB00F044EA0344A04214D92C190CF1EF
:100C8800FF3304D2A04202D9ACF102032C44241A47
:100C980043EA02401EB1FC40002334607360BDE8A3
:100CA800F0874246DDE76346F1E7002A79D0B2FAD9
:100CB80082F3002B3FD01946C1F1200302FA01F557
:100CC8002EFA03F20EFA01FE20FA03F343EA0E03AA
:100CD8004FEA154E00FA01F4B2FBFEFCAFB20EFB70
:100CE8001C201A0C0CFB07F842EA004290455AD91E
:100CF800AA180CF1FF3004D2904502D9ACF10200D9
:100D08002A44A2EB08029BB2B2FBFEFC0EFB1C229B
:100D18000CFB07F743EA02439F4246D9EB180CF154
:100D2800FF3204D29F4202D9ACF102022B44DB1BF2
:100D380042EA004202E0AEEB020301224FEA154EFE
:100D4800AFB2B3FBFEFC200C0EFB1C330CFB07F808
:100D580040EA034398452AD9EB180CF1FF3004D236
:100D6800984502D9ACF102002B44A3EB0803A4B2C6
:100D7800B3FBFEFC0EFB1C330CFB07F744EA0344F1
:100D8800A74216D92C190CF1FF3304D2A74202D975
:100D9800ACF102032C44E41B43EA00400F46114621
:100DA80078E71F2188E76046ABE76246BFE7604601
:100DB800DBE76346EFE7734506D916B90021084615
:100DC8006DE7C6E9000EF9E7B3FA83F787B973450B
:100DD80001D3824207D8841A6EEB030301209C4694
:100DE8001EB900215BE73846FAE7C6E9004CF8E788
:100DF800C7F1200CBB4022FA0CF51D4320FA0CF178
:100E08002EFA0CF30EFA07FE41EA0E014FEA1549D5
:100E180000FA07F4B3FBF9F81FFA85FE09FB18304E
:100E28000B0C08FB0EFA43EA00439A4502FA07F254
:100E380040D9EB1808F1FF3004D29A4502D9A8F13D
:100E480002002B44A3EB0A0389B2B3FBF9F809FBB0
:100E5800183308FB0EFE41EA03418E452CD9691868
:100E680008F1FF3304D28E4502D9A8F102032944C0
:100E780043EA0040A0FB0298A1EB0E014145CE4693
:100E8800434602D306D14C4504D2B9EB020E68EBB7
:100E980005030138002EA4D0B4EB0E0261EB030168
:100EA80001FA0CFC22FA07F34CEA0303F940C6E9FD
:100EB800003196E74046C5E74346D9E70000000001
:100EC80070B5194C206804F0ADFC18B3206883682D
:100ED8004C21DB6898472068144E836832461B69AA
:100EE8000E2198477068FFF78DFA0DA3D3E9002308
:100EF800FFF71CFC044630680D46FFF783FA0246EC
:100F08000B4620462946FFF731F9FFF7F7FC00EEBC
:100F1800100A70BD9FED060AFBE700BFAFF3008023
:100F28000000000080842E413C000020C8040020FE
:100F380000000000000000002DE9F04F044687B0D3
:100F4800234FBB68029304AA5B680121384698477F
:100F5800002835DBDDE9045A4FF4FA635C43A4FB4F
:100F680005B304FB0A3303930399DFF8688016A3DB
:100F7800D3E900235846FFF71FFE4FF0FF39039BC4
:100F8800D94578EB030306461AD36408A4FB05B5D4
:100F980004FB0A550CA3D3E9002329465846FFF75A
:100FA8000BFED94578EB0505034609D3864207D3DE
:100FB80000220092029A0121146838463246A0475E
:100FC80007B0BDE8F08F00BF00CA9A3B00000000E0
:100FD80074710008FFC99A3B70B5084C084D094E5A
:100FE80023782BB12B781BB9306808B104F005FCC5
:100FF8000021642005F071FDF2E700BF41070020E1
:1010080040070020900400202DE9F0418EB00DF13A
:101018002C0800248E498F488F4E0B94CDE9094443
:10102800C8F80440A8F8084004F0B1FB8B49894887
:1010380004F0ADFB00F0D8FB894804F078FCB768F1
:1010480025463B6873B10DF123013046984748B9EE
:101058009DF823300D2B0CD00A2B0AD0013508F847
:101068000430EDB26420002105F037FD092D2C462F
:10107800E7D104F138030DEB03040023794904F8A0
:101088000C3C4046FFF7B2FD774D002875D1774BF1
:1010980077482B6004F04BFC764804F048FC05F0D8
:1010A80050FD0A220023FFF787FD734BC3E90001B7
:1010B80000220023CDE9062300240523CDE90334CB
:1010C8006E496F4B6F4800944FF48062CDE901443C
:1010D80002F02EFE6C486D4F04F029FCB3681B68C3
:1010E800002B45D05C480DF12301984700283FD1DB
:1010F8009DF82310664804F01AFC9DF823300D2B48
:1011080002D00A2B40F0988004F138030DEB030459
:101118006048002304F8143C04F009FC5E4909A85F
:10112800FFF764FD80BB3C78B4B92B681C77D3F813
:10113800048005F006FD00230A22FFF73DFDC8E9FB
:101148000001564BBFF35B8F53E8002F43E8004183
:101158000029F9D1BFF35B8F514B524801221A7015
:1011680000233B7004F0E3FB4F4804F0E0FB00244D
:101178000021642005F0B1FCB0E74C4B4C482B60D3
:1011880004F0D5FB4B4888E74B4909A8FFF72EFD2B
:1011980030B9434B3870187000F0A2FB4748E1E7BC
:1011A800474909A8FFF722FD28B901233B7000F041
:1011B80097FB4448D6E7444909A8FFF717FD48BB01
:1011C800374B387018702B68187700F089FB2B683C
:1011D800264A934207D100200021DA6A9A63C3E9BC
:1011E80012011A6CDA635C6805F0ABFC0A22002372
:1011F800FFF7E2FCC4E90001284BBFF35B8F002234
:1012080053E8001F43E800200028F9D1BFF35B8FA3
:101218002E48A7E72E4909A8FFF7E8FC50B9286827
:10122800224B1249984218BF194600F061FA28600B
:10123800284897E7284895E7062C99D804F13801FB
:10124800621C0DEB010404F8143CD4B290E700BF13
:101258002C00002098040020CC70000828000020F2
:10126800127B00082F7B000890040020B8010020A2
:10127800367B0008437B0008000000208007002020
:10128800E10F0008C8000020BA7B000840070020D2
:10129800F57B0008FC810008F87B0008C4040020E6
:1012A80041070020FE7B00082C7B000888010020F5
:1012B800947B0008A37B00080A7C00080F7C0008C8
:1012C8001B7C0008217C00082C7C0008327C00086C
:1012D8003C7C0008417C0008537C00082DE9F04361
:1012E8001D4BDFF898C018681C4B1D4FD3F80080C1
:1012F8001C4B1D4ED3F800E01C4BDFF88490D862DD
:101308000022002100240025986319481A615A61B7
:101318009A61C3E90845C3F804C09F60DE60197785
:101328009962C3F80090C3E91245C3F83080C3F846
:1013380034E0D86318640F4B1A615A619A610E4AF7
:10134800DE60C3E901C7C3E90845197799621A60E5
:10135800D862BDE8F08300BF3800002030000020CC
:10136800940400203400002098040020B8010020D4
:101378000000C842880100204077000800000020D3
:101388004C77000810B50446FFF79AFDDFED057AA3
:1013980084ED000AB4EEE70AF1EE10FA94BF0120DA
:1013A800002010BDB81EC942F0B52DED028B0446D1
:1013B80083B0B0EE408A05F0C4FB0A220023FFF791
:1013C800FBFBD4E90032C01A61EB0201FFF7B6FB60
:1013D8009FED547A06EE900AC6EE877AC4ED057A38
:1013E80067EE887AC4ED067A4F4BBFF35B8F1B68B4
:1013F800BFF35B8F07EE903ADFED4C8A94ED027AEB
:10140800F8EEE77AC4ED047A67EEA87A67EE877A91
:1014180094ED067AC4ED087ADFED457AB4EEE77A02
:10142800F1EE10FA04D5012003B0BDEC028BF0BD3B
:1014380005F087FB0A220023FFF7BEFBD4E9003240
:10144800C01A41F2883361EB0201984271F1000140
:10145800E9DB237BD4ED066A83B9D4ED047A9FEDEA
:10146800357AF4EEC77AF1EE10FA07DD67EEA87A5E
:10147800012386EEA77A237384ED027AD4ED087AE5
:1014880076EEE77AF0EEE77A87EEA67ADFED2A7A4B
:1014980067EE277AC4ED077A05F053FB0A2200238A
:1014A800FFF78AFB254D0E46D5E9001307467A1A41
:1014B80066EB0303B2F57A6F73F1000326DBD4ED14
:1014C800077A94ED087A94ED046ADFED1D6A1D48E9
:1014D800FDEEE77A27EE267ACDED017AD4ED067A8D
:1014E80067EEA67AFDEEE77ACDED007AFDEEC77AD3
:1014F80017EE903AFDEEC67A17EE902AFDEEC87AFE
:1015080017EE901A04F013FAC5E9007694ED077AFD
:10151800DFED0D7AB4EEE77AF1EE10FA94BF012010
:10152800002081E700BA5B4AC40400200EF8FC3AA8
:1015380017B7D138000048420000C842080200200E
:1015480000007A445F7C0008EC51A04038B504469E
:1015580004F04BF9D4E912321A4DC31A61EB0202B6
:101568009D424FF00003934112DAD4ED0E7A94EDC8
:101578000C7A37EE277AD4ED0D7AB4EEE77AF1EEED
:1015880010FAC4E91201D8BFF0EE477AC4ED0E7A1A
:10159800D4ED0F7AD4ED0E6A9FED0B7AE6EEC77A9A
:1015A800F5EEC07AF1EE10FAC4ED0F7A07D8074BC2
:1015B80000221A7000F094F9054804F0B8F994ED87
:1015C8000E0A38BD8F5F0100DC693A3641070020FA
:1015D800957C000810B52DED028B037F0446B0EE14
:1015E800408A2BB904F001F9C4E9080101232377E3
:1015F800DFED1E7AB4EEE78AF1EE10FA32D49FEDF1
:101608001C7AC8EE077A9FED1B7AC4ED047A67EE60
:10161800877AC4ED057A04F0E8F8D4E90832C01AEC
:1016280061EB0201FFF78AFA9FED137A06EE900A42
:10163800C6EE877A67EE887AC4ED067A00F056F926
:1016480094ED057ADFED0D6AC6EE877AFCEEE77A4F
:10165800C4ED0A7ABDEC028B17EE900ABDE8104083
:10166800FFF76ABCBDEC028B10BD00BF6F12833A56
:10167800000061450000C84400BA5B4A0024744970
:10168800F8B50446D0ED050A4068FFF78DFEB8B9F5
:10169800144E04F0AAF8D6E90023821A61EB03037A
:1016A8000F4640F6C4118A4273F10003054604DB75
:1016B8000D4804F03CF9C6E90057E06804F07FF8EB
:1016C800A068FFF75FFE38B9084804F030F9E06811
:1016D800BDE8F84004F073B8E068BDE8F84004F0ED
:1016E8005EB800BF10020020AC7C0008B97C00087E
:1016F800814270B50C4619D000F0F2F863684FF0DB
:101708007E529A60636800251D732577666804F029
:101718006CF8C6E90001064BBFF35B8F53E8002F56
:1017280043E800510029F9D1BFF35B8F204670BD13
:10173800C404002038B505F004FA0A220023FFF794
:101748003BFA0C4BD3E90052441B61EB0202052C17
:1017580072F100020DDBBFF35B8F074A52E8005FAE
:10176800013542E80054002CF8D1BFF35B8FC3E980
:10177800000138BD18020020C404002001480021DF
:1017880004F052B8987700080148002104F04CB8DA
:10179800907700080148012104F046B890770008C6
:1017A8000148012104F040B898770008F0B40346D6
:1017B8000A461979DB88006813430A4A066987686C
:1017C80034689A4308BF83F4402301258D4023F4ED
:1017D8008012DB074CBF2C43AC4334603B68F0BC41
:1017E800184700BF0100100070B5314C204604F0C6
:1017F80019F800285BD0204604F014F8002856D0C9
:10180800204604F00FF8002851D0204604F00AF8CA
:1018180000284CD0204604F005F8002847D0254879
:1018280004F000F8002842D0234803F0FBFF00280A
:101838003DD022484FF4B011FFF7B8FF20484FF4CD
:10184800B011FFF7B3FF1F491F48FFF7AFFF1F484D
:101858004FF4B011FFF7AAFF1D484FF4B011FFF77E
:10186800A5FF18491B48FFF7A1FFA5682369AE69C2
:1018780066B11B6813F0020F14BF4FF000734FF0EE
:1018880080634FF0A07201212046B047124A134BE3
:10189800536002239360EB691BB10F49044801228E
:1018A8009847BDE870400648012103F0BDBF70BDF0
:1018B800947000085C700008747100089077000844
:1018C800887700081000010080770008707700080A
:1018D8009877000878770008D00400203D170008A2
:1018E8000148002103F0A0BF7077000801480121DA
:1018F80003F09ABF7077000808B5054804F017F898
:10190800044804F0FCFF044804F011F8002008BD66
:10191800C97C000840420F00057D0008014B1B6888
:10192800184700BF40000020014B1860704700BFF7
:101938004000002030B5044685B00D461022002135
:10194800684605F00EF902238DF802302A46044B4A
:1019580001932146684602F001FF05B030BD00BF83
:1019680025190008034A536823F002035360002036
:10197800704700BF002004E038B545680F4C20468A
:1019880004F0E3FF98B1A3681B689BB12946204681
:10199800984700280ADB00F037F8094B5A6842F4E8
:1019A80000725A605A689205FCD5002038BD6FF065
:1019B8001200FBE76FF05700F8E700BF986F0008C8
:1019C8000070004008B54168054883681B680C3101
:1019D8001BB1984700EAE07008BD6FF05700F9E7BF
:1019E800986F0008072810B502D90024204610BDBA
:1019F800044B53F82040204604F0A7FF0028F5D1F7
:101A0800F3E700BF48780008EFF31180102383F351
:101A18001288BFF36F8F094B1A683AB9084A1168E0
:101A280041F4807111601168C905FCD51A6801324A
:101A38001A6080F31188BFF36F8F70475C05002030
:101A480000700040084B1A6842F480721A601A68E5
:101A580042F400721A601A6842F480621A60034BFA
:101A6800034A1A60704700BF003C0240780000201B
:101A78000024F400014B03600020704768780008D8
:101A880080B505460E461746984602F0E3FB034626
:101A980000F080FCDFF81890044649F80030424610
:101AA80030463946A84754F8090000F0F1FB00BF5A
:101AB8000800000008B50348034A0021121A03F081
:101AC800D9FF08BDC8000020480700200748084A79
:101AD800084908B5121A03F0CFFF0748074A084912
:101AE800BDE80840121A03F0C7BF00BF000000207D
:101AF800C40000202483000800000020000000200B
:101B080024830008F0B5074687B00C4600292ED07C
:101B1800D1E901231D48096803F009FFD4E904232A
:101B2800E1681B4803F003FFE1691A4803F0FFFE70
:101B380026460025F36A0493EB1C0393B36A0293C9
:101B4800AB1C0193736A0093326A13486B1C2946D5
:101B5800043503F0ECFE102D06F11006EAD1216ED3
:101B68000E4803F0E4FEA1690D4803F0E0FE012FE2
:101B780005D1EFF305810B48103903F0D8FE214653
:101B8800384607B0BDE8F04001F088BED67D0008B1
:101B9800067E0008367E0008467E00088A7E000819
:101BA8009A7E0008C97E000830BFFFF7FDBF00BF5E
:101BB8002DE9F0410B4EDFF8348006EB0807CC1B0B
:101BC800054632460849204604F0BDFFA0194246A2
:101BD8000021083C04F0C5FF2C6707F10800BDE8A8
:101BE800F08100BF00000000A0740008040000009D
:101BF8002DE9F843324D804632488946174603F0AE
:101C080096FEAB6ADE0622D52F4803F090FE11241B
:101C1800AB6A1D0703D52D4803F089FE1224284D11
:101C2800AB6A980715D52A4803F081FE6E6BAB6A3C
:101C3800190642D52748314603F079FEB9F1000F5D
:101C480003D0AB6A23F08003AB62132403E01024B3
:101C5800DEE76FF015061A4DAB6ADA0703D51E48A2
:101C680003F065FE1424AB6A9B0603D51B4803F0FA
:101C78005EFE1524124B9A6AD50602D49A6A90071A
:101C88000AD55B68190507D54146304600F084FA45
:101C980010B180F309880224094B9A6A920642BF60
:101CA8005A6A22F400525A629A6A42F0FF029A6211
:101CB80000233B702046BDE8F8836FF01506C4E7A3
:101CC80000ED00E0DD7E0008F47E0008287F0008B3
:101CD8003C7F0008557F00086C7F00088C7F000857
:101CE80010B51D4C1D4803F022FEA36A990130D59A
:101CF8001B4803F01CFE1E20A36ADA0103D519480D
:101D080003F015FE1F20144CA36A1B0303D51648C5
:101D180003F00DFE2120A36A590303D5134803F0ED
:101D280006FE22200C4CA36A9A0303D5104803F040
:101D3800FEFD2320A36ADB0303D50E4803F0F7FD5D
:101D48002420054A936A6FEA03436FEA13439362B8
:101D580010BD1D20D0E700BF00ED00E0BC7F0008EB
:101D6800D57F0008E97F0008048000082380000868
:101D7800498000086480000870B5244C0646244851
:101D88000D4603F0D4FDA36AD90435D5214803F0E4
:101D9800CEFD1720A36A1A0503D51F4803F0C7FD17
:101DA80018201A4CA36A9B050FD51C4803F0BFFDE9
:101DB800A16BA36A180407D5194803F0B8FD1EB132
:101DC800A36A23F40043A3621920104CA36A59059F
:101DD80003D5144803F0ABFD1A20A36ADA050DD524
:101DE800114803F0A4FD1B20084A936A43F47F437B
:101DF800936200232B7070BD1620CBE7A36A9B0467
:101E0800F2D50A4803F093FD1C20EDE700ED00E051
:101E180090800008A7800008287F0008B980000883
:101E2800D3800008E9800008058100088C7F00083D
:101E38002DE9F0415A4B5F689CB00546C7F308048A
:101E4800002686F31188BFF36F8F02F07F43B3F14A
:101E58007F4F06D102F00C03082B13D1514803F031
:101E680066FD002635464FF00008E31E8DF8078012
:101E7800092B00F28680DFE803F00A7A7E768484F4
:101E88008484848210074CBF0D460126EBE7464840
:101E9800434C03F04CFD8DF80780E36A9A0704D59C
:101EA800424803F044FD00242AE0E36A002B01DAEB
:101EB8003F48F6E7E36A5B00F5D53E4803F037FD97
:101EC8006369AA6943F480736361BFF34F8FBFF3FB
:101ED8006F8F32F8023C626922F480726261BFF34C
:101EE8004F8FBFF36F8F03F47F42B2F55F4F21D15D
:101EF800DBB2022B1ED129682F4803F018FD2C688D
:101F08009DF807309BB96822294602A804F01BFEF9
:101F1800099B002E41D0C3F3080222B96FEA53236C
:101F28006FEA4323099302A92046FFF7EBFD1CB093
:101F3800BDE8F0811A4B9A6AD2B232B10DF10702AC
:101F480001212846FFF754FE0FE09A6A12F47F4FEA
:101F580005D00DF107010120FFF70EFF05E09B6A90
:101F6800B3F5803F9FD3FFF7BBFE0446C8E70DF1EA
:101F780007020021E5E70DF107010020ECE70F4813
:101F88008FE70F4B0F49104817F4F87FA4F11002A0
:101F980008BF194603F0CBFC85E76FF30803C1E7D8
:101FA80000ED00E04C81000878810008908100086D
:101FB800B2810008C1810008E1810008FE810008A3
:101FC8001E8100083381000823820008044B5A69E7
:101FD80042F010025A615A6922F008025A617047A9
:101FE80000ED00E0EFF30880EFF3098101B57246D8
:101FF800FFF71EFF01BD00BF0A4880F308881020C4
:1020080080F3118808484FF40861401880F3098864
:10201800EFF314800221084380F31488BFF36F8F15
:1020280000F04AF8801A0020000C00201EF0040F6F
:102038000CBFEFF30880EFF30980816911F8021CE7
:102048000229FFD001B5724603F018FD01BD00BF9B
:1020580040B2002807DB044A4109012300F01F00B1
:10206800834042F82130704700E100E040B2002888
:10207800A8BF00F1604001F10101B8BF064B4FEA6B
:102088000111ACBF00F5614000F00F00C9B2B4BF48
:10209800195480F80013704714ED00E0044B054A0A
:1020A80023F07F039360BFF34F8FBFF36F8F7047A9
:1020B8000000000800ED00E008B5FFF7EFFF104B47
:1020C800D3F8882022F47002C3F88820D3F8882037
:1020D80042F4A002C3F888204FF04042C3F83422EB
:1020E800BFF34F8FBFF36F8F0023E1EE103AFFF776
:1020F800E1FCFFF7EBFC00F02FF901F0A1FC00BFB9
:1021080000ED00E04FF47D41C0F8BC1042F8203CDF
:10211800009B42F81C3C0A49019B42F8183C029B70
:1021280042F8143C21F001014FF0807342F8043C5E
:1021380042F8081C0023203A02654367704700BF35
:10214800891A0008838913F0020F124B03D190F803
:10215800BD20D20611D45A6B42F080425A63D0F89F
:10216800BC3019075CBF43F00803C0F8BC30838952
:1021780043F002038381802070475A6B22F080422B
:102188005A63D0F8BC301A0744BF23F00803C0F8DC
:10219800BC30F0E700EF00E0094A0346906870B1F0
:1021A80013F1160F006E05D0A0F18002934205D3FB
:1021B800834203D2814228BF002070470020704725
:1021C80010070020104B9B6883421AD1EFF305805B
:1021D800B8B9EFF31181102282F31288BFF36F8F21
:1021E8009A8922F002029A81EFF3148323F0040300
:1021F80083F31488BFF36F8F81F31188BFF36F8F58
:1022080070476FF0150070471007002008B5154695
:102218000E460022E1EE102AEFF3148222F00402A7
:1022280082F31488BFF36F8FBFF36F8F0B4A0C4B89
:102238009060026F1A6000F0BFF82C4686F3098898
:102248000020044B98472046002100220023024C1E
:1022580020470000A75A0008891A00081007002024
:1022680060050020014B10221A61704700ED00E064
:10227800054B9A699B689A421FBF044A536843F00A
:1022880080535360704700BF1007002000ED00E046
:10229800084B9B6883420BD1EFF3058343B1064B90
:1022A8005A6842F080525A605A6A22F400425A62CE
:1022B80004F078BB1007002000ED00E023498A688D
:1022C80082F8BDE04FF030001044EFF3098C80E84D
:1022D800F01F1EF0100F03D102F17C0080EC108A71
:1022E800102080F31288BFF36F8F194F4FF00066EC
:1022F8008A698A603E60106F164C206092F9BDE0D2
:10230800506F0023536780F311881EF0100F03D01D
:102318000023E1EE103A03E002F17C0090EC108A11
:10232800EFF3148323F0040383F31488BFF36F8F50
:1023380004B5104600F040F8BDE8044002F1300052
:1023480090E8F01F8CF30988704700001007002000
:1023580004ED00E060050020044800231021C218A5
:1023680001334A2B82F80013F9D1704700E100E0ED
:1023780008B5EFF30583064A103B02EBC30152F898
:10238800330049688847BDE80840FFF771BF00BFC0
:10239800AC71000801480068704700006005002023
:1023A800024B034A0348012100F07CB800000220D8
:1023B800000000206878000810B50446FFF7C2FE48
:1023C800226E03460548D21AC0E90023044B8360F5
:1023D800BDE81040012100F06FB800BF640500207F
:1023E80000000B15084AC2F898000B6823F01F0379
:1023F800034343F01003C2F89C308B6843F0010399
:10240800C2F8A030704700BF00ED00E02DE9F043AE
:10241800DFF8608085B00E461F4604464FF000097D
:10242800B14523DA6068D8B13FB1411E08421BD1DB
:102438007F2819D92368194216D12368019303F01C
:1024480042FBA36803430393D8F89050C5F30725CC
:10245800D0B2013DA84207D801A9FFF7C3FF421C2B
:1024680009F101090C34DBE76FF01502104605B0DD
:10247800BDE8F08300ED00E0044B0522C3F894208A
:10248800BFF34F8FBFF36F8F704700BF00ED00E0C1
:10249800BFF35F8F024B0022C3F89420704700BF40
:1024A80000ED00E010B5034C01232278FFF7AEFFE2
:1024B800207010BD4207002008B50B4A002312788F
:1024C800FFF7A4FF10F1160F07D0084A0021D2F831
:1024D8009030C3F30723984200DB08BDC2F8980088
:1024E800C2F8A0100130F2E74207002000ED00E03A
:1024F8002DE9F0435A4B5B4DD3F890302C68C3F369
:1025080007239C4285B000F2A780FFF7C1FF002097
:102518000C2684421AD1544EDFF844913470684630
:10252800FFF7A8FA514C524D80460027B84514D100
:1025380033784B490020D1F89020C2F30722934208
:10254800C0F28480FFF798FF002045E0696806FB29
:102558000011FFF747FF0130DBE7009800EB071198
:102568004FEA071CCB682340B3F5000F4DD00AD8BB
:10257800B3F5001F33D0B3F5800F3BD0B3F5801F00
:1025880013D00137D2E7B3F1007F47D0B3F1805FB2
:102598004DD0B3F1807FF4D150F80C3088684A6888
:1025A80003F091FA40F0887009E050F80C30886820
:1025B8004A6803F088FA40F0885040F43020CDE9AA
:1025C80001230390D9F890303078C3F30723013BF7
:1025D800984234D96FF0150005B0BDE8F08350F883
:1025E8000C3088684A6803F06EFA40F0885040F46E
:1025F8000020E4E750F80C3088684A6803F063FA72
:1026080040F0C06040F40030D9E750F80C308868DA
:102618004A6803F058FA40F08270D0E750F80C305E
:1026280088684A6803F04FFA40F48020C7E750F8FA
:102638000C3088684A6803F046FA2843BFE701A9C6
:10264800FFF7D0FE3378013333709AE7C1F898303A
:10265800C1F8A00001336EE74FF0FF30BCE700BFC0
:1026680000ED00E074780008420700200000F0FF49
:102678000000021108B5024B1B689847002008BDEE
:1026880070050020034B044A1860937843F0020356
:1026980093707047700500204400002008B5064973
:1026A800064821F00701C1F1005202F5003203F09B
:1026B800FBF8002008BD00BF071B002074050020A0
:1026C80007B5084A92E80300CDE900010648826888
:1026D800126822B16946904703B05DF804FB6FF0B9
:1026E8005700F9E7A0740008986F00081F2809D858
:1026F800012303FA00F0044B5B6998430CBF0120E7
:102708000020704700207047003C014000F01F0285
:102718001F284FF0010303FA02F39DBF024A00206D
:1027280053616FF015007047003C0140044B18449A
:10273800002301338B4200F8012BFADB704700BFFE
:102748008C0000202DE9F041104F054600264FF07F
:1027580001086B78F4B2A34201D8BDE8F0812B7868
:102768001C442046FFF7C2FF68B12046FFF7CEFFA2
:1027780057F834303BB107EBC40204F01F0451682A
:1027880008FA04F098470136E3E700BF8005002007
:10279800034660B1B0FA80F2C2F11F02D2B2054915
:1027A8008856054A11680B431360FFF751BCFF2296
:1027B800F5E700BF8C000020003C0140024A136886
:1027C80023EA000313607047003C0140032921D825
:1027D800DFE801F0020C10190F4B9A6822EA000298
:1027E8009A60DA6822EA0002DA6070470A4B9A684F
:1027F8000243F5E7084BDA680243DA609A6822EA8E
:1028080000029A607047044B9A6802439A60DA683B
:102818001043D860704700BF003C014030B5B0B1EC
:10282800B0FA80F3C3F11F03DBB20B4850F8334012
:102838008C4204D100EBC3056D68954205D044B9BC
:1028480040F8331000EBC3004260002030BDFF2386
:10285800EBE76FF00F00F9E78005002060B1B0FAF0
:1028680080F3C3F11F03DBB2044A002142F833109E
:1028780002EBC30251607047FF23F5E78005002093
:1028880000F00302043292000F23934043EA9000C1
:10289800C3B20233054A52F82320030C02EA10405F
:1028A80093FAA3F3B3FA83F3D84070470038014092
:1028B80038B508883A4BC0F30B0016281B680D463C
:1028C80014463ED810B96FF0850039E00138152854
:1028D800F9D801A252F820F03D29000897290008EC
:1028E8003929000897290008932900087329000846
:1028F80083290008CF280008CF280008CF2800081F
:10290800CF280008CF280008CF280008CF280008C3
:10291800CF280008CF280008CF280008CF280008B3
:10292800CF280008CF2800083D2900083D290008C5
:102938004FF4FA4323602968B1F5805F29D200205B
:1029480038BD44280ED82F28BDD900F57D61C1F3C4
:102958000B0101228A4013490A42EBD14028B2D127
:102968005B08E7E7A828E5D0ADE700F0CFF84FF41B
:10297800C072C30853439B08DCE700F0C7F84FF464
:10298800C072C3085343DB08D4E7074BD2E70023E0
:10299800D0E7C1F313310131B3FBF1F32360CEE784
:1029A800780000201101100000127A00162808D8BB
:1029B800054BC34013F0010F0CBF6FF085000020DA
:1029C80070476FF085007047EA00600070B54A4CA8
:1029D8004A4D00F0C3F8204603F06AF900F082FE81
:1029E800AB68474AC3F30313D35C20FA03F61378A2
:1029F8001C41A64202D2204600F0BCFE2B6843F4DC
:102A080080232B602B6843F480332B603B4B1A6880
:102A18009103FCD55A6F42F001025A675A6F920728
:102A2800FCD59A6802F00C02082A17D11A68950793
:102A380007D41A6842F001021A60304A13689807EE
:102A4800FCD52E4B9A6822F003029A609A6812F01D
:102A58000C0FFBD19A6822F0F0029A60274D2B6880
:102A680023F080732B602B689901FCD4254AD2F897
:102A7800043823F4403343F48033C2F80438D2F8DE
:102A8800043823F0706343F00063C2F8043800F0A0
:102A980041F82B6843F080732B60184B1A68920139
:102AA800FCD59A6822F0F0029A609A6822F0030234
:102AB80042F002029A609A6802F00C02082AFAD1DF
:102AC800A64202D3204600F055FE0F4B0A4A1A6070
:102AD8000A4B9A6822F4E05242F480529A609A684B
:102AE80022F460429A60D3F88C2022F08072C3F8F6
:102AF8008C20002070BD00BF00D8B8050038024007
:102B08001383000800300240780000200048704716
:102B180000127A000C4B0D495A6811400C4A0A43BE
:102B28005A605A680B4922F4403242F480325A60A3
:102B38005A6822F0E04242F480325A605A681140E2
:102B4800054A0A435A607047003802400080BFFFB8
:102B5800086040000080BFF008604008064B1A6C0F
:102B680042F0805282B01A641B6C03F080530193C8
:102B7800019B02B0704700BF0038024008B5074803
:102B880003F0E3FE38B10648FFF77CFD0448FEF782
:102B9800CBFE002008BD6FF01200FBE7CC700008E8
:102BA800AD2B00080A2838B5074D044604D1AB6898
:102BB8000D215B6828469847AB6803485B68E1B21B
:102BC8009847204638BD00BFCC7000082DE9F8436F
:102BD800D0F804900746D9F8080090460D461E46DE
:102BE80002F0CFFFB8F5001F044616D12846D9F8E1
:102BF8000840FFF745FE84420CD1294602F0C1FF88
:102C08000446FFF7DBFD2046FFF728FE002120469B
:102C1800FFF7DCFD0020BDE8F883B8F5800F20D071
:102C2800B6F1806F19D0B6F1C06F18D0B6F1007F39
:102C38001AD102260F493A462046FFF7EFFDB0B9F0
:102C4800D9F80810284602F0A1FF20463146FFF7C0
:102C5800BDFD2046FFF79CFDDCE70126EAE70326D9
:102C6800E8E76FF08500D6E76FF01500D3E76FF05F
:102C78000F00D0E7E75D0008F7B50446436806692A
:102C88001948DD680F4659688368DB68002201929D
:102C980023B96FF00404204603B0F0BD01AA984799
:102CA8000028F6DB376206F110074FF0FF324FF0CD
:102CB800FF33384600F05EFF2B6823F001032B60DA
:102CC800204696F8521003F02BF9019900F07AF893
:102CD80096F8513004461BB12B6843F001032B6072
:102CE800384600F013FFD6E7986F000870B5044621
:102CF800466805694FF0FF320021284603F046FE7A
:102D0800336820469847002385F8503085F85230BC
:102D18000122114605F1100003F038FE204600F0AC
:102D280033F83169144B994220D013D8134B994288
:102D38001ED0134BCB1A59425941890041F010015A
:102D48002046FFF799FF0028A2BF012385F85030DD
:102D5800002070BD0B4B99420CD003F5C31303F54B
:102D6800206399420CBF0A210021E7E70621E5E725
:102D78000221E3E70821E1E740420F00A0860100B5
:102D8800801A060040E1330013B5446801AA60695F
:102D9800002103F053FB002810DB019B0022197966
:102DA800186803F05EFB002808DB05486168836843
:102DB8001B680BB1984708B16FF0040002B010BD52
:102DC800986F000810B502694368126ADB68C2F39D
:102DD8004202012A04D0022A21D06FF0150010BD4A
:102DE80058681F4AB1FBF2F220F03F0010435860C8
:102DF800186A013220F03F0002431A62194AB1FBF7
:102E0800F2F140F6FC72114208BF0421DA6922F49B
:102E18004F4222F0FF020A43DA610020DFE75868D8
:102E28000F4AB1FBF2F220F03F0010435860186AD5
:102E38004FF49674624320F03F004FF47A74B2FB6B
:102E4800F4F2013202431A62074A914289BF013201
:102E580048F20101B1FBF2F141F40041D6E700BFAD
:102E680040420F00400D03007F4F12002DE9F74349
:102E78006D4F4668D7F80890D0F81080D9F8003020
:102E8800346871692BB96FF05705284603B0BDE85F
:102E9800F08338469847051EF7DBB369012B40F2EB
:102EA800C0807169D9F818300831002BEBD00022A6
:102EB8003846984705460028E7D17169D9F80C309B
:102EC8000831002BDFD06A463846984700280FDBC8
:102ED800009BC8F80030D8E901018368DB6803B1BA
:102EE8009847F06901AA002103F0A8FA002801DA3E
:102EF8000546CAE7019B00221979186803F0B1FA60
:102F08000028F5DB7368A3620023E362236843F0BB
:102F180080032360454B9C4245D0B4F1804F42D09A
:102F2800A3F57C439C423ED003F580639C423AD093
:102F380003F580639C4236D003F578439C4232D037
:102F480003F570539C4235D1236823F44073236002
:102F5800364B9C424DD1002323633369202B0AD181
:102F6800B36823F04002202A01D0402B03D1236804
:102F780043F0040323606368326923F0700313434A
:102F880063602A4B9C4245D1636CF26823F0FF03CF
:102F980013436364636C43F400436364236843F03E
:102FA8000103236071E72368B26823F070031343B9
:102FB8002360C9E71E4B9C42C6D003F580639C4240
:102FC800C2D0A3F598339C42BED003F580639C42DF
:102FD800BAD003F580639C42B6D0164B9C42BCD055
:102FE80003F580639C42B8D03369B3B16FF08505AF
:102FF8004BE7114B9C42AED0B4F1804FADD00F4B94
:103008009C42AAD00E4B9C42A7D003F580639C42F9
:10301800E3D1A2E7084B9C42B6D0F368002BBDD0A1
:10302800E4E76FF0150530E7986F000800000140ED
:10303800004401400010004000040140000400402A
:10304800000800402DE9F0410C4604F1FF3C194608
:103058004368BDF818701D68BCF1030F15D8B5F1A9
:10306800804F06D07A48854203D0B2F5803F00F2FF
:10307800EC807848042C50F82C6016BF7648002461
:1030880050F82C40F80503D51CB96FF0150006E080
:10309800344632B92B6A23EA04032B620020BDE8C8
:1030A800F0819B68002B7ED102F1FF3807F0010008
:1030B800402C4FEA400000F08D8000F28280042C02
:1030C80000F08A80102C00F08980012C14BF0623A0
:1030D8000023624F2A6A17F803E0022707FA0EF363
:1030E80000FA0EF022EA030303432B625C4B2846E6
:1030F80053F82C309847C5F82C802B6A34EA030320
:10310800CCD0402E77D06DD8042E76D0102E76D025
:10311800012E14BF06230023524F534817F803C04B
:1031280010F803E005F11801732351F80C2003FA95
:103138000EF322EA0303602202FA0EF21343402C34
:1031480041F80C3068D05ED8042C67D0102C67D0BA
:10315800012C14BF06230023DFF810C16A681CF88D
:1031680003C04FF4807303FA0CF322EA03036B6085
:103178002B6A402E44EA03042C625ED054D8042EF5
:103188005DD0102E5DD0012E14BF06230023FA5CFB
:10319800C05C8C580823834023438B506B6943F0F1
:1031A80001036B617AE7102B01D101397CE723F029
:1031B8004000202801D0402B47D149084FEA520847
:1031C80074E7B4F5807F0BD0B4F5806F14BF062385
:1031D80005237EE703237CE701237AE7022378E7C8
:1031E800042376E7B6F5807F0BD0B6F5806F14BF61
:1031F8000623052390E703238EE701238CE73B464C
:103208008AE7042388E7B4F5807F0BD0B4F5806F94
:1032180014BF062305239FE703239DE701239BE7AC
:10322800022399E7042397E7B6F5807F0BD0B6F51C
:10323800806F14BF06230523A9E70323A7E701230B
:10324800A5E70223A3E70423A1E76FF0850026E79B
:10325800000C00409C79000890790008FE82000864
:10326800807900080C83000805830008F7820008AD
:1032780030B50E29036911D1196811480B130A25B5
:10328800C1F30B0193FBF5F405FB143341434343AE
:10329800146003EB11335360002030BD0D290CD1AD
:1032A800B3F90430642093FBF0F100FB1133116093
:1032B80042F2107113FB01F3EDE76FF08500ECE7C4
:1032C800A0860100F8B50C46036941681E68237999
:1032D800012B35D09A1E55425541AD026279022A1A
:1032E8009CBF384F37F812C0A27988BF4FF4005CF2
:1032F800042A28D0003B18BF01231B03E279012AC6
:103308000A680CBF4FF440770027A642D1681DD148
:1033180021F4B05129430B43D360136923F440537C
:1033280043EA0C03136143681A68536923F4407332
:103338003B43536131684068BDE8F84003F0DFB9AA
:103348004FF4C065CAE74FF48053D7E701F4C06172
:103358008D421FBFD16821F4C0612943D160426802
:1033680011680A6902F4405294451FBF0A6922F4A1
:10337800405242EA0C020A6142681168CA6802F4C3
:10338800805293421FBFCA6822F480521343CB6015
:1033980043681A68536903F440739F421FBF536917
:1033A80023F440733B43536121683368994206D044
:1033B800406803F0A4F908B923683360F8BD002019
:1033C800FCE700BF0C7B0008F8B543681C6803697C
:1033D8001E680B79012B0D461AD0991E4A424A41A4
:1033E800920295F805C0AF79BCF1020F96BF324939
:1033F8004FF4005131F81C10042F00D083B1A3F111
:10340800030EBEF1010F06D86FF085031846F8BD0C
:103418004FF4C062E5E70BB1042FF5D04FF48053A9
:10342800B1F5805F3ED0B1F5405F3DD000290CBFBB
:10343800012103218C45E7D1002B37D0002A0CBF8E
:10344800042303239F42DFD1EB79C3B1012BDBD1E6
:103458001A4B9C4213D0A3F54C439C420FD003F562
:1034680080639C420BD003F580639C4207D003F530
:1034780080639C4203D003F544439C42C4D1E36873
:1034880023F40053E3602946FFF71CFF0346002896
:10349800BAD1E26842F40052E26095E8030086E897
:1034A8000300B3E70021C5E70221C3E7002A0CBFE8
:1034B80003230223C6E700BF0C7B0008001001406D
:1034C8004FF0E0230D4A9969126818699B69002931
:1034D80008BF1146002B08BF134610F4803F084868
:1034E80001D1994205D20168114401604FF0E021F1
:1034F800096900681044C01A704700BF0C07002013
:1035080004070020094B102283F82320084B4FF4AE
:1035180016521A60074B002018604FF0E02342F261
:103528007F525A61072298611A61704700ED00E0E6
:103538000C07002004070020684620F007018D468C
:10354800F1B503F0D4F90446FFF7BAFF124A13485D
:10355800D2E9005103685B19114D41F10001C2E93C
:103568000031D5E900614FF41652002707609B1B14
:10357800B3FBF2F002FB00F39B1941F10001C5E92E
:103588000031084B21461F6000F0DAFFFEF770FE9D
:10359800BDE8F14085467047280200200407002056
:1035A80020020020080700202DE9F041344E804613
:1035B80069B1B0F1FF3F0AD14FF0E022136923F05F
:1035C800010313614FF07F433360BDE8F081FFF7DB
:1035D80077FF2C492C4A35684FF0E0239C69D1E9E4
:1035E8000037C31847F100070020B8F1FF3FC1E9D1
:1035F8000037106025D02548D0E90020B3EB020C35
:1036080067EB0007002F37DB214B1B684FF4165E72
:1036180013EB08034FEAE87040F10000A3FB0E32F9
:103628000EFB0022B3EB0C0340F2014062EB0702F1
:10363800834272F100001FDBB3F1807F72F1000258
:1036480001DB6FF07F434FF0E0223360013B966966
:103658005361002393610F4B4FF000725A60B442DC
:10366800D1E900023ABF63199B1BA31B1B1842F147
:103678000002C1E90032A8E74FF48063E3E700BF26
:103688000C07002028020020040700202002002048
:103698000807002000ED00E010B5074B1C68074B39
:1036A8001B68E41AFFF70CFF4FF416532044B0FBD5
:1036B800F3F0034B186010BD280200202002002000
:1036C8000807002038B503F012F9054B04461D68B9
:1036D800FFF7F6FE84F31188BFF36F8F284438BDD7
:1036E8002802002008B520498B6803F00C03082B3A
:1036F80007D00C2B20D01D481D4A042B18BF10469C
:1037080008BD4A684B68496813F4800314BF17481A
:103718001748C1F3881118BF002302F03F02A1FB2C
:103728000001FDF749FA104B5B68C3F3014301330D
:103738005B00B0FBF3F0E3E74A684B68496813F4B1
:10374800800314BF09480A48C1F3881118BF002331
:1037580002F03F02A1FB0001FDF72EFA024B5B6865
:10376800C3F30273E5E700BF0038024000127A0095
:103778000024F400002800F08180424B1B6803F409
:103788004043B3F5404F30D103F10F6303F58C5339
:10379800984207D83C4B984209D83C4B984208D9E4
:1037A800032300E00523012B38BF012309E004238C
:1037B800F9E7374B98421AD8364B98424FF0000336
:1037C800F1D8304A126802F44042B2F5004F28D1CD
:1037D80002F10F6202F5A34290420AD9002B08BFFA
:1037E8000523012B38BF01231BE00023E9E702234F
:1037F800E7E7254A904203D9002B08BF0423F0E7E6
:10380800224A904203D9002B08BF0323E9E7204A44
:10381800904203D9002BE4D1022302E01D4A9042D2
:10382800DFD8184A126802F44042B2F5804F13D12B
:10383800164A904206D9002B08BF0323012B38BF34
:10384800012309E0124A904203D9002BF6D1022342
:1038580002E0104A9042F1D80F490A6822F00F029C
:103868001A430A600A6802F00F02934208D00868F7
:1038780000F00F00C01A18BF0120704701207047E0
:103888000020704700700040000E2707804A5D0541
:103898000087930380C3C901003C024038B5EFF3A9
:1038A8001185102383F31288BFF36F8F064B9C6832
:1038B80003F05EF885F31188BFF36F8F2046BDE8EB
:1038C8003840FEF7E5BC00BF1007002038B50A4BAA
:1038D80053F82040013053F82050A54200D838BD95
:1038E800606830B1037EDB0701D403F016F80834B2
:1038F800F3E723689847FAE7487A000870B52E4B33
:103908002E4C2F4D86B0012203201A70FFF7DEFFE0
:10391800AC4219D10420FFF7D9FF2A4C2A4D26467C
:10392800AE4204F1300415D300F070FC254CAC42D3
:103938002CD300F07FFCFDF767FB244A938923F022
:103948000103938106B070BD54F8043B002BE1D00D
:103958009847DDE754F80C3C059354F8103C049361
:1039680054F8143C039354F8183C029354F81C3C44
:10397800019354F8203C009354E90A2354E90C01BC
:1039880000F054F954F8303C5E65C8E7D4E90A23DE
:10399800B3F1FF3F08BFB2F1FF3F05D052EA030180
:1039A800206803D100F0A0F93034C0E70849183086
:1039B80000F0E6FCF8E700BF430700209C7400080D
:1039C800A0740008FC730008FC730008F0020020D3
:1039D800AD6A000870B5154E154D1649C02386B05E
:1039E80003FB006601220023CDE904230F22CDE961
:1039F80002320193182303FB0055044601EB4021D2
:103A08000D4B00954FF4C072304600F00FF9337C2F
:103A18000A4AEE6023F0040333744FF4086304FB8E
:103A2800033313442C746B6006B070BD3002002061
:103A380010070020801400207F690008000C002077
:103A48007FB50020FFF742FF284B83F30888284CF6
:103A5800636943F4007363610025F02384F822301E
:103A6800E57725766576A57684F82050636A43F471
:103A7800E0236362FEF7AAFAFEF7F4FB4FF0FF3388
:103A8800A362E362FEF734FDFEF78AFC19481A4C7C
:103A980000F01EF9FDF7D6FF0120FFF717FF0220FF
:103AA800FFF714FF00F0AAFB144B15499C61154B56
:103AB800059301234FF48062CDE90353CDE9015505
:103AC800114B0095204600F0B1F8237C064623F000
:103AD80004032046237402F0BEFF2846FFF77AFF4E
:103AE800094A31462046FEF791FB00BF80140020AA
:103AF80000ED00E0B0030020F002002010070020D5
:103B080080160020D58200080539000870B5EFF34B
:103B18001186102383F31288BFF36F8F0468A042C5
:103B28001AD0CCB1D4E9003213605A60237C002546
:103B380023F002032374C4E90055A56004F11800BA
:103B480000F0B6FC2046A56702F085FF314608481C
:103B5800BDE8704002F0BEBFD0E902329A4218BFF9
:103B68000133836086F31188BFF36F8F70BD00BF88
:103B78004407002013B5EFF31181102484F3128851
:103B8800BFF36F8F846844B1013C846081F311886E
:103B9800BFF36F8F002002B010BD52EA030406D1B4
:103BA80081F31188BFF36F8F6FF00F00F3E7CDE952
:103BB80000230246014800F0ADFAECE74407002074
:103BC80070B50546EFF31186102383F31288BFF30F
:103BD8006F8F00232C68A54218D0BCB1D4E90032FD
:103BE80013605A60227C002322F00202C4E90033E9
:103BF8002274A36004F1180000F05AFC6FF00A0365
:103C0800A367204602F027FF0123E3E70022AA600A
:103C180023B986F31188BFF36F8F70BD3146024810
:103C2800BDE8704002F056BF440700202DE9F0437C
:103C3800073285B022F007020E461F46109981818F
:103C480000F15803FF32C0E916330446002322F07E
:103C58007F020421836001744FF000084FF00009CF
:103C68000F98A0737F2AC4E90A89C4E90633E3736D
:103C780006F18009A2F1800805D883F31188BFF303
:103C88006F8F084602DFB51829462046FDF790FFDA
:103C980007300E9B20F00700A066C4E9189802932D
:103CA8000D9B01932D1A0C9B00932A463B463146E7
:103CB8002046FEF727FA00236365044B9B6803B18F
:103CC800DB6EE366284605B0BDE8F08310070020E8
:103CD8000123037483810023C0E91833C366014BB1
:103CE800986070471007002038B50446EFF3118537
:103CF800102383F31288BFF36F8F037C5B070FD504
:103D0800183000F0D5FB237C23F0040320462374ED
:103D180002F0B0FE29460548BDE8384002F0DABE98
:103D280085F31188BFF36F8F38BD00BF44070020AB
:103D3800F0B587B000250595109D04950F9D039556
:103D48000E9D0295DDE912760D9D01950C9D00955D
:103D58000446FFF76BFFB6F1FF3F08BFB7F1FF3F1F
:103D680005D056EA070305D12046FFF7BDFF2046D8
:103D780007B0F0BD3A46334604F11800014900F097
:103D8800FFFAF4E7AD6A0008094A93686FF00A0180
:103D98009967084958674B6843F080534B60002384
:103DA80083F31188BFF36F8F9368986F704700BFD4
:103DB8001007002000ED00E038B590F91020037CD2
:103DC800002A014604DA03F07F03037402F00BFEB5
:103DD8000D4D2A46AB6852F81C4F944200D004B9E6
:103DE800EC688B4207D01A7CD20604D1DA897F2A84
:103DF80001D9A2692AB1A34202D0204600F060FA94
:103E08002346AB6138BD00BF1007002070B590F99C
:103E18001020037C002A2FDBD9062DD11A4C63F021
:103E28007F032246037452F81C3F216A934207D14C
:103E3800C0E90021086020620FE09942F8D01B68B1
:103E4800002BF5D093F90E6090F90E50AE42F4DDD8
:103E58005968C0E9003108605860E569954200D0AA
:103E680005B9E568A3681A7CD20606D1DA897F2AE3
:103E780003D9AA690AB9A36170BDAB4202D028462A
:103E880000F01EFAA561F7E710070020034648B9BD
:103E9800EFF3058232B9064A91699268914201D0DE
:103EA800FFF772BF83F31188BFF36F8F704700BFAE
:103EB8001007002038B5184CA168206A0B688142A9
:103EC80014BF1A46002249680B605960A368216A2A
:103ED8002AB9124AC3E900210B6023620AE092F969
:103EE8000E5093F90E00854212DD5168C3E9002196
:103EF8000B605360E569094B9D4200D005B9E56840
:103F0800A3689D4202D0284600F0DAF9A56138BDC1
:103F18008A42DED01268DBE7100700202C07002059
:103F28002DE9F047002A027C0CBF4FF010094FF032
:103F3800080919EA020F04460E460F4628D149EA35
:103F48000203D20946D10374B9F1080F48D04FF0E3
:103F58000008DFF8F4A0534653F81C5F9D4200D0D8
:103F68000DB9DAF80C50DAF80830AB4202D028461E
:103F780000F0A6F9B9F1100FCAF8185008D0204679
:103F880001F08BFDB8F1000F02D02E48FFF7A0FE1C
:103F98002D4B9B68A3424FD1EFF30583002B4BD1E8
:103FA800A289D20711D586F31188BFF36F8F83F3E7
:103FB8001188BFF36F8F0423184602DFEFF31187D0
:103FC800102383F31288BFF36F8F3846BDE8F0479C
:103FD800FFF7DABE03F07F03037402F004FDB3E7D2
:103FE800A36813B1204602F006FD04F1180000F0A2
:103FF8005FFAA56D04F15808A84511D04FF0000AE2
:1040080075B1284602F0F7FC05F1180000F050FAE7
:10401800C5F878A02846FFF7F9FEA56DA845EFD1A9
:10402800094B9B689C4292D1EFF30588B8F10008D0
:1040380018BF4FF001088CE786F31188BFF36F8F24
:10404800BDE8F087B00300201007002070B50F4DC1
:104058002B46064653F81C4F9C4200D004B9EC6826
:10406800AB681A7CD20604D1DA897F2A01D9A26901
:104078002AB1A34202D0204600F022F92346AB61C0
:104088003046BDE87040FFF701BF00BF10070020B1
:1040980070B5EFF31186102383F31288BFF36F8F87
:1040A8001A4CA168206A0B68814214BF1A46002284
:1040B80049680B605960A368216A2AB9144AC3E9A0
:1040C80000210B6023620AE092F90E5093F90E006A
:1040D800854216DD5168C3E900210B605360E5692C
:1040E8000B4B9D4200D005B9E568A3689D4202D0FC
:1040F800284600F0E5F8A5613046BDE87040FFF7B6
:1041080043BE8A42DAD01268D7E700BF1007002002
:104118002C070020F8B5124B0C461146114A986836
:104128001060DDE90676EFF31182102282F312881F
:10413800BFF36F8F9D68284602F067FCB6F1FF3F1A
:1041480008BFB7F1FF3F06D007493A46334605F1A5
:10415800180000F015F92046BDE8F840FFF714BE36
:104168001007002034070020AD6A0008F8B550EAAF
:10417800010306460C4603D102F033FC0020F8BDCB
:10418800EFF31187102383F31288BFF36F8F174D56
:10419800174BA868186002F06FFCA86815493246EA
:1041A8002346183000F0ECF8AB681A7C5F6742F0E1
:1041B80004021A746FF00A029A670F4A536843F0B0
:1041C800805353600446002383F31188BFF36F8F35
:1041D800AA68D2E90A12B2F1004F08BF9942CDD1BC
:1041E80002F0ABFC201A20EAE070C8E710070020B4
:1041F80034070020AD6A000800ED00E0024B03F12F
:104208001C02C3E90722704710070020EFF3118151
:10421800102383F31288BFF36F8F054B9A68D37B03
:10422800013BD37381F31188BFF36F8F704700BFD1
:1042380010070020EFF31180102383F31288BFF3D7
:104248006F8F034B9A68D37B0133D373FFF7FEBE9E
:1042580010070020014B9868704700BF1007002026
:10426800027C12F01F02034610D10A4988420DD081
:104278000949086868B1D9897F2909D893F90E20B6
:10428800064B1B689A42B8BF002070470020704751
:1042980010467047300200207C00002038070020BC
:1042A800044BC01A044BC0105843044B01221A5443
:1042B800704700BF70040020ABAAAAAA44070020D8
:1042C800F8B50C4B0C4D1E7C0C4FFFF7C9FF18239B
:1042D80003FB06550446284600F0EAF834B1BB5DF6
:1042E8000749E21AD317284600F04AF80023BB55BD
:1042F800F8BD00BF1007002070040020440700200C
:10430800A942000870B5EFF31186102383F31288D1
:10431800BFF36F8F0F4D104BAC681868A04202D1E5
:10432800FFF7CEFF11E000221A602B7C0B4AD35C0A
:104338005BB12046FFF794FF38B1237CDB0604D13C
:10434800FFF7B8FDA869A042EAD086F31188BFF349
:104358006F8F70BD1007002034070020440700202D
:10436800024B1868984208BF00207047840000205C
:10437800024B186808B1FFF78FB97047800000201A
:10438800B3F1FF3F08BFB2F1FF3F2DE9F84F0446F4
:10439800994615461F4600F081808160EFF3118829
:1043A800102383F31288BFF36F8FB9F1000FDFF882
:1043B800F8A025DBFFF7DCFF3A4B1B68003B18BF72
:1043C8000123451949EBE0795B19DAE9005749F10E
:1043D8000002C4E904325D19064642EB07074FF0B4
:1043E8000109FFF7BDFFDFF8C4E0DEF804A00346CB
:1043F800EBB9C4E900EACAF80040CEF8044028E066
:10440800DAE900126FF001035B1A4FF0FF3161EB3C
:1044180002025B1B62EB0902012B72F10001BCBFB7
:1044280001230022C0E904324FF00009D9E7D3E99B
:10443800041CD4E904208A4270EB0C0B25DA891A93
:104448005A686CEB0000C3E90410C4E90032146038
:104458005C60FFF785FF84420FD1124B1B68013364
:104468000BD1B9F1000F02D1FFF782FF06463046A3
:1044780002F04CFB0021FFF797F888F31188BFF38F
:104488006F8F28463946BDE8F88F521A60EB0C004A
:104498005345C4E90420ACD01B68A9E700252F4682
:1044A800EFE700BF8000002088040020840000207F
:1044B800F8B50246EFF31185102383F31288BFF392
:1044C8006F8F016851B3FFF74BFF1C4B5B689A4233
:1044D80008D0D1E90434D2E90476DB1944EB0604A8
:1044E800C1E90434D2E90031002400264FF0004726
:1044F80090420B605960C2E90044C2E9046705D0E4
:10450800002085F31188BFF36F8FF8BDFFF730FFE8
:1045180002F0FCFA2146FFF747F8F1E7D0E9041367
:10452800B3F1004F08BF012902BF00204FF000413E
:10453800C2E904016FF01500E3E700BF8400002022
:104548002DE9F84FDFF8C0802D4CC8F80000002393
:104558002360FFF705FF2B4F0E464FF0010A4FF07F
:10456800004BD8F80050D7E900CE4FEAE57950B1B2
:10457800D0E904319D4279EB01021EDA5B1B61EB45
:104588000901C0E9043115EB0C054EEB0902C7E936
:10459800005200254FF0FF3328462360C8F800502A
:1045A80002F0B4FA2946FEF7FFFF86F31188BFF33D
:1045B8006F8FBDE8F84FFFF7A5BE13EB0C0C41EB6E
:1045C8000E01EB1AC7E900C1C8F80030D0E9003184
:1045D80082680B6059600023C0E90033C0E904AB6E
:1045E80086F31188BFF36F8F9047EFF3118610237E
:1045F80083F31288BFF36F8FFFF7B2FEB1E700BFF6
:1046080080000020880400203C07002010B5EFF34C
:104618001184102383F31288BFF36F8FFFF7A8FE6E
:10462800054A0346D2E90001181841EBE37184F307
:104638001188BFF36F8F10BD880400202DE9F04169
:104648000126B24201DCBDE8F08107463B461F4621
:1046580013F8014B002CF6D0252CF8D11D78252D08
:1046680007F10207F2D00023DFF8EC809C461C46D5
:104678001F2C27D8A5F1200EBEF1100F06D828FA56
:104688000EFE1EF0010F53D12E2D3CD02E2D27D813
:10469800242D33D02A2D36D0BCF1000FD3D0B44509
:1046A800D4D145F02007A7F1650CBCF1020F0B68C7
:1046B80001D9612F42D1073323F0070308330B6078
:1046C8000136BEE77F2CDFD96C2D23D01DD8682D8D
:1046D80027D06A2D01D04C2DDED144F4207408E097
:1046E800A5F1300EBEF1090FEED80A2404FB03E34E
:1046F800202417F8015B002DBAD1CDE7BCF1000FDB
:1047080018D0B34218D00023F3E7742DF1D07A2DD6
:10471800EFD0C1E7250648BF44F4007444F0800494
:10472800E7E7E50548BF44F4007444F48074E0E723
:104738000024DEE79C46E6E76325B2E7692D02D050
:1047480007D8632D03D0250601D5A405B3D40433B7
:10475800B5E7732DF6E700BF892801002DE9F04F72
:104768008378D0F8049093B09C07CDE9081280466E
:1047780015D50B920B460025187890B1252814D032
:10478800013306934146C847002805F1010580F228
:10479800FC8398F8023043F0040388F802304FF0A5
:1047A800FF35284613B0BDE8F08F93F801A09A1C96
:1047B800BAF1250F0692E5D04FF0000B5E465F4632
:1047C8005C461F2C23D8AAF12003102B22D8DFE83F
:1047D80003F01521211B2121210B2121211321184F
:1047E8002121090044F00104069B13F801AB06934C
:1047F800BAF1000FE5D11BE044F0020444F00404D0
:10480800F2E744F00804EFE744F01004ECE77F2CEB
:1048180000F2F880BAF12E0F00F0D58000F2AE80D9
:10482800BAF1240F00F0D580BAF12A0F00F0B68053
:10483800BBF1000F06D0099B08980B935A460BA9A9
:10484800FFF7FCFE002E4AF02003B8BF24F0400416
:104858000493A3F16503BCBFA4B20026022B04D9BC
:104868004AF02003612B40F090826FEA0A0A0AF0AE
:10487800200307930B9B073323F0070303F1080278
:104888000B92049A612AD3E900AB04F0400340F08C
:10489800E680002B08BF4FF0FF36079B0093504679
:1048A80033460CAA594602F085FA0130C3B2B34226
:1048B8000393A8BF03F1FF364FF0010C7023CDE935
:1048C800043CDDF830A044F4C0540AF10903122B6B
:1048D8000DD90AF16303C62B40F2F4800AF2E733DC
:1048E80040F2CE7293428CBF0423032305939DF8B4
:1048F8003430D80700F1E880A20700F1E880C4F35B
:10490800800B4FEA4B1B5FFA8BFB13F00C0F00F088
:10491800EA80BBF1000F0CBF03230423BB420EDA6D
:104928002007A7EB03070BD42F4441462020C84794
:10493800002805F10105FFF62CAFBD42F5D100278F
:10494800BBF1000F07D041465846C847002805F17B
:104958000105FFF61EAF9DF83430AF4C13F0080F79
:10496800AE4B08BF1C462646324616F8010B0028F7
:1049780040F0B0802C1B02EB040B7DE1AAF1300360
:10498800092B3FD814F0400F4FF00A0212BF02FB68
:10499800063602FB073744F0200425E7BBF1000F79
:1049A8007FF422AF0B9A600652F8043B0B9201D5B4
:1049B8001E4619E7002BA7BF44F020041F465F429C
:1049C80044F0280410E763063FF5EBAE44F04004DA
:1049D8000AE7BBF1000F3DD014F0400A099B089884
:1049E8000B930CBF3A4632460BA9FFF727FE0B9BE9
:1049F80053F8042B0B93BAF1000F01D01646F3E6D7
:104A08001746F1E6BAF16C0F16D00CD8BAF1680F58
:104A180019D0BAF16A0F03D0BAF14C0F7FF408AF7E
:104A280044F42074E0E6BAF1740F3FF4DDAEBAF155
:104A38007A0F3FF4D9AEFBE6200648BF44F4007471
:104A480044F08004D0E6E30548BF44F4007444F41D
:104A58008074C9E65E463446BB463746C4E6002B3A
:104A6800049B08BF0626652B0ED1721CD2B244F4F3
:104A780080541346112A4FF065014FF0000228BFF9
:104A880011239446049107E0049B662B12D144F449
:104A98000054B44601221123CDE9002C50460CAA3B
:104AA800594600F01DFBC3B203930223DDF830A082
:104AB80005930AE716F0FF02DBD1652304939446B9
:104AC8000123E9E7022311E74FF02D0B1DE74FF013
:104AD8002B0B1AE7079BC01A4146C0B2C8470028EB
:104AE800BFF642AF55E614F4405F40F09980039B4F
:104AF8004833002E6B4408BF0126133B039A1AB1B2
:104B080013F8012D302A79D014F0100F039B18BF29
:104B180033461AF1040F76DBB24574DA534544F490
:104B2800005440F380800AF101069E1B2AEAEA73CA
:104B38000133BBF1000F00D00133002E75D0721C79
:104B480013449F42CCBFFF1A002714F0090F03D16A
:104B58002F44BD426DD10027BBF1000F07D041465D
:104B68005846C847002805F10105FFF612AE23058F
:104B780011D541463020C8470028FFF60AAE079BEA
:104B8800C3F17800414600F0F800C847002805F155
:104B98000205FFF6FEAD200704D4AB467D195D453E
:104BA8004FD10027A1046AD52AEAEA73AAEB030ABF
:104BB8007642039A524584BF0CAA524403F1FF334C
:104BC8008CBF507930209E4205F1010B41DC4146F3
:104BD8000493C8470028049B0AF1010AFFF6D9ADDF
:104BE8005A1C09D141462E200493C8470028FFF6D5
:104BF800D0AD049B05F1020B5D46DAE7039A013A52
:104C0800D2B203927AE75E1E14F4006F059A14BFBD
:104C18000523032313448CE7DE820008DA820008A8
:104C2800A10483D4F0E7002680E7E20648BF0133F9
:104C380087E741462020C847002805F1010588DAA2
:104C4800A7E541463020C84700280BF1010BA6DA3A
:104C58009FE541460393C8470028FFF69AADE6064C
:104C68000AD5039B013307D105F1020B41462E20DB
:104C7800C8470028FFF68DAD5D465F4418E29DF8F1
:104C880035004146C8470028FFF683AD002E61DD98
:104C980041462E20C8470028FFF67BAD01240CAB07
:104CA800039AA242CABFE218302050794146C84749
:104CB8000028A346FFF66DAD0134A6420CABEFDA2F
:104CC800AC1C5C44049B079A981A4146C0B2C8477A
:104CD8000028FFF65EADBAF1000FB4BF2D202B20DF
:104CE8004146B8BFCAF1000AC8470028FFF651ADCF
:104CF800059B042B3AD14FF47A76BAFBF6F505F109
:104D080030004146C0B2C847002804F10304FFF64A
:104D180040AD06FB15AA6426BAFBF6F505F130008E
:104D28004146C0B2C847002804F10104FFF631AD7E
:104D380006FB15AA0A26BAFBF6F505F1300041462E
:104D4800C0B2C847002804F10104FFF622AD06FBF3
:104D580015AA13E0E40601D46C1CB3E741462E20E3
:104D6800C847002805F10204ACDA12E5059B032BBD
:104D780004F10204CFD0059B012BDBD10AF13000EE
:104D880004F1010B4146C0B272E7AAF16303122B8A
:104D980000F2E580DFE813F013005400E300E300BD
:104DA800E300E3005400E300E300E300E300E30072
:104DB800FC00DD00E300E3002900E300AB000B9BEF
:104DC8001A1D1B680B928DF8303001260DF1300A40
:104DD80020072CD50AEB060B54465C4529D1A5EBD8
:104DE8000A0A04EB0A0BBF1B46E70B9B1A1D0B9222
:104DF800D3F800A0A94BBAF1000F08BF9A4614F0E7
:104E0800400F14BF31464FF0FF31504601F0B1FE5C
:104E18000646DDE741462020C8470028FFF6B9AC22
:104E2800013CA642F6D32F443D1B2746D2E73C4619
:104E3800F7E714F8010B4146C8470028CDDAA8E483
:104E480021060B9B32D5A2052BD5073323F0070388
:104E5800D3E9000103F108020B9224F0100B00299A
:104E68001FFA8BFB32DA404261EB41014BF4806B55
:104E78000CAC0A23224601F088FE1BF0400FA0EB81
:104E8800040200F09C802BF0010396429BB240F391
:104E98009F80BAF1000F40F09D802BF011039BB268
:104EA8001FE01A1D18680B92C117D6E71A1DE005F6
:104EB80019680B9201D40846F6E7A2054BBF48B221
:104EC80008B241F3C01141F3C031C6E750EA01030B
:104ED800CED16306CCD5002ECAD124F01104A3B2DA
:104EE8003246344640F206410B426FD126E024F0A8
:104EF8001004A4B20A2314F0800C0B9A4CD014F4BA
:104F080000711DBF073222F0070202F10801101DCF
:104F180019BF0B91D2E900010B90106850EA010209
:104F280047D124F0160B62061FFA8BFB45D5002EDD
:104F380043D124F01704A3B23246344619075FD48C
:104F4800D90704D5A74272DD3C1BA6183C46A346E8
:104F580050E044F0100410234FF0780ACBE74AF0F1
:104F68002003782B04D1CAF1780343F01003C2E779
:104F780041462520C8470028FFF60BAC414650465D
:104F8800C8470028FFF605AC0235069BFFF7F4BBBF
:104F980008234FF0000AAEE7111D0B9114F480713D
:104FA8001068BBD014F400711ABFC0B2614680B259
:104FB800B4E724F006041FFA84FB0CAC5AE7144645
:104FC8005B46D9068ED5BAF1000F05D10134B5E795
:104FD8001446F6E73446F4E70234AFE741462020AA
:104FE800CDE90332C8470028FFF6D3ABDDE9033229
:104FF8000BF1010B5F45F1DC2C1B04EB0B055C4648
:10500800D90616D5414630200392C8470028FFF636
:10501800C0AB039ABAF1000F32D002354146504670
:10502800C8470028039AFFF6B4AB2E441DE0164685
:105038008DE740F206410B42F7D013F0020F14BF80
:105048002B20202013F4806F039205F101054146BF
:1050580018BF2D20E4E7414630200392C8470028B6
:10506800039A05F10105FFF694AB731B9A42F2DB34
:1050780016460DF1300A2EB902EB050B3F1BFBE576
:105088000135D2E7013E41461AF806000392C847A7
:105098000028039AEFDAFFF77CBB00BFE282000822
:1050A80041462020C847002805F10105FFF671ABED
:1050B8007B1B002BF4DC68E71FB502AB0093074AA3
:1050C8004FF0CC3301F040FEDDE90201C00840EAB0
:1050D8004170C90805B05DF804FB00BFCDCCCCCC4D
:1050E8002DE9F04F9BB00F0D0A939DF89030059273
:1050F8000C93C1F30A52C1F31303C90F0446079175
:105108007AB950EA03017CD1059930234B71079B8A
:105118000A6043F002030B71012630461BB0BDE85C
:10512800F08F40F2FF718A420AD10343079B059A28
:1051380014BF43F0080343F0040313710026ECE79F
:10514800A2F2354A43F48015234301BF27F0010733
:105158007F057F0DB7FA87F704F001024FEA85084B
:105168000CBF7F090127BAF1000F089248EA94782A
:105178004FEA8406C0F2B680504600F0EBF9BAF167
:10518800030FC8BF0138049000F0F0F9049B7C308D
:10519800A3EB0A0A824416A9184600F07BFA12AB60
:1051A800019310AB0093204653462946029716AA4E
:1051B80001F012FD049B152B04460D4600F28E806B
:1051C80014ABA94A009330464FF0CC334146DDE991
:1051D800109A01F0B9FD149B159A9B0843EA827353
:1051E80003EB8303B34210D14146304600F0C6F9C1
:1051F800049B83428CBF4FF000084FF00108002742
:1052080015E0DFF868A21D469EE7089B002B55D1E4
:10521800013E48F1FF31F01B61F1000100F0AEF9E9
:10522800049BDDF8208083428CBF002701270C9B5C
:10523800002B40F0C880DDF82890002606960996D5
:105248004FF00A0BDDE91001FFF736FFDDE912A385
:10525800CDE90D01194650460F93FFF72DFF0A4679
:105268000D990B9003468B420E9B72EB03010F9B2B
:1052780080F0C480204629460F92FFF71DFF0B9B44
:105288000F9A13920BFB03F50D9B10930E9B119332
:105298000B9B1293069B002E14BF4FF0000808F0DA
:1052A800010801330BFB1046554514BF002707F0D2
:1052B8000107F6B2069304460D46C3E7B01C48F151
:1052C800000100F05BF9049B83428CBF00200120A1
:1052D800B9EB00006AF10002CDE910024FF00008B6
:1052E8004746A4E7CAF1000B584600F039F9BAF16D
:1052F800FF3F0CBF8146A0F10109ABEB090B0AEB9C
:1053080009035846049300F031F916A9A0F17D0A63
:10531800584600F04BF912AB0193A9EB0A0A10ABFF
:105328000093204629460297534616AA01F054FCDA
:10533800B9F1010F04460D460ED8089B13B94FF07A
:10534800010874E7109B119A013B42F1FF32CDE945
:1053580010324FF0010852E7B9F13E0FBED84FF0B6
:10536800FF33A9F1200003FA09F203FA00F0C9F1AA
:10537800200123FA01F102430A4303FA09F328EA58
:10538800020826EA030656EA08060CBF4FF0010891
:105398004FF0000833E700FB02F6A1FB00120133CF
:1053A80032448C4275EB0206F5D2049A1344259ACE
:1053B8001344D20F9342B8BF13460A9A9A42A8BF21
:1053C8001A46914639E70A21002201230846E8E7F0
:1053D8000BFB01FEA0FB0B010CF1010C7144844294
:1053E80075EB010EF4D2CC450DDDB9F1000F02D1F9
:1053F80054EA050107D0012309933BE70A2000215D
:105408004FF0010CEBE7002F32D04FF00A0B50465B
:105418001946FFF751FE0BFB00F252450B910E9017
:1054280026D1DDE91001FFF747FE8A460D9029468F
:105438002046FFF741FE0D9A0E9B1293CDE9102AE4
:105448000B9A1392069A002E14BF4FF0000808F02A
:10545800010801320BFB10469A46F6B20B9B0692E6
:1054680004460D46D3E700BFCDCCCCCCCCFBFFFF28
:10547800B8F1000F05D0052E03D104F0010604365B
:10548800F6B2049B069A13449846099B53B9DDE982
:1054980012239D4208BF944204D1089B002B46D199
:1054A800002F44D0042E94BF0026012630194FF057
:1054B8000A0245F10001002301271446904271EBCE
:1054C800030536D2EEB1B9451BDA0C9B6BB1259AB0
:1054D80008EB07031344012B0A9AB8BF01239A4229
:1054E800A8BF1A46974291460BDD05304FF00A02D5
:1054F8004FF0000341F10001FBF75EFB08F10108E2
:10550800013F4F45A8BF4F463EB20FFA88F8059BAA
:1055180008FA87F706F10508013F98444FF000099B
:10552800B1450DDB059B079A1F601A71F5E5012649
:10553800BCE704FB03F5A2FB042301372B44BDE7BA
:105548000A220023FBF738FB303208F8012D09F155
:105558000109E5E7014B5843800C704741340100CD
:10556800014B5843000D7047FB2E0B00024B58436C
:10557800C00C0130704700BF4F9312000A4A70B543
:1055880003464FF0CC3600204FF0333506FB03F4CA
:1055980002FB0144A3FB023121449D4275EB010447
:1055A80001D30130F2E770BDCDCCCCCC2DE9F04F62
:1055B8001A23354EB0FBF3FA03FB1A0389B00446ED
:1055C8000D4606EB0A1653B9D6E90023C1E90023B4
:1055D800D6E90201C5E9020109B0BDE8F08F2B4AFE
:1055E80002EBC303D3E9008904AB0093D6E9022395
:1055F8004046494601F0A8FB06AB0093D6E90023D4
:1056080083460F464046494601F09EFBDDE90662A7
:1056180016EB0B0652EB07084FF0000328BF0123D7
:10562800814633B1049B059A013342F10002CDE96A
:10563800043220460391FFF799FF07461A2000FB22
:105648000AF0FFF793FF3F1A324643460399009743
:10565800484601F090FB4FEA141C0D4A640004F020
:105668001E0352F82C40DC4004F00304241841F1D6
:105678000001C5E90041DDE90423009730464146B1
:1056880001F079FBA6E700BF78750008A874000848
:10569800607A00082DE9F04F1A27DFF8ECA000F136
:1056A8001905B5FBF7F56F433A1A4FEA051B89B0A0
:1056B80004460E460AEB05150AD1D5E90023C1E9CF
:1056C8000023D5E90201C6E9020109B0BDE8F08F5F
:1056D8002B4B03EBC203D3E9008904AB0093D5E954
:1056E80002234046494601F02FFB5AF80B206B680D
:1056F800013ACDE9020106A963F100030091404691
:10570800494601F021FBDDE906528A4602996D18E7
:10571800039952EB01084FF0000328BF012381468B
:1057280033B1049B059A013342F10002CDE90432FA
:105738003846FFF71BFF07462046FFF717FF3F1ABB
:105748002A46434600974846514601F014FB4FEA63
:10575800141C0C4A640004F01E0352F82C40DC4070
:1057680004F003040134241841F10001C6E90041A2
:10577800DDE9042300972846414601F0FCFAA2E738
:10578800A8740008B47A000848760008704790F8B2
:105798002A3040F82310013380F82A30704738B592
:1057A8000446002594F82A20EBB29A4200D838BD66
:1057B80054F8230003685B6898470135F2E738B569
:1057C8000446002594F82A20EBB29A4203D8238D88
:1057D8000133238538BD54F8230003681B689847B4
:1057E8000135EFE790ED0B0A704708B501F0A9F90C
:1057F8000A220023FBF7E0F908BD10B52DED028B56
:1058080003681B68044698472046B0EE408AFBF7B9
:10581800E1FEB0EE480ABDEC028B2046BDE8104020
:10582800FBF72EBF01F091B803460A4600681979C4
:10583800012303FA01F103691B68194218BF82F0BA
:10584800010212B18368DB68184783681B69FBE7AC
:1058580000EBC100408840087047F8B50346FFF7E1
:10586800F7FFB0FA80F0C0F11F0003EB800CCA000C
:10587800DCF81060171D0C4606328DB256B90121AE
:1058880001FA00F0D9680143D960CCF81040DD5323
:105898009D52F8BDF1000431585AD85303EBC000AB
:1058A8009E52C5805D52F4E7043A2DE9F843CC1DB9
:1058B800114424F0070421F00706A6EB04084FEA78
:1058C800D807B7FA87F2C2F12405AD004FF00009F6
:1058D8000735C2F12002ED0804604946A760C4F804
:1058E8000C90920004F1100001F03BF9AAB25300A9
:1058F80043F0010363807B1B9BB204EBC501580096
:10590800A4F80090488024F83520A6F8029024F8DE
:10591800083004EBC70329465A8842F001025A802E
:105928002046BDE8F843FFF798BF002070470FB442
:1059380007B504A951F8040B0191FBF7FBFF03B06D
:105948005DF804EB04B070477047F0B5406802F4A6
:10595800C0454468B5F5804F4FF0010000FA01F0EA
:1059680074D10729C2F343255AD890FAA0F3B3FAA1
:1059780083F3266A9B000F2707FA03F326EA030638
:1059880090FAA0F3B3FA83F39B0005FA03F33343C9
:1059980023626568C2F3C0338B4025EA00010B43DC
:1059A800636090FAA0F1B1FA81F1A5680326490075
:1059B80006FA01F125EA010590FAA0F1B1FA81F1A0
:1059C800C2F3014349008B402B43A36090FAA0F136
:1059D800B1FA81F1E568490006FA01F125EA010505
:1059E80090FAA0F1B1FA81F1C2F3814349008B40EA
:1059F8002B43E36090FAA0F3B3FA83F3216890FA9B
:105A0800A0F05B00B0FA80F006FA03F34000C2F39E
:105A1800413221EA030382401A4322600020F0BD8C
:105A2800030A93FAA3F6B6FA86F6676A93FAA3F31B
:105A3800B6004FF00F0CB3FA83F30CFA06F69B008E
:105A480027EA06069D4035436562A2E7B5F5005F83
:105A5800A7D16668C2F3C03505FA01F126EA000548
:105A680029436160002B9CD0D30256BF0304A06178
:105A7800A36196E701F075B801F065B801460068C2
:105A8800FCF740B808B5FCF78FF8BDE80840FCF70C
:105A9800EFBB00210120FCF735B8FCF793BB61B6DA
:105AA80062B680F31188BFF36F8F704772B6002318
:105AB80083F31188BFF36F8FBFF34F8F30BF62B688
:105AC800BFF36F8F7047202809D9B0F1004F08D86D
