:020000040800F2
:10000000801A0020C92D000891920008B52D000823
:10001000B52D0008B52D0008B52D00080000000022
:10002000000000000000000000000000FD2D00089E
:10003000B52D000800000000C5300008A14C0008E4
:1000400079310008793100087931000879310008E8
:1000500079310008793100087931000879310008D8
:1000600079310008793100087931000879310008C8
:1000700079310008793100087931000879310008B8
:1000800079310008793100087931000879310008A8
:100090007931000879310008793100087931000898
:1000A0007931000879310008793100087931000888
:1000B0007931000879310008793100087931000878
:1000C0007931000879310008793100087931000868
:1000D0007931000879310008793100087931000858
:1000E0007931000879310008793100087931000848
:1000F0007931000879310008793100087931000838
:100100007931000879310008793100087931000827
:100110007931000879310008793100087931000817
:100120007931000879310008793100087931000807
:1001300079310008793100087931000879310008F7
:1001400079310008793100087931000879310008E7
:1001500079310008793100087931000879310008D7
:08016000793100087931000833
:1001680081F0004102E000BF83F0004330B54FEA60
:1001780041044FEA430594EA050F08BF90EA020FCD
:100188001FBF54EA000C55EA020C7FEA645C7FEA60
:10019800655C00F0E2804FEA5454D4EB5555B8BF83
:1001A8006D420CDD2C4480EA020281EA030382EAF4
:1001B800000083EA010180EA020281EA0303362D86
:1001C80088BF30BD11F0004F4FEA01314FF4801C59
:1001D8004CEA113102D0404261EB410113F0004F6B
:1001E8004FEA03334CEA133302D0524263EB430322
:1001F80094EA050F00F0A780A4F10104D5F1200EC0
:100208000DDB02FA0EFC22FA05F2801841F100011A
:1002180003FA0EF2801843FA05F359410EE0A5F1EE
:1002280020050EF1200E012A03FA0EFC28BF4CF01F
:10023800020C43FA05F3C01851EBE37101F00045D5
:1002480007D54FF0000EDCF1000C7EEB00006EEBE2
:100258000101B1F5801F1BD3B1F5001F0CD349086C
:100268005FEA30004FEA3C0C04F101044FEA4452C3
:1002780012F5800F80F09A80BCF1004F08BF5FEA4A
:10028800500C50F1000041EB045141EA050130BD2A
:100298005FEA4C0C404141EB0101013C28BFB1F53C
:1002A800801FE9D291F0000F04BF01460020B1FA87
:1002B80081F308BF2033A3F10B03B3F120020CDA5A
:1002C8000C3208DD02F1140CC2F10C0201FA0CF038
:1002D80021FA02F10CE002F11402D8BFC2F1200C9D
:1002E80001FA02F120FA0CFCDCBF41EA0C01904053
:1002F800E41AA2BF01EB0451294330BD6FEA04049C
:100308001F3C1CDA0C340EDC04F11404C4F1200286
:1003180020FA04F001FA02F340EA030021FA04F398
:1003280045EA030130BDC4F10C04C4F1200220FAEF
:1003380002F001FA04F340EA0300294630BD21FA2D
:1003480004F0294630BD94F0000F83F4801306BFF3
:1003580081F480110134013D4EE77FEA645C18BFE7
:100368007FEA655C29D094EA050F08BF90EA020F7E
:1003780005D054EA000C04BF1946104630BD91EA76
:10038800030F1EBF0021002030BD5FEA545C05D179
:100398004000494128BF41F0004130BD14F58004B8
:1003A8003CBF01F5801130BD01F0004545F0FE412C
:1003B80041F470014FF0000030BD7FEA645C1ABF61
:1003C800194610467FEA655C1CBF0B46024650EA98
:1003D800013406BF52EA033591EA030F41F40021C4
:1003E80030BD00BF90F0000F04BF0021704730B54A
:1003F8004FF4806404F132044FF000054FF000011F
:1004080050E700BF90F0000F04BF0021704730B5DF
:100418004FF4806404F1320410F0004548BF4042B4
:100428004FF000013EE700BF42004FEAE2014FEA09
:1004380031014FEA02701FBF12F07F4393F07F4FE4
:1004480081F06051704732F07F4208BF704793F0E7
:100458007F4F04BF41F40021704730B54FF46074FA
:1004680001F0004521F000411CE700BF50EA0102FD
:1004780008BF704730B54FF000050AE050EA0102A6
:1004880008BF704730B511F0004502D5404261EB16
:1004980041014FF4806404F132045FEA915C3FF457
:1004A800D8AE4FF003025FEADC0C18BF03325FEAF4
:1004B800DC0C18BF033202EBDC02C2F1200300FAA5
:1004C80003FC20FA02F001FA03FE40EA0E0021FACA
:1004D80002F11444BDE600BF70B54FF0FF0C4CF4B8
:1004E800E06C1CEA11541DBF1CEA135594EA0C0F6A
:1004F80095EA0C0F00F0DEF82C4481EA030621EAA5
:100508004C5123EA4C5350EA013518BF52EA0335DF
:1005180041F4801143F4801338D0A0FB02CE4FF091
:100528000005E1FB02E506F00042E0FB03E54FF0C1
:100538000006E1FB03569CF0000F18BF4EF0010EB9
:10054800A4F1FF04B6F5007F64F5407404D25FEAB5
:100558004E0E6D4146EB060642EAC62141EA555168
:100568004FEAC52040EA5E504FEACE2EB4F1FD0CAA
:1005780088BFBCF5E06F1ED8BEF1004F08BF5FEA28
:10058800500E50F1000041EB045170BD06F00046DA
:1005980046EA010140EA020081EA0301B4EB5C0487
:1005A800C2BFD4EB0C0541EA045170BD41F480117F
:1005B8004FF0000E013C00F3AB8014F1360FDEBFA4
:1005C800002001F0004170BDC4F10004203C35DA80
:1005D8000C341BDC04F11404C4F1200500FA05F303
:1005E80020FA04F001FA05F240EA020001F00042A4
:1005F80021F0004110EBD37021FA04F642EB06011A
:100608005EEA430E08BF20EAD37070BDC4F10C0443
:10061800C4F1200500FA04F320FA05F001FA04F207
:1006280040EA020001F0004110EBD37041F10001F3
:100638005EEA430E08BF20EAD37070BDC4F12005FE
:1006480000FA05F24EEA020E20FA04F301FA05F266
:1006580043EA020321FA04F001F0004121FA04F20E
:1006680020EA020000EBD3705EEA430E08BF20EADE
:10067800D37070BD94F0000F0FD101F00046400018
:1006880041EB010111F4801F08BF013CF7D041EA9A
:10069800060195F0000F18BF704703F0004652009E
:1006A80043EB030313F4801F08BF013DF7D043EA6F
:1006B8000603704794EA0C0F0CEA135518BF95EA25
:1006C8000C0F0CD050EA410618BF52EA4306D1D1AC
:1006D80081EA030101F000414FF0000070BD50EACB
:1006E800410606BF1046194652EA430619D094EA55
:1006F8000C0F02D150EA013613D195EA0C0F05D13F
:1007080052EA03361CBF104619460AD181EA030192
:1007180001F0004141F0FE4141F470014FF000004A
:1007280070BD41F0FE4141F4780170BD70B54FF0E5
:10073800FF0C4CF4E06C1CEA11541DBF1CEA135565
:1007480094EA0C0F95EA0C0F00F0A7F8A4EB050447
:1007580081EA030E52EA03354FEA013100F088803E
:100768004FEA03334FF0805545EA131343EA126307
:100778004FEA022245EA111545EA10654FEA0026BC
:100788000EF000419D4208BF964244F1FD0404F575
:10079800407402D25B084FEA3202B61A65EB0305D1
:1007A8005B084FEA32024FF480104FF4002CB6EB8E
:1007B800020E75EB030E22BFB61A754640EA0C000E
:1007C8005B084FEA3202B6EB020E75EB030E22BF4E
:1007D800B61A754640EA5C005B084FEA3202B6EB8F
:1007E800020E75EB030E22BFB61A754640EA9C004E
:1007F8005B084FEA3202B6EB020E75EB030E22BF1E
:10080800B61A754640EADC0055EA060E18D04FEADB
:10081800051545EA16754FEA06164FEAC30343EA7B
:1008280052734FEAC2025FEA1C1CC0D111F4801F48
:100838000BD141EA00014FF000004FF0004CB6E741
:1008480011F4801F04BF01430020B4F1FD0C88BFE0
:10085800BCF5E06F3FF6AFAEB5EB030C04BFB6EBEB
:10086800020C5FEA500C50F1000041EB045170BDDE
:100878000EF0004E4EEA113114EB5C04C2BFD4EB0B
:100888000C0541EA045170BD41F480114FF0000E8F
:10089800013C90E645EA060E8DE60CEA135594EA0B
:1008A8000C0F08BF95EA0C0F3FF43BAF94EA0C0F0E
:1008B8000AD150EA01347FF434AF95EA0C0F7FF483
:1008C80025AF104619462CE795EA0C0F06D152EAD7
:1008D80003353FF4FDAE1046194622E750EA4106BB
:1008E80018BF52EA43067FF4C5AE50EA41047FF4CC
:1008F8000DAF52EA43057FF4EBAE12E74FEA41022F
:10090800B2F1E04324BFB3F5001CDCF1FE5C0DD965
:1009180001F0004C4FEAC0024CEA5070B2F1004FAF
:1009280040EB830008BF20F00100704711F0804FB2
:1009380021D113F13872BCBF01F00040704741F477
:1009480080114FEA5252C2F11802C2F1200C10FA7B
:100958000CF320FA02F018BF40F001004FEAC1235F
:100968004FEAD32303FA0CFC40EA0C0023FA02F303
:100978004FEA4303CCE77FEA625307D150EA0133D9
:100988001EBF4FF0FE4040F44000704701F00040A9
:1009980040F0FE4040F40000704700BF80F0004087
:1009A80002E000BF81F0004142001FBF5FEA41033F
:1009B80092EA030F7FEA226C7FEA236C6AD04FEA3F
:1009C8001262D2EB1363C1BFD21841404840414084
:1009D800B8BF5B42192B88BF704710F0004F40F436
:1009E800000020F07F4018BF404211F0004F41F452
:1009F800000121F07F4118BF494292EA030F3FD01E
:100A0800A2F1010241FA03FC10EB0C00C3F1200330
:100A180001FA03F100F0004302D5494260EB4000BF
:100A2800B0F5000F13D3B0F1807F06D340084FEA2A
:100A3800310102F10102FE2A51D2B1F1004F40EB1F
:100A4800C25008BF20F0010040EA03007047490087
:100A580040EB0000013A28BFB0F5000FEDD2B0FA24
:100A680080FCACF1080CB2EB0C0200FA0CF0AABF47
:100A780000EBC25052421843BCBFD04018437047E5
:100A880092F0000F81F4000106BF80F400000132EB
:100A9800013BB5E74FEA41037FEA226C18BF7FEAC2
:100AA800236C21D092EA030F04D092F0000F08BF04
:100AB8000846704790EA010F1CBF0020704712F0EB
:100AC8007F4F04D1400028BF40F00040704712F12A
:100AD80000723CBF00F50000704700F0004343F08F
:100AE800FE4040F4000070477FEA226216BF0846C5
:100AF8007FEA23630146420206BF5FEA412390EA88
:100B0800010F40F4800070474FF0000304E000BF7D
:100B180010F0004348BF40425FEA000C08BF70472E
:100B280043F0964301464FF000001CE050EA0102F2
:100B380008BF70474FF000030AE000BF50EA010207
:100B480008BF704711F0004302D5404261EB4101F4
:100B58005FEA010C02BF84460146002043F0B64319
:100B680008BFA3F18053A3F50003BCFA8CF2083A3E
:100B7800A3EBC25310DB01FA02FC634400FA02FC47
:100B8800C2F12002BCF1004F20FA02F243EB02004E
:100B980008BF20F00100704702F1200201FA02FCB0
:100BA800C2F1200250EA4C0021FA02F243EB0200A3
:100BB80008BF20EADC70704753B94AB9002908BF5A
:100BC80000281CBF4FF0FF314FF0FF3000F00CB889
:100BD800ADF1080C6DE904CE00F012F8DDF804E080
:100BE800DDE9022304B07047704700BF10F8012BFD
:100BF80011F8013B012A28BF9A42F7D0D01A704752
:100C08002DE9F0478C468E46089E1546044619463F
:100C1800002B40F0D080724547D9B2FA82F74FB125
:100C2800C7F120030EFA07FC20FA03F3BD4043EA9C
:100C38000C0CBC404FEA154EA8B2BCFBFEF8230CC6
:100C48000EFB18CC08FB00F943EA0C43994528D958
:100C5800EB1808F1FF3204D2994502D9A8F1020233
:100C68002B44A3EB0903A4B2B3FBFEFC0EFB1C331D
:100C78000CFB00F044EA0344A04214D92C190CF1EF
:100C8800FF3304D2A04202D9ACF102032C44241A47
:100C980043EA02401EB1FC40002334607360BDE8A3
:100CA800F0874246DDE76346F1E7002A79D0B2FAD9
:100CB80082F3002B3FD01946C1F1200302FA01F557
:100CC8002EFA03F20EFA01FE20FA03F343EA0E03AA
:100CD8004FEA154E00FA01F4B2FBFEFCAFB20EFB70
:100CE8001C201A0C0CFB07F842EA004290455AD91E
:100CF800AA180CF1FF3004D2904502D9ACF10200D9
:100D08002A44A2EB08029BB2B2FBFEFC0EFB1C229B
:100D18000CFB07F743EA02439F4246D9EB180CF154
:100D2800FF3204D29F4202D9ACF102022B44DB1BF2
:100D380042EA004202E0AEEB020301224FEA154EFE
:100D4800AFB2B3FBFEFC200C0EFB1C330CFB07F808
:100D580040EA034398452AD9EB180CF1FF3004D236
:100D6800984502D9ACF102002B44A3EB0803A4B2C6
:100D7800B3FBFEFC0EFB1C330CFB07F744EA0344F1
:100D8800A74216D92C190CF1FF3304D2A74202D975
:100D9800ACF102032C44E41B43EA00400F46114621
:100DA80078E71F2188E76046ABE76246BFE7604601
:100DB800DBE76346EFE7734506D916B90021084615
:100DC8006DE7C6E9000EF9E7B3FA83F787B973450B
:100DD80001D3824207D8841A6EEB030301209C4694
:100DE8001EB900215BE73846FAE7C6E9004CF8E788
:100DF800C7F1200CBB4022FA0CF51D4320FA0CF178
:100E08002EFA0CF30EFA07FE41EA0E014FEA1549D5
:100E180000FA07F4B3FBF9F81FFA85FE09FB18304E
:100E28000B0C08FB0EFA43EA00439A4502FA07F254
:100E380040D9EB1808F1FF3004D29A4502D9A8F13D
:100E480002002B44A3EB0A0389B2B3FBF9F809FBB0
:100E5800183308FB0EFE41EA03418E452CD9691868
:100E680008F1FF3304D28E4502D9A8F102032944C0
:100E780043EA0040A0FB0298A1EB0E014145CE4693
:100E8800434602D306D14C4504D2B9EB020E68EBB7
:100E980005030138002EA4D0B4EB0E0261EB030168
:100EA80001FA0CFC22FA07F34CEA0303F940C6E9FD
:100EB800003196E74046C5E74346D9E70000000001
:100EC80037B5174C206809F06DF800B3206801F0B9
:100ED800B3F820680E216A4601F074F80198FFF70C
:100EE80091FA0DA3D3E90023FFF720FC04460098EC
:100EF8000D46FFF787FA02460B4620462946FFF7BC
:100F080035F9FFF7FBFC00EE100A03B030BD9FED8A
:100F1800050AFAE7AFF300800000000080842E4144
:100F280008000020000000002DE9F04F044689B0B9
:100F3800DFF80081384BD8F808609E420CD2374F52
:100F4800BE4209D3736806AA012140469847002883
:100F580012DA09B0BDE8F08F314A324932484FF40D
:100F6800217308F0E6F83149314808F0E2F84FF407
:100F780021712B4808F0D4F8DDE9065B4FF47A7349
:100F88005C43A4FB052304FB0B3304920393DDE9C4
:100F980003101FA3D3E90023FFF70EFE049BDFF81D
:100FA800989005904FF0FF3A9A45039B79EB03031D
:100FB800CFD36308A3FB054503FB0B55294614A3B0
:100FC800D3E900232046FFF7F7FDA24579EB050595
:100FD8000346BED3059A8242BBD30F4A964209D232
:100FE800BE4207D3002200923468059A0121404688
:100FF800A047AEE70A4A0B490B4840F26F2308F0B6
:1010080098F80A490A4808F094F840F26F21B0E7C6
:1010180000CA9A3B000000006CAD000864AD0008EF
:10102800BEBE0008EEBE0008E7B4000824C00008F1
:1010380057B6000884AA0008FFC99A3B00000000C0
:101048002DE9F84F2DED028B81468846002319F8CB
:101058000370202F03F1010200F0A181A7F109011B
:10106800042940F29C812B2F144631D02D2F34D0E7
:10107800042547F02003692B31D06E2B6AD000225B
:101088004FF00A0B924694461346114615F4006039
:1010980075D047F02006A6F1610EBEF1050F6ED897
:1010A800573EF6B25E456FD347F02007782F05F01C
:1010B800800640F0AE80002E5DD053EA010640F075
:1010C800AA8045F4006E1FFA8EFE4FF0100B8EE0DA
:1010D800042519F802709C1CCBE74425F9E79FED1D
:1010E800B28BB74B13F8011B51B119F8042042F029
:1010F80020028A4204F1010030D0B24A93423AD128
:10110800B0EE480AF0EE680A09F07EFA50B119F814
:101118000430282B06D1013419F80430292B04F1A6
:1011280001041DD16B0607D518EE901A18EE102A87
:1011380001F1004343EC182BB8F1000F02D04C44E6
:10114800C8F80040B0EE480AF0EE680ABDEC028B21
:10115800BDE8F88F9FED968B9B4BC3E70446C1E72C
:1011680023F02002413A192AD6D9A3F13002092ADC
:10117800D2D95F2BD0D09FED908B0024DCE7A7F16C
:101188003006F6B25E4539D245F0800E15F480700F
:101198001FFA8EFE23D1BBF10A0F14BF0F271027A9
:1011A800BA450EDCAF0527D4ABFB0335F3180BFBB0
:1011B800015545F1000153EA010018D00AF1010A6E
:1011C80015E045F4C07EBBF10A0F1FFA8EFE06D16A
:1011D800042E04D9052E08BF06464FF0020C002E37
:1011E80018BF4CF0010C1EF4007F00D1013219F831
:1011F80004707546013449E7013AD5E7FE2E7FF4BD
:1012080053AFAE053FF550AF45F4007E1FFA8EFE92
:10121800EDE7002EAFD0002877D092007020B842BA
:1012280018D119F804002B2804F1010604D02D2840
:101238006DD145F48065ADB219F80670A61C044658
:101248003846A0F13007092F64D901340CBF06F1E4
:10125800FF34B41E53EA010004F1FF3400F09C800F
:1012680028057CD53632B1F5800F6BD3574FB1F5D1
:10127800000F6BD2BA4269DB4CEA030303F00306A2
:10128800032E084603D003F00606062E09D10433C0
:1012980041F10000B0F5000F22BF013201234FF4E5
:1012A8008000B2F5806F74DAB0F5800F4FEA9006CF
:1012B8004FEA930326BF02F2FF3226F4801600227B
:1012C80043EA8073184646EA025141EC180BB0EE27
:1012D800480AF0EE680A07F02DFD0138022804D804
:1012E80001F058FF3A4B22221A50B0EE480AF0EEAD
:1012F800680A07F01FFD013802283FF613AF01F016
:1013080049FF334B22221A500CE7652087E74FF03C
:10131800FF3496E7002440F2D34E4FF00A0B744591
:10132800DCBF30380BFB040419F80600A0F13007C5
:10133800092F06F10106F2D96F0548BF644222441D
:10134800344687E7DB184941013A8CE75E0846EAEC
:10135800C17603F0010333434908013287E7924419
:101368001AF5A27F12DDBAF59B7F12DA03F00100AD
:1013780040EA0C0001308008181841F1000100F023
:101388002BF8B0EE408AF0EE608AAEE79FED0A8B4C
:10139800ABE79FED058BA8E79FED078BC2E61346E9
:1013A80055E600BFAFF30080000000000000F07FAA
:1013B800000000000000F87F0000000000000000AE
:1013C800B2DC0008B5DC0008AFDC000802FCFFFF57
:1013D8000C000000000000002DE9FF47804616467B
:1013E8000F46002900F0A380B1FA81F4341B002EC7
:1013F80004F10A04C0F2A380304607F07DFB0444E0
:10140800304607F07FFBA4EB0609054669463046DF
:1014180007F0A0FBA9EB05037D336A464046394631
:1014280008F010FFA64282460D4600F38480B9F109
:101438003F0F00F382804FF0FF33A9F1200003FA39
:1014480000F003FA09F2C9F12001024323FA01F17D
:101458000A4303FA09F328EA030327EA02021343BB
:101468000CBF01200020002D00F08B80B5FA85F319
:10147800E31A03F23E4340F2FE72934200F3878080
:10148800002B23EAE371CCBF0A460122121BA2F209
:101498003344C4F12007A2F2344EA2F253432AFA8D
:1014A80004F605FA07F73E4325FA03F3CEF1200CBC
:1014B800A2F254471E4305FA0CFC2AFA0EF343EA3B
:1014C8000C0325FA07F73B4313F0010325FA04F44C
:1014D800CEF12008A2F2544218D04FF0FF3707FA95
:1014E80002F307FA0EFC4CEA030C27FA08F34CEA5D
:1014F800030C07FA0EF72AEA070A25EA0C055AEA46
:10150800050A42D1002840D006F001039A1944F197
:101518000004C4F3130452EA040008BFC9181646AD
:1015280044EA015747EC106B04B0BDE8F087B0FA05
:1015380080F420345AE7012095E7002093E7C6F1AC
:101548000009484607F0DEFA241A484607F0DAFA96
:10155800A61B0546694648462E4407F06FFB06F170
:101568007C036A464046394608F06CFE82460D46C2
:101578004046394607F0D6FA81458CBF0020012045
:1015880071E7BAFA8AF3203372E70123BEE79FEDC9
:10159800020BC9E7AFF30080000000000000F07FF5
:1015A80010B560B91348144A14499C2307F0C1FDCB
:1015B800134807F0BEFD10489C2107F0B1FD836871
:1015C800104A934207D2104A934204D31B686BB95E
:1015D8006FF0570010BD084A0C4906489C2307F0D5
:1015E800A8FD0B490B4807F0A4FDE4E7BDE810404F
:1015F800184700BFE7B400089AB40008D9B4000837
:1016080004B50008E4AD0008D0AD000815B5000821
:1016180052B6000857B6000802460B46014803F0C8
:1016280007BF00BFA4000020014803F0C9BF00BFE6
:10163800A4000020F8B50E4D0E4F0F4E4FF0FF30AE
:101648004FF0FF31FFF7E8FF2B7853B13C7844B9EE
:10165800306830B107F0F9FB33685A7F0AB12C7053
:101668005C77FFF7E1FF0021642005F0AFF9E5E7BB
:101678006907002068070020C00400202DE9F04118
:101688002DED028B98B0202200210DAF10A808F094
:101698003FFD0024AD49AE480D947C603C8107F0C5
:1016A80074FBAC49AA4807F070FB00F0FDFDAA489E
:1016B80007F029FD25460CAEA8483146FFF770FF14
:1016C80040B99DF830300D2B0BD00A2B09D00135CD
:1016D8003B55EDB26420002105F078F9092D2C4620
:1016E800EAD104F160030DEB030400239C4904F8DC
:1016F8002C3C3846FFF77AFA9A4D00286FD19A4B5E
:101708009A482B6007F0FFFC994807F0FCFC9948C1
:1017180007F0F9FC07F031FB974BC3E90001002201
:101728000023CDE9062300240523CDE9033493499A
:10173800934B944800944FF48062CDE9014404F03F
:1017480081FA9148914F07F0DEFC84480DF127019A
:10175800FFF726FF002840F0F0809DF827108C48FE
:1017680007F0D1FC9DF827300D2BA04602D00A2B9C
:1017780040F0A78104F160030DEB030485480023C2
:1017880004F8203C07F0BFFC834910A8FFF72EFAA5
:1017980078BB4FF0FF304FF0FF31FFF73DFF3A784D
:1017A80032B92B681A775C6807F0E7FAC4E90001D8
:1017B8002B685C6807F0E1FAC4E90A012B685C68E9
:1017C80007F0DBFA754B0122C4E908011A700023FF
:1017D8003B70FFF729FF724807F095FCA9E0714BB1
:1017E80071482B6007F08FFC704807F08CFC70483C
:1017F8008EE7704910A8FFF7F9F90446C0B94FF011
:10180800FF304FF0FF31FFF707FF644B3C701C704F
:101818002B685A68002111615A6800200021C2E92A
:1018280008011C77FFF700FF00F088FD6248D3E746
:10183800624910A8FFF7DAF998B94FF0FF304FF076
:10184800FF31FFF7E9FE01233B702B685C6807F066
:1018580094FAC4E90801FFF7E7FE00F06FFD584865
:10186800BAE7584910A8FFF7C1F9044660BB4FF022
:10187800FF304FF0FF31FFF7CFFE484B3A4A1C705C
:101888002B683C7093421C7707D1002000215A6BCB
:101898001A64C3E914019A6C5A645C6807F06DFA1B
:1018A800C4E900012B685A68002111615B680021B6
:1018B8000020C3E90801FFF7B7FE254807F0A1FAA1
:1018C80000F03CFD404887E74049092210A808F08D
:1018D80037FC002840F086800DF1490008F020FC14
:1018E80051EC100BFFF70AF808EE100AB5EEC08AA3
:1018F800F1EE10FA06D9DFED367AB4EEE78AF1EEAA
:1019080010FA01DD334867E74FF0FF304FF0FF3141
:10191800FFF782FE2B68234A934213D183ED0D8A89
:10192800FFF782FEFDEEC87A2B4817EE901A07F0F3
:10193800EAFB2A4807F0E7FB00240021642005F0B1
:1019480045F802E7FFF770FE254845E70400002048
:10195800C8040020000000206EB60008DCA90008BA
:101968008BB60008C0040020B001002092B6000821
:101978009FB60008D6B6000808020020800700209D
:101988003D160008B800002083B70008680700204B
:10199800DEB70008EFD50008E1B7000869070020A6
:1019A800E7B70008780100201FB700082EB7000825
:1019B80047B70008F3B70008F8B7000804B80008EC
:1019C8000AB8000815B800081BB8000825B80008B0
:1019D8000000FA432FB8000856B8000888B6000877
:1019E8006FB800083D49092210A808F0A9FB002893
:1019F8004DD13B4900960BAB0AAA0DF1490005F001
:101A080099FC03281BD19DED0A7AB5EEC07AF1EE58
:101A180010FA14D9DDED0B7AB4EEE77AF1EE10FA8C
:101A28000DDA9FED307AF4EEC77AF1EE10FA06DCA3
:101A3800DDED0C7AF5EEC07AF1EE10FA01D82A48FD
:101A4800CAE64FF0FF304FF0FF31FFF7E5FD274BB7
:101A58000B990A9AD9630C995A6399631A64FFF728
:101A6800E3FDDDED0C7A2248FDEEE77A17EE903AB9
:101A7800DDED0B7AFDEEE77A17EE902ADDED0A7AB6
:101A8800FDEEE77A17EE901A07F03DFB51E719498A
:101A980010A8FFF7ABF890B94FF0FF304FF0FF31C7
:101AA800FFF7BAFD144B28681049984218BF194629
:101AB80007F0E0F92860FFF7B7FD10488CE61048FA
:101AC8008AE61E2C3FF639AF08F160020DEB0208DA
:101AD8000134E4B208F8203C2FE700BF98B80008AA
:101AE800A2B800080000FA43ABB80008B001002013
:101AF800E6B800080DB900087801002012B90008FE
:101B080024B900081C4BDFF890C0F0B51B4D1D60D0
:101B1800DFF888E01A4D5D630022002000210024D0
:101B2800184F194EC3F838E01D64DFF874E0174DFC
:101B38001A615A619A61C3E90801C3E90A01C3F845
:101B480004C09F60DE609C831C63C3E91401C3F872
:101B58003CE05D649D640E4BC3E901C7C3E908011D
:101B6800C3E90A011A615A619A610A4ADE609C83D4
:101B78001C631A605D63F0BDB00100209CB00008D2
:101B880000002041C4040020C80400200000C8420E
:101B98007801002088B000080802002000004040BA
:101BA80000003E43F7B50446FFF78AF984ED000AC2
:101BB80008F08BFA0A220023FEF7FEFF1E4D0E46A0
:101BC800D5E9001307467A1A66EB0303B2F5FA6FF4
:101BD80073F1000323DBD4ED007A9FED186A1848EF
:101BE800FDEEE76A6323B8EEE67A16EE901A77EE12
:101BF800C77A9FED147AF0EEE77AB0EEC77A67EE0F
:101C0800867A27EE067AFDEEE77ABDEEC77A17EEFA
:101C1800902A8DED007A07F076FAC5E9007694ED02
:101C2800007ADFED097AB4EEE77AF1EE10FA94BFA4
:101C38000120002003B0F0BD400200200000C8428F
:101C480030B90008005C0F3FB81EC742F0B52DED53
:101C5800028B85B00446B0EE408A00F07BFB07EEAD
:101C6800900A94ED027AF8EEE77A77EEC77AF0EE0A
:101C7800E77AC4ED037A08F028FA00230A22FEF76F
:101C88009BFF07460D46D4E9080150EA010304BF4B
:101C980038462946381A65EB0101FEF74FFFDFED9C
:101CA8003E7A06EE900A86EEA77AC4E90875D4ED66
:101CB800047ADFED3A6AE7EE087A94ED037AC4ED28
:101CC800047A27EE267ADFED366A84ED067AF4EE9A
:101CD800E67AF1EE10FA04D5012005B0BDEC028BCE
:101CE800F0BD37EEC76AB0EEC66AC6EE276AD4E919
:101CF8000A2340F6B831BA1A65EB03038A4273F136
:101D080000039FED286A66EE866AC4ED056AE3DB88
:101D1800D4E90C23BE1A65EB0303B6F5FA6F73F129
:101D280000032CDBFDEEC75AFDEEE66AB8EEE55A75
:101D380015EE902A37EE457ABDEEE75AB0EEC77A2F
:101D4800F8EEC54A27EE067A77EEE47AF0EEE77AFF
:101D580067EE867A1448CDED026AFDEEE77A8DEDDE
:101D6800005ACDED017AFDEEC77A17EE903AFDEEF6
:101D7800C87A17EE901A07F0C6F9C4E90C7594ED05
:101D8800057AF1EE047AB4EEE77AF1EE10FA4CBF78
:101D980001200020A1E700BF00BA5B4A3EC32E38ED
:101DA80017B7D1380000C84268B90008F8B504462A
:101DB80008F08BF90A220023FEF7FEFE0D46D4E94F
:101DC80014120646711A03464EF6602065EB0202AD
:101DD800814272F1000212DBD4ED107A94ED0E7A92
:101DE80037EE277AD4ED0F7AB4EEE77AF1EE10FAEF
:101DF800C4E91465D8BFF0EE477AC4ED107A254FD0
:101E0800D4ED117A94ED107ADFED236AD7E9001248
:101E1800E7EE667A5B1A65EB0202B3F57A7F72F138
:101E28000002C4ED117A24DBFDEEE76A1B48B8EE28
:101E3800E66A16EE902A77EEC67A9FED196AF0EEFA
:101E4800E77A67EE867AFDEEE77A17EE903AFDEECE
:101E5800C77A17EE901A07F056F9D4ED107A1148A0
:101E6800FDEEE77A314617EE902A07F04CF9C7E9FC
:101E78000065D4ED117AF5EEC07AF1EE10FA06D8C5
:101E88000123637700F05AFA074807F03CF994ED0C
:101E9800100AF8BD48020020DC693A36B8B90008D3
:101EA8000000C842E5B9000800BA000810B52DEDD9
:101EB800028B037F0446B0EE408A93B900F04AFAD9
:101EC80007EE900A6368F8EEE77AC3ED027A08F045
:101ED800FCF800230A22FEF76FFEC4E9080101237B
:101EE8002377DFED157AB4EEE78AF1EE10FA1FD406
:101EF8009FED127AC8EE077A9FED117AC4ED047A45
:101F080067EE877AC4ED057A00F01EFA94ED057A3B
:101F1800DFED0C6AC6EE877AFCEEE77AC4ED0C7A40
:101F2800BDEC028B17EE900ABDE81040FEF7FCBF2F
:101F3800BDEC028B10BD00BF6F12833A00006145F3
:101F48000000FA460024744970B504464068FFF75B
:101F58007DFE38BB08F0B9F80A220023FEF72CFEF4
:101F68000D46D4E90A130646721A65EB0303B2F567
:101F7800FA6F73F1000304DB104807F0C4F8C4E9F2
:101F88000A65E068002106F008FFA068FFF70AFE6E
:101F980068B90B4807F0B7F8E0680121BDE8704060
:101FA80006F0FBBEE068002106F011FFEDE7E068EF
:101FB8000121BDE8704006F00ABF00BF17BA00084B
:101FC8003EBA000810B570B91248134A134940F2D6
:101FD800EF3307F0AEF8124807F0ABF80E4840F2BE
:101FE800EF3107F09DF883680E4CA34206D20E4CE1
:101FF800A34203D3BDE810401B691847064A0B49A2
:10200800044840F2EF3307F094F80949094807F00B
:1020180090F8E3E7E7B4000872BA0008D9B40008FA
:1020280004B50008B4AD00087CAD0008A5BA0008E6
:10203800F0BB000857B6000810B570B91348144A29
:10204800144940F2B13307F074F8134807F071F8F7
:102058000F4840F2B13107F063F883680F4A9342A2
:1020680007D20F4A934204D3BDE81040DB684C21E5
:102078001847074A0B49054840F2B13307F059F8A9
:1020880009490A4807F055F8E2E700BFE7B4000835
:1020980072BA0008D9B4000804B50008B4AD000845
:1020A8007CAD0008A5BA0008F0BB000857B60008C8
:1020B80010B503460A46006819790469012303FA32
:1020C80001F143681B6819420ED12249224A23486C
:1020D80040F29A6307F02DF8214807F02AF840F2F9
:1020E8009A611D4807F01CF823681E4C194218BF56
:1020F80082F00102BAB18368A34206D21A4A934217
:1021080003D3DB68BDE810401847134A1749134842
:102118004FF4B06307F00DF81549164807F009F8B1
:102128004FF4B061DDE78368A34204D20E4A9342BC
:1021380001D31B69E6E7084A0C49084840F2AA534C
:1021480006F0F7FF0A490B4806F0F3FF40F2AA51E0
:10215800C7E700BF28BC0008F7BB0008E7B40008C1
:1021680066BC00084CAD000828AD000878BC000823
:10217800B7BD000857B600080148FFF799BF00BF70
:10218800E0B000080148FFF793BF00BFE8B00008BF
:102198002DE9F041034600681979DB8870B93448A5
:1021A800344A35494FF47A7306F0C3FF334806F0D2
:1021B800C0FF4FF47A712F4806F0B2FF8668304AA4
:1021C800964215D22F4A964212D303F03002302A93
:1021D8004468076918D12C49264A25484FF47D736D
:1021E80006F0A7FF294806F0A4FF4FF47D71E2E747
:1021F800204A27491E484FF47A7306F09AFF25496A
:10220800254806F096FFD4E703F00602042A09D110
:102218002249184A164840F2FB3306F08AFF40F27A
:10222800FB31C8E724680125DA0705FA01F554BF30
:1022380043F4B01383F4D013254223F480120CD155
:1022480017490C4A0A4840F20E4306F072FF154837
:1022580006F06FFF40F20E41ADE73C68DB074CBF6C
:102268002C43AC433C603368BDE8F041184700BFDD
:10227800E7B40008F7BB0008BCBD000804B50008B7
:102288004CAD000828AD0008CBBD000804BE00080E
:1022980078BC0008B7BD000857B6000841BE000862
:1022A80028BC000866BC000808B5174807F07AFE85
:1022B80020B91648BDE8084006F025BF144807F0C5
:1022C80071FE08B91348F5E7134B186807F06AFE62
:1022D80008B91248EEE7124807F064FE08B9114839
:1022E800E8E71148FFF754FF1048FFF751FF10487F
:1022F800FFF74EFF0F48FFF74BFF0C480021FFF791
:10230800D7FE0D48D6E700BFA4A9000874BE000890
:1023180084AA000883BE0008080000208EBE0008BA
:10232800BCAA000899BE0008E0B00008D8B00008B0
:10233800D0B00008E8B00008A5BE00080148002198
:10234800FFF7B6BED0B0000801480121FFF7B0BEC4
:10235800D0B0000873B51A48FFF76EFE1848194E3A
:102368006A462F21FFF72EFE009C4FF416635C434C
:102378004FF4B47394FBF3F43368BFF35B8F13F03B
:10238800010F114D07D1304607F0A3FE18B13046B2
:102398002C6007F0AAFE2868201A10F5966F08DA54
:1023A80000F51660094B2C601A681044186002B0DA
:1023B80070BDB0F5966FC8BFA0F51660F2E700BF14
:1023C800BCAA0008E0040020E4040020DC0400208B
:1023D800B2F5802F2DE9F8430ED33E493E4A3F48D7
:1023E80040F2E12306F0A5FE3D4806F0A2FE40F2C9
:1023F800E121394806F094FE042A0CD83949364AB6
:1024080036484FF43A7306F094FE374806F091FECA
:102418004FF43A71EDE7043ACD1D114425F0070554
:1024280021F00706A6EB0508B8F1170F4FEAD80701
:102438000CD82E49284A294840F2F12306F079FEA3
:10244800294806F076FE40F2F121D2E7B7FA87F480
:10245800C4F12002C4F12404A4000734E408631C76
:102468004FF00009BB420560AF60C5F80C900CD96D
:102478001F49194A194840F2073306F05AFE1A480C
:1024880006F057FE40F20731B3E74946920005F1DE
:10249800100007F03DFEA2B2530043F001036B8029
:1024A8003B1B9BB205EBC4015800A5F8009048807F
:1024B80025F83420A6F8029025F8083005EBC70364
:1024C80021465A8842F001025A802846BDE8F8435E
:1024D80006F03FBD83C0000828C00008E7B4000824
:1024E80099C00008B0C00008D1C00008EAC00008C0
:1024F80013C1000808B5054806F005FE044807F0B2
:1025080043FD044806F0FFFD002008BD3EC1000859
:1025180040420F007AC10008014B1B68184700BFF2
:102528000C000020014B1860704700BF0C00002011
:1025380030B5044685B00D4610220021684607F0E4
:10254800E7FD02238DF802302A46044B0193214609
:10255800684604F09FFF05B030BD00BF2125000884
:10256800034A536823F0020353600020704700BFFA
:10257800002004E038B54568194C204607F012FDE4
:1025880050B3A368174A934207D2174A934204D319
:102598001B6883B96FF057001DE0144A14491548A9
:1025A800B02306F0C6FD1449144806F0C2FD0F48D2
:1025B800B02106F0B5FD29462046984700280ADBD9
:1025C80000F066F80E4B5A6842F400725A605A6876
:1025D8009205FCD5002038BD6FF01200FBE700BF64
:1025E800A8A80008D0AD0008B4AD0008CBC1000809
:1025F80005C20008E7B4000881C3000857B6000800
:102608000070004008B541681048114A8368934239
:1026180001F10C0107D20F4A934204D31B6883B916
:102628006FF057000EE00C4A0C490D48B02306F035
:1026380080FD0C490C4806F07CFD0748B02106F0E7
:102648006FFD984700EAE07008BD00BFA8A8000821
:10265800D0AD0008B4AD0008CBC1000805C2000821
:10266800E7B4000881C3000857B60008072810B56A
:1026780002D90024204610BD044B53F820402046C0
:1026880007F090FC0028F5D1F3E700BF98B10008E7
:1026980010B5EFF31184102383F31288BFF36F8F03
:1026A8001C4804F06DFB68B91B4A1C491C48882368
:1026B80006F03FFD17491B4806F03BFD88211648E8
:1026C80006F02EFD134804F07FFB174B1A683AB941
:1026D800164A116841F4807111601168C905FCD56A
:1026E8001A680C4801321A6004F058FB68B90A4AA3
:1026F8000F490B484FF49B7306F01BFD05490D4825
:1027080006F017FD4FF49B71D9E784F31188BFF3E6
:102718006F8F10BD6C0500200FC400083CC4000872
:10272800E7B4000851C400086805002000700040A4
:1027380067C400087EC40008084B1A6842F4807217
:102748001A601A6842F400721A601A6842F48062C9
:102758001A60034B034A1A60704700BF003C0240EE
:10276800580000200024F400014B0360002070474B
:10277800B8B1000880B505460E461746984604F0DD
:1027880023FA034600F006FDDFF85090044649F8A6
:102798000030424639463046A8470B4B1B7873B980
:1027A8000A490B4A0B4840F2463306F0C2FC0A4875
:1027B80006F0BFFC064840F2463106F0B1FC54F87A
:1027C800090000F065FC00BF6B070020BEC40008CC
:1027D80093C40008E7B40008D1C40008080000004A
:1027E80008B50348034A0021121A06F045FD08BD42
:1027F800B8000020700700200748084A084908B5B3
:10280800121A06F03BFD0748074A0849BDE8084088
:10281800121A06F033BD00BF00000020B8000020E7
:10282800C8DC00080000002000000020C8DC000808
:10283800F0B5074687B00C4600292ED0D1E9012310
:102848001D48096806F05FFCD4E90423E1681B48C9
:1028580006F059FCE1691A4806F055FC26460025A1
:10286800F36A0493EB1C0393B36A0293AB1C0193C2
:10287800736A0093326A13486B1C2946043506F0C4
:1028880042FC102D06F11006EAD1216E0E4806F022
:102898003AFCA1690D4806F036FC012F05D1EFF38B
:1028A80005810B48103906F02EFC2146384607B042
:1028B800BDE8F04002F006BCF3C4000823C50008D8
:1028C80053C5000863C50008A7C50008B7C50008B8
:1028D800E6C5000830BFFFF7FDBF00BF2DE9F04196
:1028E8000B4EDFF8348006EB0807CC1B0546324652
:1028F8000849204607F0FEFBA01942460021083C83
:1029080007F006FC2C6707F10800BDE8F08100BF5E
:1029180000000000E8AD0008080000002DE9F843B9
:102928003B4D80463B481746894606F0ECFBAB6AB0
:10293800DA0622D5384806F0E6FB1124AB6A1B07F5
:1029480003D5364806F0DFFB1224314DAB6A9E07EB
:1029580015D5334806F0D7FB6E6BAB6A1C0642D51B
:102968003048314606F0CFFBB9F1000F03D0AB6A0F
:1029780023F08003AB62132403E01024DEE76FF03A
:102988001506234DAB6AD80703D5274806F0BBFBCD
:102998001424AB6A990603D5244806F0B4FB152421
:1029A8001B4DAB6ADA0602D4AB6A9B070AD56B6883
:1029B800180507D54146304600F0EEFAB0B180F36D
:1029C80009880224124B9A6A920642BF5A6A22F474
:1029D80000525A629A6A42F0FF029A6200233B70E0
:1029E8002046BDE8F8836FF01506C4E7AB6AD90640
:1029F800E8D50F490F4A104840F2271306F099FB13
:102A08000E4806F096FB0B4840F2271106F088FBAB
:102A180000ED00E0FAC5000811C6000845C6000828
:102A280059C6000872C6000889C60008A9C6000869
:102A38000BC70008D9C60008E7B4000855C7000846
:102A480010B51D4C1D4806F05EFBA36A990130D5F0
:102A58001B4806F058FB1E20A36ADA0103D5194863
:102A680006F051FB1F20144CA36A1B0303D516481C
:102A780006F049FB2120A36A590303D5134806F041
:102A880042FB22200C4CA36A9A0303D5104806F097
:102A98003AFB2320A36ADB0303D50E4806F033FB79
:102AA8002420054A936A6FEA03436FEA134393624B
:102AB80010BD1D20D0E700BF00ED00E078C700087A
:102AC80091C70008A5C70008C0C70008DFC70008ED
:102AD80005C8000820C8000870B5244C06462448DC
:102AE8000D4606F010FBA36AD90435D5214806F037
:102AF8000AFB1720A36A1A0503D51F4806F003FB33
:102B080018201A4CA36A9B050FD51C4806F0FBFA3F
:102B1800A16BA36A180407D5194806F0F4FA1EB188
:102B2800A36A23F40043A3621920104CA36A590531
:102B380003D5144806F0E7FA1A20A36ADA050DD57A
:102B4800114806F0E0FA1B20084A936A43F47F43D1
:102B5800936200232B7070BD1620CBE7A36A9B04F9
:102B6800F2D50A4806F0CFFA1C20EDE700ED00E0A8
:102B78004CC8000863C8000845C6000875C80008A6
:102B88008FC80008A5C80008C1C80008A9C6000861
:102B980070B56E4B054658689CB0C0F30803002614
:102BA80086F31188BFF36F8F02F07F44B4F17F4F33
:102BB80006D102F00C04082C11D1654806F0A3FADE
:102BC8006449654A654840F21B4306F0B2FA644816
:102BD80006F0AFFA40F21B415F4806F0A1FA14076D
:102BE8004CBF0D460126002DEAD00024DA1E8DF8D0
:102BF8000740092A00F29A80DFE802F0058E9271F8
:102C0800989898989896574806F07DFA8DF8074056
:102C18004E4CE36A9A0704D5534806F074FA002428
:102C28002AE0E36A002B01DA5048F6E7E36A5B0022
:102C380065D54F4806F067FA6369AA6943F480735B
:102C48006361BFF34F8FBFF36F8F32F8023C626945
:102C580022F480726261BFF34F8FBFF36F8F03F46A
:102C68007F42B2F55F4F20D1DBB2022B1DD129681C
:102C7800404806F048FA2C689DF807309BB968224E
:102C8800294602A807F036FA099B002E5AD0C3F34A
:102C9800080222B96FEA53236FEA4323099302A972
:102CA8002046FFF7C5FD1CB070BD284B9A6AD2B20A
:102CB8003AB10DF1070201212846FFF72FFE04461D
:102CC800DAE79A6A12F47F4F05D00DF10701012067
:102CD800FFF702FFF3E79B6AB3F5803F02D3FFF7E4
:102CE800AFFEECE724491C4A1C4840F2ED2306F0ED
:102CF80020FA224806F01DFA40F2ED216CE71E4941
:102D0800154A16484FF43C7306F013FA1C4806F0AF
:102D180010FA4FF43C715FE70DF107020021CBE791
:102D28000DF107010020D3E7164876E7A3F110025A
:102D3800154B164910F4F87F08BF1946144806F0D9
:102D4800E2F96CE76FF30803A8E700BF00ED00E0C5
:102D580008C9000834C90008D9C60008E7B4000843
:102D680047C9000885C900089DC90008BFC90008EF
:102D7800CEC90008EEC90008CDD300080BCA000868
:102D88002FCA00085FCA0008DAC80008EFC80008A0
:102D980084CA0008044B5A6942F010025A615A6901
:102DA80022F008025A61704700ED00E0EFF3088056
:102DB800EFF3098101B57246FFF7EAFE01BD00BFD6
:102DC8000A4880F30888102080F3118808484FF4D7
:102DD8000861401880F30988EFF314800221084342
:102DE80080F31488BFF36F8F00F066F8801A002014
:102DF800000C00201EF0040F0CBFEFF30880EFF367
:102E08000980816911F8021C0229FFD001B57246B8
:102E180006F036FA01BD00BF40B2002807DB044ABD
:102E28004109012300F01F00834042F82130704718
:102E380000E100E038B54B1C0F2B04460D460FD9B6
:102E4800114A124912486B2306F073F911482946B2
:102E58000F23224606F06DF90B486B2106F060F946
:102E680040B20028ACBF00F160400B4A4FEA0313A0
:102E7800B8BF00F00F00DBB2AABF00F561401354E1
:102E880080F8003338BD00BF98CA0008CFCA0008D0
:102E9800E7B40008EACA000814ED00E0044B054A4C
:102EA80023F07F039360BFF34F8FBFF36F8F70479B
:102EB8000000000800ED00E008B5FFF7EFFF104B39
:102EC800D3F8882022F47002C3F88820D3F8882029
:102ED80042F4A002C3F888204FF04042C3F83422DD
:102EE800BFF34F8FBFF36F8F0023E1EE103AFFF768
:102EF80077FCFFF781FC00F02FF902F0EFF900BF33
:102F080000ED00E04FF47D41C0F8BC1042F8203CD1
:102F1800009B42F81C3C0A49019B42F8183C029B62
:102F280042F8143C21F001014FF0807342F8043C50
:102F380042F8081C0023203A02654367704700BF27
:102F48007D270008838913F0020F124B03D190F8F4
:102F5800BD20D20611D45A6B42F080425A63D0F891
:102F6800BC3019075CBF43F00803C0F8BC30838944
:102F780043F002038381802070475A6B22F080421D
:102F88005A63D0F8BC301A0744BF23F00803C0F8CE
:102F9800BC30F0E700EF00E0094A0346906870B1E2
:102FA80013F1160F006E05D0A0F18002934205D3ED
:102FB800834203D2814228BF002070470020704717
:102FC80028070020104B9B6883421AD1EFF3058035
:102FD800B8B9EFF31181102282F31288BFF36F8F13
:102FE8009A8922F002029A81EFF3148323F00403F2
:102FF80083F31488BFF36F8F81F31188BFF36F8F4A
:1030080070476FF0150070472807002008B515466F
:103018000E460022E1EE102AEFF3148222F0040299
:1030280082F31488BFF36F8FBFF36F8F0B4A0C4B7B
:103038009060026F1A6000F0BFF82C4686F309888A
:103048000020044B98472046002100220023024C10
:1030580020470000AB9200087D27000828070020C1
:1030680070050020014B10221A61704700ED00E046
:10307800054B9A699B689A421FBF044A536843F0FC
:1030880080535360704700BF2807002000ED00E020
:10309800084B9B6883420BD1EFF3058343B1064B82
:1030A8005A6842F080525A605A6A22F400425A62C0
:1030B80002F00EBE2807002000ED00E023498A68D0
:1030C80082F8BDE04FF030001044EFF3098C80E83F
:1030D800F01F1EF0100F03D102F17C0080EC108A63
:1030E800102080F31288BFF36F8F194F4FF00066DE
:1030F8008A698A603E60106F164C206092F9BDE0C4
:10310800506F0023536780F311881EF0100F03D00F
:103118000023E1EE103A03E002F17C0090EC108A03
:10312800EFF3148323F0040383F31488BFF36F8F42
:1031380004B5104600F040F8BDE8044002F1300044
:1031480090E8F01F8CF309887047000028070020DA
:1031580004ED00E070050020044800231021C21887
:1031680001334A2B82F80013F9D1704700E100E0DF
:1031780008B5EFF30583064A103B02EBC30152F88A
:10318800330049688847BDE80840FFF771BF00BFB2
:10319800D8AA0008014800687047000070050020A0
:1031A800024B034A0348012100F07CB800000220CA
:1031B80000000020B8B1000810B50446FFF7C2FEB1
:1031C800226E03460548D21AC0E90023044B8360E7
:1031D800BDE81040012100F08BB800BF7405002045
:1031E80000000B15084AC2F898000B6823F01F036B
:1031F800034343F01003C2F89C308B6843F001038B
:10320800C2F8A030704700BF00ED00E02DE9F043A0
:10321800DFF8608085B00E461F4604464FF000096F
:10322800B14523DA6068D8B13FB1411E08421BD1CD
:103238007F2819D92368194216D12368019306F00B
:1032480044F8A36803430393D8F89050C5F30725BF
:10325800D0B2013DA84207D801A9FFF7C3FF421C1D
:1032680009F101090C34DBE76FF01502104605B0CF
:10327800BDE8F08300ED00E0044B0522C3F894207C
:10328800BFF34F8FBFF36F8F704700BF00ED00E0B3
:10329800BFF35F8F024B0022C3F89420704700BF32
:1032A80000ED00E038B50D4D01232A780C46FFF7F4
:1032B800ADFF287016300FD1094A0A490A4840F272
:1032C800891305F036FF0948214605F032FF044806
:1032D80040F2891105F024FF38BD00BF6A070020BD
:1032E8002ACB0008CDD30008E7B4000859CB000862
:1032F80010B5144A002312780C46FFF787FF10F127
:10330800160F08D0104A0021D2F89030C3F30723D3
:10331800984210DB10BD0D4A0D490E484FF4D47386
:1033280005F007FF0C48214605F003FF07484FF456
:10333800D47105F0F5FEC2F89800C2F8A01001306B
:10334800E2E700BF6A07002000ED00E02ACB000892
:10335800CDD30008E7B4000885CB00082DE9F04F6D
:103368007F4E804DD6F890302C68C3F307239C42DB
:1033780085B013D97C4A7D497D4840F2022305F087
:10338800D8FED6F890207B482146C2F3072205F0E4
:10339800D0FE40F20221744805F0C2FEFFF778FF24
:1033A80000200C2684422DD1734EDFF8B49134707E
:1033B8006846FFF7D9F9714C714D80460027B8452A
:1033C80027D1337866490020D1F89020C2F307222C
:1033D8009342C0F2BA80FFF74FFFD1F8903003F460
:1033E8007F43B3F5006F00F0B68066495E4A6048D7
:1033F80040F27D2305F09DFE634805F09AFE40F2F9
:103408007D21C8E7696806FB0011FFF7EBFE013074
:10341800C8E7009A02EB07133901D3F80CA00AEAAF
:103428000400B0F5000F69D00AD8B0F5001F3DD0F0
:10343800B0F5800F55D0B0F5801F15D00137BEE725
:10344800B0F1007F65D0B0F1805F6DD0B0F1807FC2
:10345800F4D19868D3F804A0525805F036FFCDE9A6
:1034680001A240F088700BE09868D3F804A0525885
:1034780005F02BFFCDE901A240F0885040F4302040
:103488000390D9F890303078C3F30723013B984272
:1034980054D93649344A364840F2352305F049FEB6
:1034A8003A4805F046FE40F2352174E79868D3F8AB
:1034B80004B0525805F009FF40F0885040F400204D
:1034C8001AF0010FCDE901B20390DAD03049264A4B
:1034D8002748842305F02DFE2E4805F02AFE842176
:1034E80059E79868D3F804A0525805F0EEFE40F06A
:1034F800C060CDE901A240F40030C1E79868D3F874
:1035080004A0525805F0E1FECDE901A240F0827016
:10351800B6E79868D3F804A0525805F0D6FECDE96E
:1035280001A240F48020ABE79868D3F804A0525871
:1035380005F0CBFECDE901A22843A1E701A9FFF7D9
:1035480051FE33780133337078E7C1F89830C1F809
:10355800A000013338E7002005B0BDE8F08F00BFB8
:1035680000ED00E0C4B100082ACB0008CDD3000864
:10357800E7B40008B2CB00086A0700200000F0FF9B
:103588000000021165CC0008B5CC00083BCC00084F
:10359800E6CB00080CCC000808B5024B1B6898471E
:1035A800002008BD80050020034B044A186093786A
:1035B80043F002039370704780050020100000203C
:1035C80008B50649064821F00701C1F1005202F585
:1035D8000032FEF7FDFE002008BD00BF071B0020DB
:1035E8008405002008B509484FF0FF324FF0FF333B
:1035F80001F01EFF48B106490648074A7F2305F037
:1036080098FD05487F2105F08BFD08BD20000020AE
:103618001FCD0008E7B40008E5CC0008014801F018
:10362800CFBF00BF2000002010B50446FFF7DAFF27
:103638002146034805F0F9FCBDE81040FFF7EEBF4E
:103648008405002007B5124A92E80300CDE900017D
:103658001048114982688A4207D210498A4204D325
:10366800126882B96FF057000FE00D4A0D490E48F5
:10367800B02305F05EFD0D490D4805F05AFD0848D8
:10368800B02105F04DFD6946904703B05DF804FB95
:10369800E8AD0008A8A80008D0AD0008B4AD00083F
:1036A800CBC1000805C20008E7B4000881C30008C0
:1036B80057B600081F2809D8012303FA00F0044B65
:1036C8005B6998430CBF01200020704700207047B9
:1036D800003C014000F01F021F284FF0010303FACD
:1036E80002F39DBF024A002053616FF01500704736
:1036F800003C0140044B1844002301338B4200F87E
:10370800012BFADB704700BF6C0000202DE9F04167
:10371800104F054600264FF001086B78F4B2A3421B
:1037280001D8BDE8F0812B781C442046FFF7C2FF82
:1037380068B12046FFF7CEFF57F834303BB107EBAE
:10374800C40204F01F04516808FA04F098470136CF
:10375800E3E700BF9005002008B510B1431E0342FF
:103768000CD00E490E4A0F48602305F0E2FC0E48C3
:1037780005F0DFFC60210A4805F0D2FCB0FA80F0C1
:10378800C0F11F000F2807DD0849054A05486123D5
:1037980005F0CFFC6121EEE7C0B208BD8DCD000871
:1037A8004BCD0008E7B40008C2CD0008EBCD0008F7
:1037B80010B50446FFF7D0FF044B1856044B1A689F
:1037C80014431C60BDE81040FFF726BB6C000020C6
:1037D800003C0140024A136823EA00031360704763
:1037E800003C014008B5174B03291ED8DFE801F05B
:1037F800020B0E169A6822EA00029A60DA6822EA38
:103808000002DA6008BD9A680243F6E7DA68024304
:10381800DA609A6822EA00029A60F3E79A6802433B
:103828009A60DA681043D860ECE707490748084A05
:103838004FF4817305F07DFC05484FF4817105F064
:103848006FFC00BF003C0140CDD30008E7B400087E
:103858004BCD000838B50D461446FFF77DFF0A4BDF
:1038680053F83020AA4204D103EBC0014968A142B1
:1038780005D032B943F8305003EBC0035C60002038
:1038880038BD6FF00F00FBE79005002008B5FFF783
:1038980063FF044B002243F8302003EBC0035A6057
:1038A80008BD00BF9005002000F00302043292001A
:1038B8000F23934043EA9000C3B20233054A52F8FB
:1038C8002320030C02EA104093FAA3F3B3FA83F31C
:1038D800D84070470038014038B508883A4BC0F3E3
:1038E8000B0016281B680D4614463ED810B96FF019
:1038F800850039E001381528F9D801A252F820F0DE
:1039080065390008BF39000861390008BF39000867
:10391800BB3900089B390008AB390008F7380008A4
:10392800F7380008F7380008F7380008F7380008B3
:10393800F7380008F7380008F7380008F7380008A3
:10394800F7380008F7380008F7380008F738000893
:1039580065390008653900084FF4FA43236029687F
:10396800B1F5805F29D2002038BD44280ED82F2811
:10397800BDD900F57D61C1F30B0101228A401349CD
:103988000A42EBD14028B2D15B08E7E7A828E5D086
:10399800ADE700F0CFF84FF4C072C30853439B085B
:1039A800DCE700F0C7F84FF4C072C3085343DB08E4
:1039B800D4E7074BD2E70023D0E7C1F31331013135
:1039C800B3FBF1F32360CEE758000020110110008B
:1039D80000127A00162808D8054BC34013F0010FCF
:1039E8000CBF6FF08500002070476FF085007047AE
:1039F800EA00600070B54A4C4A4D00F0C3F8204612
:103A080005F058FD01F052FAAB68474AC3F30313B7
:103A1800D35C20FA03F613781C41A64202D2204652
:103A280001F08CFA2B6843F480232B602B6843F455
:103A380080332B603B4B1A689103FCD55A6F42F0D8
:103A480001025A675A6F9207FCD59A6802F00C0275
:103A5800082A17D11A68950707D41A6842F0010294
:103A68001A60304A13689807FCD52E4B9A6822F0E2
:103A780003029A609A6812F00C0FFBD19A6822F040
:103A8800F0029A60274D2B6823F080732B602B6817
:103A98009901FCD4254AD2F8043823F4403343F47E
:103AA8008033C2F80438D2F8043823F0706343F046
:103AB8000063C2F8043800F041F82B6843F08073C3
:103AC8002B60184B1A689201FCD59A6822F0F00214
:103AD8009A609A6822F0030242F002029A609A6899
:103AE80002F00C02082AFAD1A64202D3204601F0BD
:103AF80025FA0F4B0A4A1A600A4B9A6822F4E052D8
:103B080042F480529A609A6822F460429A60D3F82C
:103B18008C2022F08072C3F88C20002070BD00BF7A
:103B280000D8B805003802409FDC00080030024089
:103B3800580000200048704700127A000C4B0D49CD
:103B48005A6811400C4A0A435A605A680B4922F4D1
:103B5800403242F480325A605A6822F0E04242F41D
:103B680080325A605A681140054A0A435A607047C1
:103B7800003802400080BFFF086040000080BFF0AE
:103B880008604008064B1A6C42F0805282B01A64F2
:103B98001B6C03F080530193019B02B0704700BF78
:103BA8000038024001460D480D4A8368934210B51B
:103BB80006D20C4A934203D3BDE810405B6818470D
:103BC800094A0A490A48B82305F0B3FA09490A48D4
:103BD80005F0AFFA0448B82105F0A2FADCA90008FC
:103BE800E4AD0008D0AD00089AB4000815B5000887
:103BF800E7B4000852B6000857B6000808B50748E9
:103C080006F0D0F938B10648FFF7CEFC0448FEF7B5
:103C180089FC002008BD6FF01200FBE7DCA9000852
:103C2800BF94000838B5036961B92149214A22487F
:103C3800642305F07EFA214805F07BFA64211D48CB
:103C480005F06EFA486850B91D491A4A1A486523A2
:103C580005F06FFA1B4805F06CFA6521EFE79868E4
:103C680000B30024884219D108688CB9DC689860D0
:103C7800A14200D1D860002008602AB19A680A6081
:103C8800DA68996002B9D96000200FE02846E9E7B0
:103C98002060D868814208BFDC60ECE7056804460C
:103CA800002DF3D1002AE9D16FF0150038BD00BF0F
:103CB800B0CE000874CE0008E7B40008B9CE0008FA
:103CC800C8CE0008DACE00082DE9F843D0F80490F1
:103CD8000746D9F8080090460D461E4605F053FBE6
:103CE800B8F5001F044616D12846D9F80840FFF752
:103CF800DBFD84420CD1294605F045FB0446FFF75D
:103D080069FD2046FFF7C2FD00212046FFF76AFD46
:103D18000020BDE8F883B8F5800F20D0B6F1806F99
:103D280019D0B6F1C06F18D0B6F1007F1AD10226AB
:103D38000F493A462046FFF78DFDB0B9D9F808106B
:103D4800284605F025FB20463146FFF74BFD204667
:103D5800FFF72EFDDCE70126EAE70326E8E76FF028
:103D68008500D6E76FF01500D3E76FF00F00D0E7B6
:103D78007D3D000870B50B690E469968054609B186
:103D88000C6801B970BD8A682A4010D04B6863B9C5
:103D98000A490B4A0B48892305F0CBF90A4805F074
:103DA800C8F90748892105F0BBF9304698471CB186
:103DB800236821461C46E4E72346FAE7F1CE0008CB
:103DC80074CE0008E7B40008DACE0008F7B5044658
:103DD800436806692448DD6800220F460192596845
:103DE800224A8368934209D2214A934206D3DB6868
:103DF800A3B96FF00404204603B0F0BD1D4A1E4964
:103E08001E484FF4897305F094F91D491D4805F0C3
:103E180090F918484FF4897105F082F901AA98477A
:103E28000028E6DB376206F110074FF0FF324FF04B
:103E3800FF33384601F030FD2B6823F001032B6077
:103E4800204696F8521005F039FC019900F0ACF8BC
:103E580096F8513004461BB12B6843F001032B60E0
:103E6800384601F09DFCC6E7A8A80008D0AD0008B8
:103E7800B4AD0008CBC1000805C20008E7B40008CB
:103E880081C3000857B6000870B50446466805693E
:103E98004FF0FF320021284606F0A2F8336820468A
:103EA8009847002385F8503085F852300122114692
:103EB80005F1100006F094F8204600F033F8316957
:103EC800144B994220D013D8134B99421ED0134B50
:103ED800CB1A59425941890041F010012046FFF799
:103EE80075FF0028A2BF012385F85030002070BD5F
:103EF8000B4B99420CD003F5C31303F52063994289
:103F08000CBF0A210021E7E70621E5E70221E3E7E4
:103F18000821E1E740420F00A0860100801A060050
:103F280040E1330013B5446801AA6069002105F037
:103F380053FE002826DB019B00221979186805F03A
:103F48005EFE00281EDB1048104A836861689342B1
:103F580007D20F4A934204D31B6883B96FF0040059
:103F680010E00C4A0C490D48B02305F0E2F80C4962
:103F78000C4805F0DEF80748B02105F0D1F898475D
:103F88000028EBD102B010BDA8A80008D0AD0008E9
:103F9800B4AD0008CBC1000805C20008E7B40008AA
:103FA80081C3000857B6000810B502694368126A51
:103FB800DB68C2F34202012A04D0022A21D06FF042
:103FC800150010BD58681F4AB1FBF2F220F03F00FF
:103FD80010435860186A013220F03F0002431A6209
:103FE800194AB1FBF2F140F6FC72114208BF0421F4
:103FF800DA6922F44F4222F0FF020A43DA61002014
:10400800DFE758680F4AB1FBF2F220F03F00104397
:104018005860186A4FF49674624320F03F004FF4DA
:104028007A74B2FBF4F2013202431A62074A9142EF
:1040380089BF013248F20101B1FBF2F141F40041BC
:10404800D6E700BF40420F00400D03007F4F12002B
:104058002DE9F743DFF86C82864BD8F8087046687C
:10406800D0F81090346871699F420AD2824B9F42FF
:1040780007D33B689BB96FF05705284603B0BDE8E6
:10408800F0837E4A7E497F48B02305F052F87E4986
:104098007E4805F04EF87948B02105F041F84046D1
:1040A8009847051EE9DBB369012B40F2E08071698E
:1040B800BB690831002BDED00022404698470546F0
:1040C8000028DAD17169FB680831002BD3D06A4621
:1040D80040469847002823DB009BC9F80030D9E9FF
:1040E800010168B967486A4A6A4940F26B1305F0EA
:1040F80020F8694805F01DF8654840F26B11CCE7D7
:104108008368664A93420DD2654A93420AD3DB68B4
:10411800A3B9F06901AA002105F05EFD00280FDAB5
:104128000546AAE75A4A5F49564840F26B1305F01C
:1041380000F85D49554804F0FCFFDDE79847E8E7DB
:10414800019B00221979186805F059FD0028E7DB62
:104158007368A3620023E362236843F0800323604B
:10416800524B9C4245D0B4F1804F42D0A3F57C43DA
:104178009C423ED003F580639C423AD003F58063AD
:104188009C4236D003F578439C4232D003F57053F5
:104198009C4235D1236823F440732360434B9C42EF
:1041A8004DD1002323633369202B0AD1B36823F050
:1041B8004002202A01D0402B03D1236843F0040396
:1041C80023606368326923F0700313436360374BDD
:1041D8009C4245D1636CF26823F0FF031343636488
:1041E800636C43F400436364236843F00103236072
:1041F80043E72368B26823F0700313432360C9E7D9
:104208002B4B9C42C6D003F580639C42C2D0A3F5D9
:1042180098339C42BED003F580639C42BAD003F524
:1042280080639C42B6D0234B9C42BCD003F580638C
:104238009C42B8D03369B3B16FF085051DE71E4BBA
:104248009C42AED0B4F1804FADD01C4B9C42AAD05A
:104258001B4B9C42A7D003F580639C42E3D1A2E7A5
:10426800154B9C42B6D0F368002BBDD0E4E76FF045
:10427800150502E7D0AD0008B4AD0008CBC10008B1
:1042880005C20008E7B4000881C3000857B6000853
:1042980024CF000856CF000804B500087CAD0008FC
:1042A8006CAD000869CF0008ADD0000800000140DF
:1042B8000044014000100040000401400004004098
:1042C80000080040A8A800082DE9F0410C4604F1B8
:1042D800FF3C19464368BDF818701D68BCF1030F10
:1042E80015D8B5F1804F06D07A48854203D0B2F58B
:1042F800803F00F2EC807848042C50F82C6016BF00
:104308007648002450F82C40F80503D51CB96FF006
:10431800150006E0344632B92B6A23EA04032B62FF
:104328000020BDE8F0819B68002B7ED102F1FF38A8
:1043380007F00100402C4FEA400000F08D8000F2A9
:104348008280042C00F08A80102C00F08980012CD7
:1043580014BF06230023624F2A6A17F803E00227D6
:1043680007FA0EF300FA0EF022EA030303432B6266
:104378005C4B284653F82C309847C5F82C802B6A9C
:1043880034EA0303CCD0402E77D06DD8042E76D0F3
:10439800102E76D0012E14BF06230023524F534807
:1043A80017F803C010F803E005F11801732351F85A
:1043B8000C2003FA0EF322EA0303602202FA0EF23B
:1043C8001343402C41F80C3068D05ED8042C67D0D9
:1043D800102C67D0012C14BF06230023DFF810C16E
:1043E8006A681CF803C04FF4807303FA0CF322EADE
:1043F80003036B602B6A402E44EA03042C625ED0F0
:1044080054D8042E5DD0102E5DD0012E14BF062383
:104418000023FA5CC05C8C580823834023438B50EC
:104428006B6943F001036B617AE7102B01D1013905
:104438007CE723F04000202801D0402B47D14908D1
:104448004FEA520874E7B4F5807F0BD0B4F5806F5B
:1044580014BF062305237EE703237CE701237AE7BD
:10446800022378E7042376E7B6F5807F0BD0B6F50C
:10447800806F14BF0623052390E703238EE70123EB
:104488008CE73B468AE7042388E7B4F5807F0BD0A6
:10449800B4F5806F14BF062305239FE703239DE728
:1044A80001239BE7022399E7042397E7B6F5807F6A
:1044B8000BD0B6F5806F14BF06230523A9E70323A5
:1044C800A7E70123A5E70223A3E70423A1E76FF0E9
:1044D800850026E7000C0040ECB20008E0B20008B6
:1044E8008ADC0008D0B2000898DC000891DC0008DB
:1044F80083DC000830B50E29036911D11968114809
:104508000B130A25C1F30B0193FBF5F405FB1433D8
:1045180041434343146003EB11335360002030BD23
:104528000D290CD1B3F90430642093FBF0F100FBA2
:104538001133116042F2107113FB01F3EDE76FF0D4
:104548008500ECE7A086010070B50C2404FB02147A
:1045580014F8045C45F0020504F8045C70B91348CB
:10456800134A144940F2913304F0E3FD124804F071
:10457800E0FD0F4840F2913104F0D2FD84680F4D00
:10458800AC4207D20E4DAC4204D3A468A446BDE8A1
:1045980070406047064A0B49044840F2913304F0E2
:1045A800C8FD0949094804F0C4FDE2E7E7B400087A
:1045B800C4D0000856CF000804B5000864AD000850
:1045C8004CAD0008F4D000082AD2000857B60008FD
:1045D80030B50E29056943688BB00BD04C2909D03A
:1045E8001B491C481C4A272304F0A3FD1A4827210D
:1045F80004F096FD28228DF807200DF107021868AF
:10460800049201229B88059202AA0792052200249F
:10461800089207228DF818408DF82420022204A958
:10462800FFF792FFA04210DB9DF80A309DF80920A1
:104638001B0443EA02239DF8082013432B60BDF8AE
:104648000B30AB8020460BB030BD6FF00400FAE7AA
:1046580065D20008E7B400082ED2000837B54568CF
:10466800044601AA2868002105F0B6FA0028C0F21D
:104678008E80019B00221979186805F0C0FA00287D
:10468800C0F285804748484A8368934205F104018F
:1046980007D2464A934204D31B6883B96FF0570088
:1046A80075E0434A43494448B02304F042FD434976
:1046B800434804F03EFD3E48B02104F031FD9847E0
:1046C800002864DBE968EA69B1F1804F02D03D4B0C
:1046D80099425ED14FF0FF33B3FBF2F35343DB4310
:1046E800C3F1FF2303F57F03FE33CB62D5E9033221
:1046F8009A62EA686969936823F4804323F00703A0
:104708000B4393606368D9688A6922F0030242F018
:1047180001028A61D968587E8A6922F0F00242EA69
:1047280000128A61D9688A6922F00C028A61D96804
:10473800187E0A6A22F00A0343EA40030B626368A0
:10474800D9688A6922F4407242F480728A61D96811
:10475800587E8A6922F4704242EA00328A61D96836
:104768008A6922F440628A61D968187E0A6A22F04E
:10477800A00343EA40130B62EA68136A43F011038B
:104788001362EA68136843F001031360002003B062
:1047980030BD4FF6FF73B3FBF2F002FB1033C3F5E5
:1047A8007F43A1E7A8A80008D0AD0008B4AD000871
:1047B800CBC1000805C20008E7B4000881C300089F
:1047C80057B60008000C004037B5034604680D468C
:1047D800002959D04068196970B92E482E4A2F49C6
:1047E8004FF4897304F0A5FC2D4804F0A2FC2A4874
:1047F8004FF4897104F094FC83682A4A934207D2E3
:10480800294A934204D3DB6873B96FF057003DE03F
:10481800214A26491F484FF4897304F08AFC244929
:10482800244804F086FCE2E701AA984700282DDB1B
:10483800E368019923F400431920E360AA00AB0F51
:10484800A1FB0001FCF7B8F96422B0FBF2F102FB0E
:1048580011031B013233B3FBF2F303EB01130F2BEC
:1048680012D99BB2A360A3680F2B11D81249134A1F
:10487800084840F23D1304F05CFC114804F059FC70
:104888000E4840F23D11B5E76FF0150003B030BD9A
:104898000020FBE7E7B40008CBC1000856CF0008AA
:1048A80004B50008D0AD0008B4AD000805C2000882
:1048B80081C3000857B60008D7D20008A8D200085C
:1048C800F9D20008F8B50C46036941681E682379D7
:1048D800012B35D09A1E55425541AD026279022A04
:1048E8009CBF384F37F812C0A27988BF4FF4005CDC
:1048F800042A28D0003B18BF01231B03E279012AB0
:104908000A680CBF4FF440770027A642D1681DD132
:1049180021F4B05129430B43D360136923F4405366
:1049280043EA0C03136143681A68536923F440731C
:104938003B43536131684068BDE8F840FFF744BF26
:104948004FF4C065CAE74FF48053D7E701F4C0615C
:104958008D421FBFD16821F4C0612943D1604268EC
:1049680011680A6902F4405294451FBF0A6922F48B
:10497800405242EA0C020A6142681168CA6802F4AD
:10498800805293421FBFCA6822F480521343CB60FF
:1049980043681A68536903F440739F421FBF536901
:1049A80023F440733B43536121683368994206D02E
:1049B8004068FFF709FF08B923683360F8BD002095
:1049C800FCE700BF94B40008F7B544680546606882
:1049D800216960B94648474A4749B02304F0A9FB12
:1049E800464804F0A6FB4348B02104F099FB8368CD
:1049F800434A934207D2434A934204D31B686BB994
:104A08006FF057005EE03B4A3F493948B02304F055
:104A180090FB3E493E4804F08CFBE4E798470028A9
:104A280050DB606A01AA002105F0D6F8002849DBAE
:104A3800019B00221979186805F0E1F8002841DB8C
:104A48006E682B6934681F68E36823F40053E360D9
:104A5800B06805F0A7FA002844D0D6E9020168B981
:104A680023482C4A244940F26B1304F062FB234884
:104A780004F05FFB274840F26B11B6E78368264ACB
:104A8800934221D2254A93421ED3DB6843BB04F1EB
:104A98000C0353E8003F43F00C0304F10C0141E818
:104AA8000032002AF3D139462846FFF70BFFE0B958
:104AB800337E1BB1636943F008036361E36843F421
:104AC8000053E36003B0F0BD124A1549084840F2AC
:104AD8006B1304F02EFB13490D4804F02AFBC9E7B9
:104AE8009847D4E76FF01200ECE76FF01500E9E79C
:104AF800E7B40008CBC1000856CF000804B5000889
:104B0800D0AD0008B4AD000805C2000881C3000894
:104B180057B6000824CF00087CAD00086CAD00082B
:104B280069CF0008ADD00008F8B543681C68036970
:104B38001E680B79012B0D461AD0991E4A424A412C
:104B4800920295F805C0AF79BCF1020F96BF3249C1
:104B58004FF4005131F81C10042F00D083B1A3F199
:104B6800030EBEF1010F06D86FF085031846F8BD95
:104B78004FF4C062E5E70BB1042FF5D04FF4805332
:104B8800B1F5805F3ED0B1F5405F3DD000290CBF44
:104B9800012103218C45E7D1002B37D0002A0CBF17
:104BA800042303239F42DFD1EB79C3B1012BDBD16F
:104BB8001A4B9C4213D0A3F54C439C420FD003F5EB
:104BC80080639C420BD003F580639C4207D003F5B9
:104BD80080639C4203D003F544439C42C4D1E368FC
:104BE80023F40053E3602946FFF76CFE03460028D0
:104BF800BAD1E26842F40052E26095E8030086E820
:104C08000300B3E70021C5E70221C3E7002A0CBF70
:104C180003230223C6E700BF94B400080010014034
:104C28004FF0E0230D4A9969126818699B690029B9
:104C380008BF1146002B08BF134610F4803F0848F0
:104C480001D1994205D20168114401604FF0E02179
:104C5800096900681044C01A704700BF2407002083
:104C68001C070020094B102283F82320084B4FF41F
:104C780016521A60074B002018604FF0E02342F2EA
:104C88007F525A61072298611A61704700ED00E06F
:104C9800240700201C070020684620F007018D46E5
:104CA800F1B502F0A9FA0446FFF7BAFF124A134811
:104CB800D2E9005103685B19114D41F10001C2E9C5
:104CC8000031D5E900614FF41652002707609B1B9D
:104CD800B3FBF2F002FB00F39B1941F10001C5E9B7
:104CE8000031084B21461F6002F0E8F9FEF7C0F9D1
:104CF800BDE8F14085467047580200201C07002097
:104D080050020020200700202DE9F04180460C4683
:104D180005F0D1F970B93B493B4A3C484FF4A073C0
:104D280004F007FA3A4804F004FA37484FF4A0713F
:104D380004F0F6F9374E6CB1B8F1FF3F0AD14FF0E5
:104D4800E022136923F0010313614FF07F433360BE
:104D5800BDE8F081FFF764FF2F49304A35684FF00E
:104D6800E0239C69D1E90037C31847F10007002008
:104D7800B8F1FF3FC1E90037106025D02848D0E9D5
:104D88000020B3EB020C67EB0007002F37DB254B45
:104D98001B684FF4165E13EB08034FEAE87040F106
:104DA8000000A3FB0E320EFB0022B3EB0C0340F213
:104DB800014062EB0702834272F100001FDBB3F18E
:104DC800807F72F1000201DB6FF07F434FF0E02239
:104DD8003360013B9669536100239361124B4FF096
:104DE80000725A60B442D1E900023ABF63199B1BB2
:104DF800A31B1B1842F10002C1E90032A8E74FF4D7
:104E08008063E3E761D300082DD30008E7B4000806
:104E180077D3000824070020580200201C07002030
:104E2800500200202007002000ED00E010B505F03A
:104E380042F970B90E490F4A0F484FF4F27304F063
:104E480078F90E4804F075F90A484FF4F27104F045
:104E580067F90B4B1C680B4B1B68E41AFFF7E0FE65
:104E68004FF416532044B0FBF3F0074B186010BD05
:104E780061D300082DD30008E7B4000877D30008F1
:104E880058020020500200202007002038B502F008
:104E9800B3F9054B05461C68FFF7C2FE04442846D3
:104EA80002F0D4F9204638BD5802002008B5204940
:104EB8008B6803F00C03082B07D00C2B20D01D485F
:104EC8001D4A042B18BF104608BD4A684B6849683C
:104ED80013F4800314BF17481748C1F3881118BF8B
:104EE800002302F03F02A1FB0001FBF765FE104B17
:104EF8005B68C3F3014301335B00B0FBF3F0E3E706
:104F08004A684B68496813F4800314BF09480A4883
:104F1800C1F3881118BF002302F03F02A1FB000172
:104F2800FBF74AFE024B5B68C3F30273E5E700BF79
:104F38000038024000127A000024F400002800F033
:104F48008180424B1B6803F44043B3F5404F30D196
:104F580003F10F6303F58C53984207D83C4B9842F2
:104F680009D83C4B984208D9032300E00523012BBC
:104F780038BF012309E00423F9E7374B98421AD8D0
:104F8800364B98424FF00003F1D8304A126802F4C9
:104F98004042B2F5004F28D102F10F6202F5A34258
:104FA80090420AD9002B08BF0523012B38BF0123E3
:104FB8001BE00023E9E70223E7E7254A904203D9EB
:104FC800002B08BF0423F0E7224A904203D9002BA4
:104FD80008BF0323E9E7204A904203D9002BE4D114
:104FE800022302E01D4A9042DFD8184A126802F4F0
:104FF8004042B2F5804F13D1164A904206D9002B91
:1050080008BF0323012B38BF012309E0124A90424D
:1050180003D9002BF6D1022302E0104A9042F1D8BE
:105028000F490A6822F00F021A430A600A6802F060
:105038000F02934208D0086800F00F00C01A18BF8A
:105048000120704701207047002070470070004021
:10505800000E2707804A5D050087930380C3C901B6
:10506800003C024038B5436905463BB90024EA686C
:10507800537843F001035370604238BD98470446A3
:105088000028F3D000F1FF03FE2B0ED9094A0A4984
:105098000A48212304F04DF829680948224604F0FB
:1050A80048F80448212104F03BF8EB6844421C709E
:1050B800DDE700BF94D30008B7D30008E7B40008C1
:1050C800CFD3000870B50446EFF31186102383F39D
:1050D8001288BFF36F8F0E4B9D6804F076FF042C87
:1050E8000CD10C490C4A0D48872304F022F80C48CF
:1050F80004F01FF80848872104F012F886F3118895
:10510800BFF36F8F2846BDE87040FDF7C1BF00BFF1
:105118002807002016D40008F4D30008E7B40008D4
:1051280033D4000838B50A4B53F82040013053F8FF
:105138002050A54200D838BD606830B1037EDB0737
:1051480001D4FFF78FFF0834F3E723689847FAE79D
:10515800D0B3000870B53B4B3B4C3C4D86B00122A8
:1051680003201A70FFF7DEFFAC4214D10420FFF7CA
:10517800D9FF374C374DAC4226462ED93649374AE7
:105188003748462303F0D5FF364803F0D2FF4621BF
:10519800324803F0C5FF54F8043B002BE6D098478B
:1051A800E2E754F80C3C059354F8103C049354F887
:1051B800143C039354F8183C029354F81C3C019394
:1051C80054F8203C009354E90A2354E90C0100F0F8
:1051D8005DFC54F8303C5E65CDE7AE4204F1300426
:1051E800DFD301F02DFC1A4CAC421FD91A491B4AD7
:1051F8001B486A2303F09DFF1A4803F09AFF6A21AF
:10520800C6E7D4E90A23B3F1FF3F08BFB2F1FF3F75
:1052180005D052EA0301206803D100F0BBFC30340A
:10522800E2E71149183001F0E7FDF8E7E9D301F0AA
:1052380075FCFCF723FA0D4A938923F00103938147
:1052480006B070BD6B070020E4AD0008E8AD0008AB
:1052580028AD000828AD000889D4000868D40008E3
:10526800E7B40008B6D40008216500082003002030
:1052780070B5154E154D1649C02386B003FB006660
:1052880001220023CDE904230F22CDE90232019344
:10529800182303FB0055044601EB40210D4B0095F4
:1052A8004FF4C072304600F0F1FB337C0A4AEE60DE
:1052B80023F0040333744FF4086304FB03331344EB
:1052C8002C746B6006B070BD6002002028070020B7
:1052D80080140020F1530008000C00207FB5002046
:1052E800FFF720FF324B83F30888324C636943F49D
:1052F80000736361F02384F822300023E377237678
:105308006376A37684F82030636A43F4E02363620B
:10531800FDF740FDFDF7A6FE4FF0FF33A362E36201
:10532800FEF71CF8FDF73CFF234800F027FC234B51
:10533800234A93420ED92349234A2448CE2303F013
:10534800F8FE234803F0F5FE1F48CE2103F0E8FEDF
:105358001C33EEE7FCD3FDF7EFF90120FFF7E2FE7F
:105368000220FFF7DFFE01F063FB1A4B1A4C9C6129
:105378001A4B059300250123194900954FF48062C3
:10538800CDE90353CDE90155164B204600F07EFBCD
:10539800237C064623F004032046237400F0ACFE69
:1053A8002846FFF765FF0F4A31462046FDF72EFED7
:1053B8008014002000ED00E0E0030020A8A8000809
:1053C800D8AA0008D5D4000868D40008E7B40008B3
:1053D800B6D400082807002020030020EDD40008D8
:1053E800801600205D51000810B50D4B9B6893F99D
:1053F8000E30002B09DB1024EFF3118384F312889D
:10540800BFF36F8F03F054FFF6E706490648074AD3
:105418001C2303F08EFE05481C2103F081FE00BF0B
:105428002807002013D50008E7B40008F2D40008C4
:105438002DE9F341044617461E46EFF3058565B18D
:105448005449554A5548732303F073FE544803F0F2
:1054580070FE5148732103F063FEEFF311881023A7
:1054680083F31288BFF36F8F4E4801F089FC60B94F
:105478004D4A4E494948882303F05BFE49494C4848
:1054880003F057FE88214848E5E7464801F09CFCB0
:10549800484BE2689B6892B1A068984227D057EAC7
:1054A80006022CD13F4801F079FC90B188F31188AD
:1054B800BFF36F8F6FF00F0002B0BDE8F08193F972
:1054C8000E10384821610132C4E9023201F066FC4D
:1054D80078B9354A384931484FF49B7303F029FEAF
:1054E8003049364803F025FE4FF49B71CBE721691C
:1054F800E7E788F31188BFF36F8F0020DCE793F9A3
:105508000E1090F90E30994205DA9942A8BF194653
:1055180004F05EFD0546CDE9007622482246414664
:1055280001F04AF80028E8D0EFF31186102383F33E
:105538001288BFF36F8F1B4801F022FC002897D018
:10554800184801F041FCA068C0B1236821699C4259
:105558000AD04BB193F90E309942A8BF19466FF0A3
:105568007F039942B8BF194604F032FD30B10D48A7
:10557800314604F087FD6FF00A009DE7002DF6D153
:10558800084801F00BFC0028A3D086F31188BFF36C
:105598006F8FF0E75DD500083BD50008E7B4000839
:1055A8006FD500084C0700200FC400083CC4000851
:1055B80051C400082807002067C400087EC40008FA
:1055C800F8B50546EFF3058363B15549554A564882
:1055D800EA2303F0AEFD554803F0ABFDEA2151483C
:1055E80003F09EFD8368002B00F09480504A926877
:1055F800934240F09280C3684BB94E49494A4A48A1
:105608004FF4817303F095FD4FF48171E7E7012BA7
:1056180003D0013BC3600020F8BDEFF311871024CD
:1056280084F31288BFF36F8F434801F0A9FB60B978
:10563800424A43493C48882303F07BFD3E494148A0
:1056480003F077FD88213D48CAE73B4801F0BCFBE1
:105658002969A86804F0BCFCEFF3118384F312886D
:10566800BFF36F8F83F31188BFF36F8F5BB9364930
:10567800364A2D48FA2303F05CFD354803F059FDFE
:10568800FA213248ACE72C68A54215D10023C5E9B8
:105698000233294801F082FB002836D1274A2D49D8
:1056A80021484FF49B7303F044FD23492A4803F033
:1056B80040FD4FF49B71C6E7002CE7D0A3683BB9C7
:1056C8002649224A1848E32303F033FDE321D8E7AB
:1056D800D4E9003213605A60237C002623F00203C9
:1056E8002374C4E90066A66004F1180001F066FCA2
:1056F800AC6094F90E302B612046A66700F0FCFCE4
:105708000D48394604F0BEFC85E787F31188BFF3DE
:105718006F8F80E76FF015007EE74FF0FF307BE773
:105728005DD500083BD50008E7B400086FD5000830
:105738002807002094D500084C0700200FC4000853
:105748003CC4000851C40008D6D50008ABD50008F1
:10575800EED5000867C400087EC40008F1D500082B
:1057680008B583684BB90B490B480C4AE32303F08F
:10577800E0FC0A48E32103F0D3FCD0E900321360CF
:105788005A60027C0023C0E9003322F0020202744E
:10579800836008BDF1D50008E7B40008ABD5000860
:1057A80070B50446EFF31186102585F31288BFF310
:1057B8006F8F2F4801F0E4FA60B92E4A2E492F481E
:1057C800882303F0B6FC2A492D4803F0B2FC88214F
:1057D800284818E0264801F0F7FAEFF3118385F31B
:1057E8001288BFF36F8F83F31188BFF36F8F63B98C
:1057F8002449254A2148FA2303F09BFC234803F057
:1058080098FC2148FA2103F08BFC2568AC4212D0A1
:105818008DB12846FFF7A4FF05F1180001F0CEFB73
:1058280000232846AB6700F067FC31461048BDE806
:10583800704004F027BCD4E902329A4218BF013301
:105848000B48A36001F0AAFA68B90A4A10490B4844
:105858004FF49B7303F06DFC05490E4803F069FC97
:105868004FF49B71B4E786F31188BFF36F8F70BD57
:10587800500700200FC400083CC40008E7B4000823
:1058880051C40008D6D50008ABD50008EED50008ED
:1058980067C400087EC40008F7B5044616461D46CE
:1058A800EFF305837BB152EA05030CD02D492E4A4C
:1058B8002E48882303F03DFC2D4803F03AFC2A4883
:1058C800882103F02DFCEFF31187102383F312884E
:1058D800BFF36F8F274801F053FA60B9264A27496A
:1058E8002248882303F025FC2249254803F021FC9F
:1058F80088212148E5E71F4801F066FAA368D3B17B
:10590800013B1C48A36001F049FA68B91A4A1D49CD
:1059180016484FF49B7303F00CFC16491A4803F021
:1059280008FC4FF49B71E4E787F31188BFF36F8F8E
:10593800002003B0F0BD56EA05030BD10D4801F075
:105948002DFA0028E2D087F31188BFF36F8F6FF02C
:105958000F00EEE7CDE9006522463946054800F01C
:105968002BFEE6E728D6000808D60008E7B40008AA
:10597800EED50008500700200FC400083CC40008FA
:1059880051C4000867C400087EC400082DE9F0412E
:105998000546EFF31188102787F31288BFF36F8F3E
:1059A800304801F0EDF9064660B92F4A2F493048D2
:1059B800882303F0BEFB2B492E4803F0BAFB88214D
:1059C800294819E0274801F0FFF90023EFF3118275
:1059D80087F31288BFF36F8F82F31188BFF36F8F3D
:1059E80062B92549254A2248FA2303F0A2FB244834
:1059F80003F09FFB2148FA2103F092FB2C68A54293
:105A08000FD074B12046FFF7ABFE04F1180001F087
:105A1800D5FA6FF00A03A367204600F06DFB334602
:105A2800D4E70022AA608BB90E4801F0B7F998B9FB
:105A38000D4A14490E484FF49B7303F07AFB094949
:105A4800114803F076FB4FF49B71B9E741460548CE
:105A5800BDE8F04104F016BB88F31188BFF36F8FDF
:105A6800BDE8F081500700200FC400083CC40008BE
:105A7800E7B4000851C40008D6D50008ABD5000823
:105A8800EED5000867C400087EC400082DE9F0437D
:105A980085B004460F9D0F2D0E461F464BD1314B46
:105AA8009F424CD1073222F00702FF321099A181A0
:105AB80004F1580322F07F024FF000084FF000096C
:105AC800C4E91633042100237F2AC4E90A89C4E9FA
